{
	"contracts/dao.sol": {
		"Dao": {
			"abi": [
				{
					"inputs": [],
					"stateMutability": "nonpayable",
					"type": "constructor"
				},
				{
					"anonymous": false,
					"inputs": [
						{
							"indexed": false,
							"internalType": "uint256",
							"name": "proposalId",
							"type": "uint256"
						},
						{
							"indexed": false,
							"internalType": "address",
							"name": "proposer",
							"type": "address"
						},
						{
							"indexed": false,
							"internalType": "string",
							"name": "description",
							"type": "string"
						}
					],
					"name": "ProposalCreated",
					"type": "event"
				},
				{
					"anonymous": false,
					"inputs": [
						{
							"indexed": false,
							"internalType": "uint256[]",
							"name": "mostVotedProposals",
							"type": "uint256[]"
						},
						{
							"indexed": false,
							"internalType": "uint256",
							"name": "highestVoteCount",
							"type": "uint256"
						}
					],
					"name": "ProposalsClosed",
					"type": "event"
				},
				{
					"inputs": [],
					"name": "closeProposals",
					"outputs": [
						{
							"internalType": "uint256[]",
							"name": "",
							"type": "uint256[]"
						}
					],
					"stateMutability": "nonpayable",
					"type": "function"
				},
				{
					"inputs": [],
					"name": "owner",
					"outputs": [
						{
							"internalType": "address",
							"name": "",
							"type": "address"
						}
					],
					"stateMutability": "view",
					"type": "function"
				},
				{
					"inputs": [],
					"name": "proposalCount",
					"outputs": [
						{
							"internalType": "uint256",
							"name": "",
							"type": "uint256"
						}
					],
					"stateMutability": "view",
					"type": "function"
				},
				{
					"inputs": [
						{
							"internalType": "uint256",
							"name": "",
							"type": "uint256"
						}
					],
					"name": "proposals",
					"outputs": [
						{
							"internalType": "uint256",
							"name": "id",
							"type": "uint256"
						},
						{
							"internalType": "address",
							"name": "proposer",
							"type": "address"
						},
						{
							"internalType": "string",
							"name": "description",
							"type": "string"
						},
						{
							"internalType": "uint256",
							"name": "voteCount",
							"type": "uint256"
						},
						{
							"internalType": "bool",
							"name": "open",
							"type": "bool"
						}
					],
					"stateMutability": "view",
					"type": "function"
				},
				{
					"inputs": [
						{
							"internalType": "string",
							"name": "_description",
							"type": "string"
						}
					],
					"name": "propose",
					"outputs": [],
					"stateMutability": "nonpayable",
					"type": "function"
				},
				{
					"inputs": [
						{
							"internalType": "uint256",
							"name": "proposalId",
							"type": "uint256"
						}
					],
					"name": "vote",
					"outputs": [],
					"stateMutability": "nonpayable",
					"type": "function"
				},
				{
					"inputs": [
						{
							"internalType": "uint256",
							"name": "",
							"type": "uint256"
						}
					],
					"name": "voterAddresses",
					"outputs": [
						{
							"internalType": "address",
							"name": "",
							"type": "address"
						}
					],
					"stateMutability": "view",
					"type": "function"
				},
				{
					"inputs": [
						{
							"internalType": "address",
							"name": "",
							"type": "address"
						}
					],
					"name": "voters",
					"outputs": [
						{
							"internalType": "bool",
							"name": "voted",
							"type": "bool"
						},
						{
							"internalType": "uint256",
							"name": "vote",
							"type": "uint256"
						}
					],
					"stateMutability": "view",
					"type": "function"
				}
			],
			"devdoc": {
				"kind": "dev",
				"methods": {},
				"version": 1
			},
			"evm": {
				"assembly": "    /* \"contracts/dao.sol\":74:2961  contract Dao {... */\n  mstore(0x40, 0x80)\n    /* \"contracts/dao.sol\":680:759  constructor() {... */\n  callvalue\n  dup1\n  iszero\n  tag_1\n  jumpi\n  0x00\n  dup1\n  revert\ntag_1:\n  pop\n    /* \"contracts/dao.sol\":713:723  msg.sender */\n  caller\n    /* \"contracts/dao.sol\":705:710  owner */\n  0x03\n  0x00\n    /* \"contracts/dao.sol\":705:723  owner = msg.sender */\n  0x0100\n  exp\n  dup2\n  sload\n  dup2\n  0xffffffffffffffffffffffffffffffffffffffff\n  mul\n  not\n  and\n  swap1\n  dup4\n  0xffffffffffffffffffffffffffffffffffffffff\n  and\n  mul\n  or\n  swap1\n  sstore\n  pop\n    /* \"contracts/dao.sol\":750:751  0 */\n  0x00\n    /* \"contracts/dao.sol\":734:747  proposalCount */\n  0x02\n    /* \"contracts/dao.sol\":734:751  proposalCount = 0 */\n  dup2\n  swap1\n  sstore\n  pop\n    /* \"contracts/dao.sol\":74:2961  contract Dao {... */\n  dataSize(sub_0)\n  dup1\n  dataOffset(sub_0)\n  0x00\n  codecopy\n  0x00\n  return\nstop\n\nsub_0: assembly {\n        /* \"contracts/dao.sol\":74:2961  contract Dao {... */\n      mstore(0x40, 0x80)\n      callvalue\n      dup1\n      iszero\n      tag_1\n      jumpi\n      0x00\n      dup1\n      revert\n    tag_1:\n      pop\n      jumpi(tag_2, lt(calldatasize, 0x04))\n      shr(0xe0, calldataload(0x00))\n      dup1\n      0xa3ec138d\n      gt\n      tag_11\n      jumpi\n      dup1\n      0xa3ec138d\n      eq\n      tag_7\n      jumpi\n      dup1\n      0xaa98df39\n      eq\n      tag_8\n      jumpi\n      dup1\n      0xda35c664\n      eq\n      tag_9\n      jumpi\n      dup1\n      0xdd0e2373\n      eq\n      tag_10\n      jumpi\n      jump(tag_2)\n    tag_11:\n      dup1\n      0x0121b93f\n      eq\n      tag_3\n      jumpi\n      dup1\n      0x013cf08b\n      eq\n      tag_4\n      jumpi\n      dup1\n      0x8da5cb5b\n      eq\n      tag_5\n      jumpi\n      dup1\n      0x8f73f9a0\n      eq\n      tag_6\n      jumpi\n    tag_2:\n      0x00\n      dup1\n      revert\n        /* \"contracts/dao.sol\":1129:1513  function vote(uint proposalId) external {... */\n    tag_3:\n      tag_12\n      0x04\n      dup1\n      calldatasize\n      sub\n      dup2\n      add\n      swap1\n      tag_13\n      swap2\n      swap1\n      tag_14\n      jump\t// in\n    tag_13:\n      tag_15\n      jump\t// in\n    tag_12:\n      stop\n        /* \"contracts/dao.sol\":317:359  mapping(uint => Proposal) public proposals */\n    tag_4:\n      tag_16\n      0x04\n      dup1\n      calldatasize\n      sub\n      dup2\n      add\n      swap1\n      tag_17\n      swap2\n      swap1\n      tag_14\n      jump\t// in\n    tag_17:\n      tag_18\n      jump\t// in\n    tag_16:\n      mload(0x40)\n      tag_19\n      swap6\n      swap5\n      swap4\n      swap3\n      swap2\n      swap1\n      tag_20\n      jump\t// in\n    tag_19:\n      mload(0x40)\n      dup1\n      swap2\n      sub\n      swap1\n      return\n        /* \"contracts/dao.sol\":450:470  address public owner */\n    tag_5:\n      tag_21\n      tag_22\n      jump\t// in\n    tag_21:\n      mload(0x40)\n      tag_23\n      swap2\n      swap1\n      tag_24\n      jump\t// in\n    tag_23:\n      mload(0x40)\n      dup1\n      swap2\n      sub\n      swap1\n      return\n        /* \"contracts/dao.sol\":1521:2958  function closeProposals() public returns (uint[] memory) {... */\n    tag_6:\n      tag_25\n      tag_26\n      jump\t// in\n    tag_25:\n      mload(0x40)\n      tag_27\n      swap2\n      swap1\n      tag_28\n      jump\t// in\n    tag_27:\n      mload(0x40)\n      dup1\n      swap2\n      sub\n      swap1\n      return\n        /* \"contracts/dao.sol\":366:405  mapping(address => Voter) public voters */\n    tag_7:\n      tag_29\n      0x04\n      dup1\n      calldatasize\n      sub\n      dup2\n      add\n      swap1\n      tag_30\n      swap2\n      swap1\n      tag_31\n      jump\t// in\n    tag_30:\n      tag_32\n      jump\t// in\n    tag_29:\n      mload(0x40)\n      tag_33\n      swap3\n      swap2\n      swap1\n      tag_34\n      jump\t// in\n    tag_33:\n      mload(0x40)\n      dup1\n      swap2\n      sub\n      swap1\n      return\n        /* \"contracts/dao.sol\":767:1121  function propose(string memory _description) public {... */\n    tag_8:\n      tag_35\n      0x04\n      dup1\n      calldatasize\n      sub\n      dup2\n      add\n      swap1\n      tag_36\n      swap2\n      swap1\n      tag_37\n      jump\t// in\n    tag_36:\n      tag_38\n      jump\t// in\n    tag_35:\n      stop\n        /* \"contracts/dao.sol\":418:443  uint public proposalCount */\n    tag_9:\n      tag_39\n      tag_40\n      jump\t// in\n    tag_39:\n      mload(0x40)\n      tag_41\n      swap2\n      swap1\n      tag_42\n      jump\t// in\n    tag_41:\n      mload(0x40)\n      dup1\n      swap2\n      sub\n      swap1\n      return\n        /* \"contracts/dao.sol\":477:508  address[] public voterAddresses */\n    tag_10:\n      tag_43\n      0x04\n      dup1\n      calldatasize\n      sub\n      dup2\n      add\n      swap1\n      tag_44\n      swap2\n      swap1\n      tag_14\n      jump\t// in\n    tag_44:\n      tag_45\n      jump\t// in\n    tag_43:\n      mload(0x40)\n      tag_46\n      swap2\n      swap1\n      tag_24\n      jump\t// in\n    tag_46:\n      mload(0x40)\n      dup1\n      swap2\n      sub\n      swap1\n      return\n        /* \"contracts/dao.sol\":1129:1513  function vote(uint proposalId) external {... */\n    tag_15:\n        /* \"contracts/dao.sol\":1218:1222  true */\n      0x01\n        /* \"contracts/dao.sol\":1188:1222  proposals[proposalId].open == true */\n      iszero\n      iszero\n        /* \"contracts/dao.sol\":1188:1197  proposals */\n      0x00\n        /* \"contracts/dao.sol\":1188:1209  proposals[proposalId] */\n      dup1\n        /* \"contracts/dao.sol\":1198:1208  proposalId */\n      dup4\n        /* \"contracts/dao.sol\":1188:1209  proposals[proposalId] */\n      dup2\n      mstore\n      0x20\n      add\n      swap1\n      dup2\n      mstore\n      0x20\n      add\n      0x00\n      keccak256\n        /* \"contracts/dao.sol\":1188:1214  proposals[proposalId].open */\n      0x04\n      add\n      0x00\n      swap1\n      sload\n      swap1\n      0x0100\n      exp\n      swap1\n      div\n      0xff\n      and\n        /* \"contracts/dao.sol\":1188:1222  proposals[proposalId].open == true */\n      iszero\n      iszero\n      eq\n        /* \"contracts/dao.sol\":1180:1249  require(proposals[proposalId].open == true, \"Proposal must be open.\") */\n      tag_48\n      jumpi\n      mload(0x40)\n      0x08c379a000000000000000000000000000000000000000000000000000000000\n      dup2\n      mstore\n      0x04\n      add\n      tag_49\n      swap1\n      tag_50\n      jump\t// in\n    tag_49:\n      mload(0x40)\n      dup1\n      swap2\n      sub\n      swap1\n      revert\n    tag_48:\n        /* \"contracts/dao.sol\":1260:1280  Voter storage sender */\n      0x00\n        /* \"contracts/dao.sol\":1283:1289  voters */\n      0x01\n        /* \"contracts/dao.sol\":1283:1301  voters[msg.sender] */\n      0x00\n        /* \"contracts/dao.sol\":1290:1300  msg.sender */\n      caller\n        /* \"contracts/dao.sol\":1283:1301  voters[msg.sender] */\n      0xffffffffffffffffffffffffffffffffffffffff\n      and\n      0xffffffffffffffffffffffffffffffffffffffff\n      and\n      dup2\n      mstore\n      0x20\n      add\n      swap1\n      dup2\n      mstore\n      0x20\n      add\n      0x00\n      keccak256\n        /* \"contracts/dao.sol\":1260:1301  Voter storage sender = voters[msg.sender] */\n      swap1\n      pop\n        /* \"contracts/dao.sol\":1321:1327  sender */\n      dup1\n        /* \"contracts/dao.sol\":1321:1333  sender.voted */\n      0x00\n      add\n      0x00\n      swap1\n      sload\n      swap1\n      0x0100\n      exp\n      swap1\n      div\n      0xff\n      and\n        /* \"contracts/dao.sol\":1320:1333  !sender.voted */\n      iszero\n        /* \"contracts/dao.sol\":1312:1352  require(!sender.voted, \"Already voted.\") */\n      tag_51\n      jumpi\n      mload(0x40)\n      0x08c379a000000000000000000000000000000000000000000000000000000000\n      dup2\n      mstore\n      0x04\n      add\n      tag_52\n      swap1\n      tag_53\n      jump\t// in\n    tag_52:\n      mload(0x40)\n      dup1\n      swap2\n      sub\n      swap1\n      revert\n    tag_51:\n        /* \"contracts/dao.sol\":1378:1382  true */\n      0x01\n        /* \"contracts/dao.sol\":1363:1369  sender */\n      dup2\n        /* \"contracts/dao.sol\":1363:1375  sender.voted */\n      0x00\n      add\n      0x00\n        /* \"contracts/dao.sol\":1363:1382  sender.voted = true */\n      0x0100\n      exp\n      dup2\n      sload\n      dup2\n      0xff\n      mul\n      not\n      and\n      swap1\n      dup4\n      iszero\n      iszero\n      mul\n      or\n      swap1\n      sstore\n      pop\n        /* \"contracts/dao.sol\":1407:1417  proposalId */\n      dup2\n        /* \"contracts/dao.sol\":1393:1399  sender */\n      dup2\n        /* \"contracts/dao.sol\":1393:1404  sender.vote */\n      0x01\n      add\n        /* \"contracts/dao.sol\":1393:1417  sender.vote = proposalId */\n      dup2\n      swap1\n      sstore\n      pop\n        /* \"contracts/dao.sol\":1430:1439  proposals */\n      0x00\n        /* \"contracts/dao.sol\":1430:1451  proposals[proposalId] */\n      dup1\n        /* \"contracts/dao.sol\":1440:1450  proposalId */\n      dup4\n        /* \"contracts/dao.sol\":1430:1451  proposals[proposalId] */\n      dup2\n      mstore\n      0x20\n      add\n      swap1\n      dup2\n      mstore\n      0x20\n      add\n      0x00\n      keccak256\n        /* \"contracts/dao.sol\":1430:1461  proposals[proposalId].voteCount */\n      0x03\n      add\n      0x00\n        /* \"contracts/dao.sol\":1430:1463  proposals[proposalId].voteCount++ */\n      dup2\n      sload\n      dup1\n      swap3\n      swap2\n      swap1\n      tag_54\n      swap1\n      tag_55\n      jump\t// in\n    tag_54:\n      swap2\n      swap1\n      pop\n      sstore\n      pop\n        /* \"contracts/dao.sol\":1474:1488  voterAddresses */\n      0x04\n        /* \"contracts/dao.sol\":1494:1504  msg.sender */\n      caller\n        /* \"contracts/dao.sol\":1474:1505  voterAddresses.push(msg.sender) */\n      swap1\n      dup1\n      0x01\n      dup2\n      sload\n      add\n      dup1\n      dup3\n      sstore\n      dup1\n      swap2\n      pop\n      pop\n      0x01\n      swap1\n      sub\n      swap1\n      0x00\n      mstore\n      keccak256(0x00, 0x20)\n      add\n      0x00\n      swap1\n      swap2\n      swap1\n      swap2\n      swap1\n      swap2\n      0x0100\n      exp\n      dup2\n      sload\n      dup2\n      0xffffffffffffffffffffffffffffffffffffffff\n      mul\n      not\n      and\n      swap1\n      dup4\n      0xffffffffffffffffffffffffffffffffffffffff\n      and\n      mul\n      or\n      swap1\n      sstore\n      pop\n        /* \"contracts/dao.sol\":1169:1513  {... */\n      pop\n        /* \"contracts/dao.sol\":1129:1513  function vote(uint proposalId) external {... */\n      pop\n      jump\t// out\n        /* \"contracts/dao.sol\":317:359  mapping(uint => Proposal) public proposals */\n    tag_18:\n      mstore(0x20, 0x00)\n      dup1\n      0x00\n      mstore\n      keccak256(0x00, 0x40)\n      0x00\n      swap2\n      pop\n      swap1\n      pop\n      dup1\n      0x00\n      add\n      sload\n      swap1\n      dup1\n      0x01\n      add\n      0x00\n      swap1\n      sload\n      swap1\n      0x0100\n      exp\n      swap1\n      div\n      0xffffffffffffffffffffffffffffffffffffffff\n      and\n      swap1\n      dup1\n      0x02\n      add\n      dup1\n      sload\n      tag_57\n      swap1\n      tag_58\n      jump\t// in\n    tag_57:\n      dup1\n      0x1f\n      add\n      0x20\n      dup1\n      swap2\n      div\n      mul\n      0x20\n      add\n      mload(0x40)\n      swap1\n      dup2\n      add\n      0x40\n      mstore\n      dup1\n      swap3\n      swap2\n      swap1\n      dup2\n      dup2\n      mstore\n      0x20\n      add\n      dup3\n      dup1\n      sload\n      tag_59\n      swap1\n      tag_58\n      jump\t// in\n    tag_59:\n      dup1\n      iszero\n      tag_60\n      jumpi\n      dup1\n      0x1f\n      lt\n      tag_61\n      jumpi\n      0x0100\n      dup1\n      dup4\n      sload\n      div\n      mul\n      dup4\n      mstore\n      swap2\n      0x20\n      add\n      swap2\n      jump(tag_60)\n    tag_61:\n      dup3\n      add\n      swap2\n      swap1\n      0x00\n      mstore\n      keccak256(0x00, 0x20)\n      swap1\n    tag_62:\n      dup2\n      sload\n      dup2\n      mstore\n      swap1\n      0x01\n      add\n      swap1\n      0x20\n      add\n      dup1\n      dup4\n      gt\n      tag_62\n      jumpi\n      dup3\n      swap1\n      sub\n      0x1f\n      and\n      dup3\n      add\n      swap2\n    tag_60:\n      pop\n      pop\n      pop\n      pop\n      pop\n      swap1\n      dup1\n      0x03\n      add\n      sload\n      swap1\n      dup1\n      0x04\n      add\n      0x00\n      swap1\n      sload\n      swap1\n      0x0100\n      exp\n      swap1\n      div\n      0xff\n      and\n      swap1\n      pop\n      dup6\n      jump\t// out\n        /* \"contracts/dao.sol\":450:470  address public owner */\n    tag_22:\n      0x03\n      0x00\n      swap1\n      sload\n      swap1\n      0x0100\n      exp\n      swap1\n      div\n      0xffffffffffffffffffffffffffffffffffffffff\n      and\n      dup2\n      jump\t// out\n        /* \"contracts/dao.sol\":1521:2958  function closeProposals() public returns (uint[] memory) {... */\n    tag_26:\n        /* \"contracts/dao.sol\":1563:1576  uint[] memory */\n      0x60\n        /* \"contracts/dao.sol\":1606:1616  msg.sender */\n      caller\n        /* \"contracts/dao.sol\":1597:1616  owner == msg.sender */\n      0xffffffffffffffffffffffffffffffffffffffff\n      and\n        /* \"contracts/dao.sol\":1597:1602  owner */\n      0x03\n      0x00\n      swap1\n      sload\n      swap1\n      0x0100\n      exp\n      swap1\n      div\n      0xffffffffffffffffffffffffffffffffffffffff\n      and\n        /* \"contracts/dao.sol\":1597:1616  owner == msg.sender */\n      0xffffffffffffffffffffffffffffffffffffffff\n      and\n      eq\n        /* \"contracts/dao.sol\":1589:1652  require(owner == msg.sender, \"You are not the contract owner.\") */\n      tag_64\n      jumpi\n      mload(0x40)\n      0x08c379a000000000000000000000000000000000000000000000000000000000\n      dup2\n      mstore\n      0x04\n      add\n      tag_65\n      swap1\n      tag_66\n      jump\t// in\n    tag_65:\n      mload(0x40)\n      dup1\n      swap2\n      sub\n      swap1\n      revert\n    tag_64:\n        /* \"contracts/dao.sol\":1663:1684  uint highestVoteCount */\n      0x00\n        /* \"contracts/dao.sol\":1699:1725  uint[] memory topProposals */\n      dup1\n        /* \"contracts/dao.sol\":1739:1752  proposalCount */\n      sload(0x02)\n        /* \"contracts/dao.sol\":1728:1753  new uint[](proposalCount) */\n      0xffffffffffffffff\n      dup2\n      gt\n      iszero\n      tag_67\n      jumpi\n      tag_68\n      tag_69\n      jump\t// in\n    tag_68:\n    tag_67:\n      mload(0x40)\n      swap1\n      dup1\n      dup3\n      mstore\n      dup1\n      0x20\n      mul\n      0x20\n      add\n      dup3\n      add\n      0x40\n      mstore\n      dup1\n      iszero\n      tag_70\n      jumpi\n      dup2\n      0x20\n      add\n      0x20\n      dup3\n      mul\n      dup1\n      calldatasize\n      dup4\n      calldatacopy\n      dup1\n      dup3\n      add\n      swap2\n      pop\n      pop\n      swap1\n      pop\n    tag_70:\n      pop\n        /* \"contracts/dao.sol\":1699:1753  uint[] memory topProposals = new uint[](proposalCount) */\n      swap1\n      pop\n        /* \"contracts/dao.sol\":1764:1785  uint topProposalCount */\n      0x00\n        /* \"contracts/dao.sol\":1807:1813  uint i */\n      dup1\n        /* \"contracts/dao.sol\":1802:2372  for (uint i = 0; i < proposalCount; i++) {... */\n    tag_71:\n        /* \"contracts/dao.sol\":1823:1836  proposalCount */\n      sload(0x02)\n        /* \"contracts/dao.sol\":1819:1820  i */\n      dup2\n        /* \"contracts/dao.sol\":1819:1836  i < proposalCount */\n      lt\n        /* \"contracts/dao.sol\":1802:2372  for (uint i = 0; i < proposalCount; i++) {... */\n      iszero\n      tag_72\n      jumpi\n        /* \"contracts/dao.sol\":1862:1871  proposals */\n      0x00\n        /* \"contracts/dao.sol\":1862:1874  proposals[i] */\n      dup1\n        /* \"contracts/dao.sol\":1872:1873  i */\n      dup3\n        /* \"contracts/dao.sol\":1862:1874  proposals[i] */\n      dup2\n      mstore\n      0x20\n      add\n      swap1\n      dup2\n      mstore\n      0x20\n      add\n      0x00\n      keccak256\n        /* \"contracts/dao.sol\":1862:1879  proposals[i].open */\n      0x04\n      add\n      0x00\n      swap1\n      sload\n      swap1\n      0x0100\n      exp\n      swap1\n      div\n      0xff\n      and\n        /* \"contracts/dao.sol\":1858:2361  if (proposals[i].open) {... */\n      iszero\n      tag_74\n      jumpi\n        /* \"contracts/dao.sol\":1920:1925  false */\n      0x00\n        /* \"contracts/dao.sol\":1900:1909  proposals */\n      dup1\n        /* \"contracts/dao.sol\":1900:1912  proposals[i] */\n      0x00\n        /* \"contracts/dao.sol\":1910:1911  i */\n      dup4\n        /* \"contracts/dao.sol\":1900:1912  proposals[i] */\n      dup2\n      mstore\n      0x20\n      add\n      swap1\n      dup2\n      mstore\n      0x20\n      add\n      0x00\n      keccak256\n        /* \"contracts/dao.sol\":1900:1917  proposals[i].open */\n      0x04\n      add\n      0x00\n        /* \"contracts/dao.sol\":1900:1925  proposals[i].open = false */\n      0x0100\n      exp\n      dup2\n      sload\n      dup2\n      0xff\n      mul\n      not\n      and\n      swap1\n      dup4\n      iszero\n      iszero\n      mul\n      or\n      swap1\n      sstore\n      pop\n        /* \"contracts/dao.sol\":1975:1991  highestVoteCount */\n      dup4\n        /* \"contracts/dao.sol\":1950:1959  proposals */\n      0x00\n        /* \"contracts/dao.sol\":1950:1962  proposals[i] */\n      dup1\n        /* \"contracts/dao.sol\":1960:1961  i */\n      dup4\n        /* \"contracts/dao.sol\":1950:1962  proposals[i] */\n      dup2\n      mstore\n      0x20\n      add\n      swap1\n      dup2\n      mstore\n      0x20\n      add\n      0x00\n      keccak256\n        /* \"contracts/dao.sol\":1950:1972  proposals[i].voteCount */\n      0x03\n      add\n      sload\n        /* \"contracts/dao.sol\":1950:1991  proposals[i].voteCount > highestVoteCount */\n      gt\n        /* \"contracts/dao.sol\":1946:2346  if (proposals[i].voteCount > highestVoteCount)... */\n      iszero\n      tag_75\n      jumpi\n        /* \"contracts/dao.sol\":2052:2061  proposals */\n      0x00\n        /* \"contracts/dao.sol\":2052:2064  proposals[i] */\n      dup1\n        /* \"contracts/dao.sol\":2062:2063  i */\n      dup3\n        /* \"contracts/dao.sol\":2052:2064  proposals[i] */\n      dup2\n      mstore\n      0x20\n      add\n      swap1\n      dup2\n      mstore\n      0x20\n      add\n      0x00\n      keccak256\n        /* \"contracts/dao.sol\":2052:2074  proposals[i].voteCount */\n      0x03\n      add\n      sload\n        /* \"contracts/dao.sol\":2033:2074  highestVoteCount = proposals[i].voteCount */\n      swap4\n      pop\n        /* \"contracts/dao.sol\":2116:2117  1 */\n      0x01\n        /* \"contracts/dao.sol\":2097:2117  topProposalCount = 1 */\n      swap2\n      pop\n        /* \"contracts/dao.sol\":2158:2159  i */\n      dup1\n        /* \"contracts/dao.sol\":2140:2152  topProposals */\n      dup4\n        /* \"contracts/dao.sol\":2153:2154  0 */\n      0x00\n        /* \"contracts/dao.sol\":2140:2155  topProposals[0] */\n      dup2\n      mload\n      dup2\n      lt\n      tag_76\n      jumpi\n      tag_77\n      tag_78\n      jump\t// in\n    tag_77:\n    tag_76:\n      0x20\n      mul\n      0x20\n      add\n      add\n        /* \"contracts/dao.sol\":2140:2159  topProposals[0] = i */\n      dup2\n      dup2\n      mstore\n      pop\n      pop\n        /* \"contracts/dao.sol\":1946:2346  if (proposals[i].voteCount > highestVoteCount)... */\n      jump(tag_79)\n    tag_75:\n        /* \"contracts/dao.sol\":2232:2248  highestVoteCount */\n      dup4\n        /* \"contracts/dao.sol\":2206:2215  proposals */\n      0x00\n        /* \"contracts/dao.sol\":2206:2218  proposals[i] */\n      dup1\n        /* \"contracts/dao.sol\":2216:2217  i */\n      dup4\n        /* \"contracts/dao.sol\":2206:2218  proposals[i] */\n      dup2\n      mstore\n      0x20\n      add\n      swap1\n      dup2\n      mstore\n      0x20\n      add\n      0x00\n      keccak256\n        /* \"contracts/dao.sol\":2206:2228  proposals[i].voteCount */\n      0x03\n      add\n      sload\n        /* \"contracts/dao.sol\":2206:2248  proposals[i].voteCount == highestVoteCount */\n      sub\n        /* \"contracts/dao.sol\":2202:2346  if (proposals[i].voteCount == highestVoteCount)... */\n      tag_80\n      jumpi\n        /* \"contracts/dao.sol\":2325:2326  i */\n      dup1\n        /* \"contracts/dao.sol\":2290:2302  topProposals */\n      dup4\n        /* \"contracts/dao.sol\":2303:2321  topProposalCount++ */\n      dup4\n      dup1\n      tag_81\n      swap1\n      tag_55\n      jump\t// in\n    tag_81:\n      swap5\n      pop\n        /* \"contracts/dao.sol\":2290:2322  topProposals[topProposalCount++] */\n      dup2\n      mload\n      dup2\n      lt\n      tag_82\n      jumpi\n      tag_83\n      tag_78\n      jump\t// in\n    tag_83:\n    tag_82:\n      0x20\n      mul\n      0x20\n      add\n      add\n        /* \"contracts/dao.sol\":2290:2326  topProposals[topProposalCount++] = i */\n      dup2\n      dup2\n      mstore\n      pop\n      pop\n        /* \"contracts/dao.sol\":2202:2346  if (proposals[i].voteCount == highestVoteCount)... */\n    tag_80:\n        /* \"contracts/dao.sol\":1946:2346  if (proposals[i].voteCount > highestVoteCount)... */\n    tag_79:\n        /* \"contracts/dao.sol\":1858:2361  if (proposals[i].open) {... */\n    tag_74:\n        /* \"contracts/dao.sol\":1838:1841  i++ */\n      dup1\n      dup1\n      0x01\n      add\n      swap2\n      pop\n      pop\n        /* \"contracts/dao.sol\":1802:2372  for (uint i = 0; i < proposalCount; i++) {... */\n      jump(tag_71)\n    tag_72:\n      pop\n        /* \"contracts/dao.sol\":2384:2416  uint[] memory mostVotedProposals */\n      0x00\n        /* \"contracts/dao.sol\":2430:2446  topProposalCount */\n      dup2\n        /* \"contracts/dao.sol\":2419:2447  new uint[](topProposalCount) */\n      0xffffffffffffffff\n      dup2\n      gt\n      iszero\n      tag_84\n      jumpi\n      tag_85\n      tag_69\n      jump\t// in\n    tag_85:\n    tag_84:\n      mload(0x40)\n      swap1\n      dup1\n      dup3\n      mstore\n      dup1\n      0x20\n      mul\n      0x20\n      add\n      dup3\n      add\n      0x40\n      mstore\n      dup1\n      iszero\n      tag_86\n      jumpi\n      dup2\n      0x20\n      add\n      0x20\n      dup3\n      mul\n      dup1\n      calldatasize\n      dup4\n      calldatacopy\n      dup1\n      dup3\n      add\n      swap2\n      pop\n      pop\n      swap1\n      pop\n    tag_86:\n      pop\n        /* \"contracts/dao.sol\":2384:2447  uint[] memory mostVotedProposals = new uint[](topProposalCount) */\n      swap1\n      pop\n        /* \"contracts/dao.sol\":2463:2469  uint j */\n      0x00\n        /* \"contracts/dao.sol\":2458:2568  for (uint j = 0; j < topProposalCount; j++) {... */\n    tag_87:\n        /* \"contracts/dao.sol\":2479:2495  topProposalCount */\n      dup3\n        /* \"contracts/dao.sol\":2475:2476  j */\n      dup2\n        /* \"contracts/dao.sol\":2475:2495  j < topProposalCount */\n      lt\n        /* \"contracts/dao.sol\":2458:2568  for (uint j = 0; j < topProposalCount; j++) {... */\n      iszero\n      tag_88\n      jumpi\n        /* \"contracts/dao.sol\":2541:2553  topProposals */\n      dup4\n        /* \"contracts/dao.sol\":2554:2555  j */\n      dup2\n        /* \"contracts/dao.sol\":2541:2556  topProposals[j] */\n      dup2\n      mload\n      dup2\n      lt\n      tag_90\n      jumpi\n      tag_91\n      tag_78\n      jump\t// in\n    tag_91:\n    tag_90:\n      0x20\n      mul\n      0x20\n      add\n      add\n      mload\n        /* \"contracts/dao.sol\":2517:2535  mostVotedProposals */\n      dup3\n        /* \"contracts/dao.sol\":2536:2537  j */\n      dup3\n        /* \"contracts/dao.sol\":2517:2538  mostVotedProposals[j] */\n      dup2\n      mload\n      dup2\n      lt\n      tag_92\n      jumpi\n      tag_93\n      tag_78\n      jump\t// in\n    tag_93:\n    tag_92:\n      0x20\n      mul\n      0x20\n      add\n      add\n        /* \"contracts/dao.sol\":2517:2556  mostVotedProposals[j] = topProposals[j] */\n      dup2\n      dup2\n      mstore\n      pop\n      pop\n        /* \"contracts/dao.sol\":2497:2500  j++ */\n      dup1\n      dup1\n      0x01\n      add\n      swap2\n      pop\n      pop\n        /* \"contracts/dao.sol\":2458:2568  for (uint j = 0; j < topProposalCount; j++) {... */\n      jump(tag_87)\n    tag_88:\n      pop\n        /* \"contracts/dao.sol\":2593:2599  uint k */\n      0x00\n        /* \"contracts/dao.sol\":2588:2752  for (uint k = 0; k < voterAddresses.length; k++) {... */\n    tag_94:\n        /* \"contracts/dao.sol\":2609:2623  voterAddresses */\n      0x04\n        /* \"contracts/dao.sol\":2609:2630  voterAddresses.length */\n      dup1\n      sload\n      swap1\n      pop\n        /* \"contracts/dao.sol\":2605:2606  k */\n      dup2\n        /* \"contracts/dao.sol\":2605:2630  k < voterAddresses.length */\n      lt\n        /* \"contracts/dao.sol\":2588:2752  for (uint k = 0; k < voterAddresses.length; k++) {... */\n      iszero\n      tag_95\n      jumpi\n        /* \"contracts/dao.sol\":2686:2691  false */\n      0x00\n        /* \"contracts/dao.sol\":2652:2658  voters */\n      0x01\n        /* \"contracts/dao.sol\":2652:2677  voters[voterAddresses[k]] */\n      0x00\n        /* \"contracts/dao.sol\":2659:2673  voterAddresses */\n      0x04\n        /* \"contracts/dao.sol\":2674:2675  k */\n      dup5\n        /* \"contracts/dao.sol\":2659:2676  voterAddresses[k] */\n      dup2\n      sload\n      dup2\n      lt\n      tag_97\n      jumpi\n      tag_98\n      tag_78\n      jump\t// in\n    tag_98:\n    tag_97:\n      swap1\n      0x00\n      mstore\n      keccak256(0x00, 0x20)\n      add\n      0x00\n      swap1\n      sload\n      swap1\n      0x0100\n      exp\n      swap1\n      div\n      0xffffffffffffffffffffffffffffffffffffffff\n      and\n        /* \"contracts/dao.sol\":2652:2677  voters[voterAddresses[k]] */\n      0xffffffffffffffffffffffffffffffffffffffff\n      and\n      0xffffffffffffffffffffffffffffffffffffffff\n      and\n      dup2\n      mstore\n      0x20\n      add\n      swap1\n      dup2\n      mstore\n      0x20\n      add\n      0x00\n      keccak256\n        /* \"contracts/dao.sol\":2652:2683  voters[voterAddresses[k]].voted */\n      0x00\n      add\n      0x00\n        /* \"contracts/dao.sol\":2652:2691  voters[voterAddresses[k]].voted = false */\n      0x0100\n      exp\n      dup2\n      sload\n      dup2\n      0xff\n      mul\n      not\n      and\n      swap1\n      dup4\n      iszero\n      iszero\n      mul\n      or\n      swap1\n      sstore\n      pop\n        /* \"contracts/dao.sol\":2739:2740  0 */\n      0x00\n        /* \"contracts/dao.sol\":2706:2712  voters */\n      0x01\n        /* \"contracts/dao.sol\":2706:2731  voters[voterAddresses[k]] */\n      0x00\n        /* \"contracts/dao.sol\":2713:2727  voterAddresses */\n      0x04\n        /* \"contracts/dao.sol\":2728:2729  k */\n      dup5\n        /* \"contracts/dao.sol\":2713:2730  voterAddresses[k] */\n      dup2\n      sload\n      dup2\n      lt\n      tag_100\n      jumpi\n      tag_101\n      tag_78\n      jump\t// in\n    tag_101:\n    tag_100:\n      swap1\n      0x00\n      mstore\n      keccak256(0x00, 0x20)\n      add\n      0x00\n      swap1\n      sload\n      swap1\n      0x0100\n      exp\n      swap1\n      div\n      0xffffffffffffffffffffffffffffffffffffffff\n      and\n        /* \"contracts/dao.sol\":2706:2731  voters[voterAddresses[k]] */\n      0xffffffffffffffffffffffffffffffffffffffff\n      and\n      0xffffffffffffffffffffffffffffffffffffffff\n      and\n      dup2\n      mstore\n      0x20\n      add\n      swap1\n      dup2\n      mstore\n      0x20\n      add\n      0x00\n      keccak256\n        /* \"contracts/dao.sol\":2706:2736  voters[voterAddresses[k]].vote */\n      0x01\n      add\n        /* \"contracts/dao.sol\":2706:2740  voters[voterAddresses[k]].vote = 0 */\n      dup2\n      swap1\n      sstore\n      pop\n        /* \"contracts/dao.sol\":2632:2635  k++ */\n      dup1\n      dup1\n      0x01\n      add\n      swap2\n      pop\n      pop\n        /* \"contracts/dao.sol\":2588:2752  for (uint k = 0; k < voterAddresses.length; k++) {... */\n      jump(tag_94)\n    tag_95:\n      pop\n        /* \"contracts/dao.sol\":2762:2844  while (voterAddresses.length != 0) {... */\n    tag_103:\n        /* \"contracts/dao.sol\":2794:2795  0 */\n      0x00\n        /* \"contracts/dao.sol\":2769:2783  voterAddresses */\n      0x04\n        /* \"contracts/dao.sol\":2769:2790  voterAddresses.length */\n      dup1\n      sload\n      swap1\n      pop\n        /* \"contracts/dao.sol\":2769:2795  voterAddresses.length != 0 */\n      eq\n        /* \"contracts/dao.sol\":2762:2844  while (voterAddresses.length != 0) {... */\n      tag_104\n      jumpi\n        /* \"contracts/dao.sol\":2812:2826  voterAddresses */\n      0x04\n        /* \"contracts/dao.sol\":2812:2832  voterAddresses.pop() */\n      dup1\n      sload\n      dup1\n      tag_105\n      jumpi\n      tag_106\n      tag_107\n      jump\t// in\n    tag_106:\n    tag_105:\n      0x01\n      swap1\n      sub\n      dup2\n      dup2\n      swap1\n      0x00\n      mstore\n      keccak256(0x00, 0x20)\n      add\n      exp(0x0100, 0x00)\n      dup2\n      sload\n      swap1\n      0xffffffffffffffffffffffffffffffffffffffff\n      mul\n      not\n      and\n      swap1\n      sstore\n      swap1\n      sstore\n        /* \"contracts/dao.sol\":2762:2844  while (voterAddresses.length != 0) {... */\n      jump(tag_103)\n    tag_104:\n        /* \"contracts/dao.sol\":2861:2914  ProposalsClosed(mostVotedProposals, highestVoteCount) */\n      0xda19a91227bf044df0e2a105ba158941c8e9b15fed2870e5ddbd47450c2983eb\n        /* \"contracts/dao.sol\":2877:2895  mostVotedProposals */\n      dup2\n        /* \"contracts/dao.sol\":2897:2913  highestVoteCount */\n      dup6\n        /* \"contracts/dao.sol\":2861:2914  ProposalsClosed(mostVotedProposals, highestVoteCount) */\n      mload(0x40)\n      tag_109\n      swap3\n      swap2\n      swap1\n      tag_110\n      jump\t// in\n    tag_109:\n      mload(0x40)\n      dup1\n      swap2\n      sub\n      swap1\n      log1\n        /* \"contracts/dao.sol\":2932:2950  mostVotedProposals */\n      dup1\n        /* \"contracts/dao.sol\":2925:2950  return mostVotedProposals */\n      swap5\n      pop\n      pop\n      pop\n      pop\n      pop\n        /* \"contracts/dao.sol\":1521:2958  function closeProposals() public returns (uint[] memory) {... */\n      swap1\n      jump\t// out\n        /* \"contracts/dao.sol\":366:405  mapping(address => Voter) public voters */\n    tag_32:\n      mstore(0x20, 0x01)\n      dup1\n      0x00\n      mstore\n      keccak256(0x00, 0x40)\n      0x00\n      swap2\n      pop\n      swap1\n      pop\n      dup1\n      0x00\n      add\n      0x00\n      swap1\n      sload\n      swap1\n      0x0100\n      exp\n      swap1\n      div\n      0xff\n      and\n      swap1\n      dup1\n      0x01\n      add\n      sload\n      swap1\n      pop\n      dup3\n      jump\t// out\n        /* \"contracts/dao.sol\":767:1121  function propose(string memory _description) public {... */\n    tag_38:\n        /* \"contracts/dao.sol\":859:1039  Proposal({... */\n      mload(0x40)\n      dup1\n      0xa0\n      add\n      0x40\n      mstore\n      dup1\n        /* \"contracts/dao.sol\":887:900  proposalCount */\n      sload(0x02)\n        /* \"contracts/dao.sol\":859:1039  Proposal({... */\n      dup2\n      mstore\n      0x20\n      add\n        /* \"contracts/dao.sol\":925:935  msg.sender */\n      caller\n        /* \"contracts/dao.sol\":859:1039  Proposal({... */\n      0xffffffffffffffffffffffffffffffffffffffff\n      and\n      dup2\n      mstore\n      0x20\n      add\n        /* \"contracts/dao.sol\":963:975  _description */\n      dup3\n        /* \"contracts/dao.sol\":859:1039  Proposal({... */\n      dup2\n      mstore\n      0x20\n      add\n        /* \"contracts/dao.sol\":1001:1002  0 */\n      0x00\n        /* \"contracts/dao.sol\":859:1039  Proposal({... */\n      dup2\n      mstore\n      0x20\n      add\n        /* \"contracts/dao.sol\":1023:1027  true */\n      0x01\n        /* \"contracts/dao.sol\":859:1039  Proposal({... */\n      iszero\n      iszero\n      dup2\n      mstore\n      pop\n        /* \"contracts/dao.sol\":830:839  proposals */\n      0x00\n        /* \"contracts/dao.sol\":830:856  proposals[proposalCount++] */\n      dup1\n        /* \"contracts/dao.sol\":840:853  proposalCount */\n      0x02\n      0x00\n        /* \"contracts/dao.sol\":840:855  proposalCount++ */\n      dup2\n      sload\n      dup1\n      swap3\n      swap2\n      swap1\n      tag_112\n      swap1\n      tag_55\n      jump\t// in\n    tag_112:\n      swap2\n      swap1\n      pop\n      sstore\n        /* \"contracts/dao.sol\":830:856  proposals[proposalCount++] */\n      dup2\n      mstore\n      0x20\n      add\n      swap1\n      dup2\n      mstore\n      0x20\n      add\n      0x00\n      keccak256\n        /* \"contracts/dao.sol\":830:1039  proposals[proposalCount++] = Proposal({... */\n      0x00\n      dup3\n      add\n      mload\n      dup2\n      0x00\n      add\n      sstore\n      0x20\n      dup3\n      add\n      mload\n      dup2\n      0x01\n      add\n      exp(0x0100, 0x00)\n      dup2\n      sload\n      dup2\n      0xffffffffffffffffffffffffffffffffffffffff\n      mul\n      not\n      and\n      swap1\n      dup4\n      0xffffffffffffffffffffffffffffffffffffffff\n      and\n      mul\n      or\n      swap1\n      sstore\n      pop\n      0x40\n      dup3\n      add\n      mload\n      dup2\n      0x02\n      add\n      swap1\n      dup2\n      tag_113\n      swap2\n      swap1\n      tag_114\n      jump\t// in\n    tag_113:\n      pop\n      0x60\n      dup3\n      add\n      mload\n      dup2\n      0x03\n      add\n      sstore\n      0x80\n      dup3\n      add\n      mload\n      dup2\n      0x04\n      add\n      exp(0x0100, 0x00)\n      dup2\n      sload\n      dup2\n      0xff\n      mul\n      not\n      and\n      swap1\n      dup4\n      iszero\n      iszero\n      mul\n      or\n      swap1\n      sstore\n      pop\n      swap1\n      pop\n      pop\n        /* \"contracts/dao.sol\":1057:1113  ProposalCreated(proposalCount, msg.sender, _description) */\n      0x7585f467599d0f008985f231af99293be388626ac16ca59505c2f8f88969cd63\n        /* \"contracts/dao.sol\":1073:1086  proposalCount */\n      sload(0x02)\n        /* \"contracts/dao.sol\":1088:1098  msg.sender */\n      caller\n        /* \"contracts/dao.sol\":1100:1112  _description */\n      dup4\n        /* \"contracts/dao.sol\":1057:1113  ProposalCreated(proposalCount, msg.sender, _description) */\n      mload(0x40)\n      tag_115\n      swap4\n      swap3\n      swap2\n      swap1\n      tag_116\n      jump\t// in\n    tag_115:\n      mload(0x40)\n      dup1\n      swap2\n      sub\n      swap1\n      log1\n        /* \"contracts/dao.sol\":767:1121  function propose(string memory _description) public {... */\n      pop\n      jump\t// out\n        /* \"contracts/dao.sol\":418:443  uint public proposalCount */\n    tag_40:\n      sload(0x02)\n      dup2\n      jump\t// out\n        /* \"contracts/dao.sol\":477:508  address[] public voterAddresses */\n    tag_45:\n      0x04\n      dup2\n      dup2\n      sload\n      dup2\n      lt\n      tag_117\n      jumpi\n      0x00\n      dup1\n      revert\n    tag_117:\n      swap1\n      0x00\n      mstore\n      keccak256(0x00, 0x20)\n      add\n      0x00\n      swap2\n      pop\n      sload\n      swap1\n      0x0100\n      exp\n      swap1\n      div\n      0xffffffffffffffffffffffffffffffffffffffff\n      and\n      dup2\n      jump\t// out\n        /* \"#utility.yul\":7:82   */\n    tag_119:\n        /* \"#utility.yul\":40:46   */\n      0x00\n        /* \"#utility.yul\":73:75   */\n      0x40\n        /* \"#utility.yul\":67:76   */\n      mload\n        /* \"#utility.yul\":57:76   */\n      swap1\n      pop\n        /* \"#utility.yul\":7:82   */\n      swap1\n      jump\t// out\n        /* \"#utility.yul\":88:205   */\n    tag_120:\n        /* \"#utility.yul\":197:198   */\n      0x00\n        /* \"#utility.yul\":194:195   */\n      dup1\n        /* \"#utility.yul\":187:199   */\n      revert\n        /* \"#utility.yul\":211:328   */\n    tag_121:\n        /* \"#utility.yul\":320:321   */\n      0x00\n        /* \"#utility.yul\":317:318   */\n      dup1\n        /* \"#utility.yul\":310:322   */\n      revert\n        /* \"#utility.yul\":334:411   */\n    tag_122:\n        /* \"#utility.yul\":371:378   */\n      0x00\n        /* \"#utility.yul\":400:405   */\n      dup2\n        /* \"#utility.yul\":389:405   */\n      swap1\n      pop\n        /* \"#utility.yul\":334:411   */\n      swap2\n      swap1\n      pop\n      jump\t// out\n        /* \"#utility.yul\":417:539   */\n    tag_123:\n        /* \"#utility.yul\":490:514   */\n      tag_182\n        /* \"#utility.yul\":508:513   */\n      dup2\n        /* \"#utility.yul\":490:514   */\n      tag_122\n      jump\t// in\n    tag_182:\n        /* \"#utility.yul\":483:488   */\n      dup2\n        /* \"#utility.yul\":480:515   */\n      eq\n        /* \"#utility.yul\":470:533   */\n      tag_183\n      jumpi\n        /* \"#utility.yul\":529:530   */\n      0x00\n        /* \"#utility.yul\":526:527   */\n      dup1\n        /* \"#utility.yul\":519:531   */\n      revert\n        /* \"#utility.yul\":470:533   */\n    tag_183:\n        /* \"#utility.yul\":417:539   */\n      pop\n      jump\t// out\n        /* \"#utility.yul\":545:684   */\n    tag_124:\n        /* \"#utility.yul\":591:596   */\n      0x00\n        /* \"#utility.yul\":629:635   */\n      dup2\n        /* \"#utility.yul\":616:636   */\n      calldataload\n        /* \"#utility.yul\":607:636   */\n      swap1\n      pop\n        /* \"#utility.yul\":645:678   */\n      tag_185\n        /* \"#utility.yul\":672:677   */\n      dup2\n        /* \"#utility.yul\":645:678   */\n      tag_123\n      jump\t// in\n    tag_185:\n        /* \"#utility.yul\":545:684   */\n      swap3\n      swap2\n      pop\n      pop\n      jump\t// out\n        /* \"#utility.yul\":690:1019   */\n    tag_14:\n        /* \"#utility.yul\":749:755   */\n      0x00\n        /* \"#utility.yul\":798:800   */\n      0x20\n        /* \"#utility.yul\":786:795   */\n      dup3\n        /* \"#utility.yul\":777:784   */\n      dup5\n        /* \"#utility.yul\":773:796   */\n      sub\n        /* \"#utility.yul\":769:801   */\n      slt\n        /* \"#utility.yul\":766:885   */\n      iszero\n      tag_187\n      jumpi\n        /* \"#utility.yul\":804:883   */\n      tag_188\n      tag_120\n      jump\t// in\n    tag_188:\n        /* \"#utility.yul\":766:885   */\n    tag_187:\n        /* \"#utility.yul\":924:925   */\n      0x00\n        /* \"#utility.yul\":949:1002   */\n      tag_189\n        /* \"#utility.yul\":994:1001   */\n      dup5\n        /* \"#utility.yul\":985:991   */\n      dup3\n        /* \"#utility.yul\":974:983   */\n      dup6\n        /* \"#utility.yul\":970:992   */\n      add\n        /* \"#utility.yul\":949:1002   */\n      tag_124\n      jump\t// in\n    tag_189:\n        /* \"#utility.yul\":939:1002   */\n      swap2\n      pop\n        /* \"#utility.yul\":895:1012   */\n      pop\n        /* \"#utility.yul\":690:1019   */\n      swap3\n      swap2\n      pop\n      pop\n      jump\t// out\n        /* \"#utility.yul\":1025:1143   */\n    tag_125:\n        /* \"#utility.yul\":1112:1136   */\n      tag_191\n        /* \"#utility.yul\":1130:1135   */\n      dup2\n        /* \"#utility.yul\":1112:1136   */\n      tag_122\n      jump\t// in\n    tag_191:\n        /* \"#utility.yul\":1107:1110   */\n      dup3\n        /* \"#utility.yul\":1100:1137   */\n      mstore\n        /* \"#utility.yul\":1025:1143   */\n      pop\n      pop\n      jump\t// out\n        /* \"#utility.yul\":1149:1275   */\n    tag_126:\n        /* \"#utility.yul\":1186:1193   */\n      0x00\n        /* \"#utility.yul\":1226:1268   */\n      0xffffffffffffffffffffffffffffffffffffffff\n        /* \"#utility.yul\":1219:1224   */\n      dup3\n        /* \"#utility.yul\":1215:1269   */\n      and\n        /* \"#utility.yul\":1204:1269   */\n      swap1\n      pop\n        /* \"#utility.yul\":1149:1275   */\n      swap2\n      swap1\n      pop\n      jump\t// out\n        /* \"#utility.yul\":1281:1377   */\n    tag_127:\n        /* \"#utility.yul\":1318:1325   */\n      0x00\n        /* \"#utility.yul\":1347:1371   */\n      tag_194\n        /* \"#utility.yul\":1365:1370   */\n      dup3\n        /* \"#utility.yul\":1347:1371   */\n      tag_126\n      jump\t// in\n    tag_194:\n        /* \"#utility.yul\":1336:1371   */\n      swap1\n      pop\n        /* \"#utility.yul\":1281:1377   */\n      swap2\n      swap1\n      pop\n      jump\t// out\n        /* \"#utility.yul\":1383:1501   */\n    tag_128:\n        /* \"#utility.yul\":1470:1494   */\n      tag_196\n        /* \"#utility.yul\":1488:1493   */\n      dup2\n        /* \"#utility.yul\":1470:1494   */\n      tag_127\n      jump\t// in\n    tag_196:\n        /* \"#utility.yul\":1465:1468   */\n      dup3\n        /* \"#utility.yul\":1458:1495   */\n      mstore\n        /* \"#utility.yul\":1383:1501   */\n      pop\n      pop\n      jump\t// out\n        /* \"#utility.yul\":1507:1606   */\n    tag_129:\n        /* \"#utility.yul\":1559:1565   */\n      0x00\n        /* \"#utility.yul\":1593:1598   */\n      dup2\n        /* \"#utility.yul\":1587:1599   */\n      mload\n        /* \"#utility.yul\":1577:1599   */\n      swap1\n      pop\n        /* \"#utility.yul\":1507:1606   */\n      swap2\n      swap1\n      pop\n      jump\t// out\n        /* \"#utility.yul\":1612:1781   */\n    tag_130:\n        /* \"#utility.yul\":1696:1707   */\n      0x00\n        /* \"#utility.yul\":1730:1736   */\n      dup3\n        /* \"#utility.yul\":1725:1728   */\n      dup3\n        /* \"#utility.yul\":1718:1737   */\n      mstore\n        /* \"#utility.yul\":1770:1774   */\n      0x20\n        /* \"#utility.yul\":1765:1768   */\n      dup3\n        /* \"#utility.yul\":1761:1775   */\n      add\n        /* \"#utility.yul\":1746:1775   */\n      swap1\n      pop\n        /* \"#utility.yul\":1612:1781   */\n      swap3\n      swap2\n      pop\n      pop\n      jump\t// out\n        /* \"#utility.yul\":1787:1926   */\n    tag_131:\n        /* \"#utility.yul\":1876:1882   */\n      dup3\n        /* \"#utility.yul\":1871:1874   */\n      dup2\n        /* \"#utility.yul\":1866:1869   */\n      dup4\n        /* \"#utility.yul\":1860:1883   */\n      mcopy\n        /* \"#utility.yul\":1917:1918   */\n      0x00\n        /* \"#utility.yul\":1908:1914   */\n      dup4\n        /* \"#utility.yul\":1903:1906   */\n      dup4\n        /* \"#utility.yul\":1899:1915   */\n      add\n        /* \"#utility.yul\":1892:1919   */\n      mstore\n        /* \"#utility.yul\":1787:1926   */\n      pop\n      pop\n      pop\n      jump\t// out\n        /* \"#utility.yul\":1932:2034   */\n    tag_132:\n        /* \"#utility.yul\":1973:1979   */\n      0x00\n        /* \"#utility.yul\":2024:2026   */\n      0x1f\n        /* \"#utility.yul\":2020:2027   */\n      not\n        /* \"#utility.yul\":2015:2017   */\n      0x1f\n        /* \"#utility.yul\":2008:2013   */\n      dup4\n        /* \"#utility.yul\":2004:2018   */\n      add\n        /* \"#utility.yul\":2000:2028   */\n      and\n        /* \"#utility.yul\":1990:2028   */\n      swap1\n      pop\n        /* \"#utility.yul\":1932:2034   */\n      swap2\n      swap1\n      pop\n      jump\t// out\n        /* \"#utility.yul\":2040:2417   */\n    tag_133:\n        /* \"#utility.yul\":2128:2131   */\n      0x00\n        /* \"#utility.yul\":2156:2195   */\n      tag_202\n        /* \"#utility.yul\":2189:2194   */\n      dup3\n        /* \"#utility.yul\":2156:2195   */\n      tag_129\n      jump\t// in\n    tag_202:\n        /* \"#utility.yul\":2211:2282   */\n      tag_203\n        /* \"#utility.yul\":2275:2281   */\n      dup2\n        /* \"#utility.yul\":2270:2273   */\n      dup6\n        /* \"#utility.yul\":2211:2282   */\n      tag_130\n      jump\t// in\n    tag_203:\n        /* \"#utility.yul\":2204:2282   */\n      swap4\n      pop\n        /* \"#utility.yul\":2291:2356   */\n      tag_204\n        /* \"#utility.yul\":2349:2355   */\n      dup2\n        /* \"#utility.yul\":2344:2347   */\n      dup6\n        /* \"#utility.yul\":2337:2341   */\n      0x20\n        /* \"#utility.yul\":2330:2335   */\n      dup7\n        /* \"#utility.yul\":2326:2342   */\n      add\n        /* \"#utility.yul\":2291:2356   */\n      tag_131\n      jump\t// in\n    tag_204:\n        /* \"#utility.yul\":2381:2410   */\n      tag_205\n        /* \"#utility.yul\":2403:2409   */\n      dup2\n        /* \"#utility.yul\":2381:2410   */\n      tag_132\n      jump\t// in\n    tag_205:\n        /* \"#utility.yul\":2376:2379   */\n      dup5\n        /* \"#utility.yul\":2372:2411   */\n      add\n        /* \"#utility.yul\":2365:2411   */\n      swap2\n      pop\n        /* \"#utility.yul\":2132:2417   */\n      pop\n        /* \"#utility.yul\":2040:2417   */\n      swap3\n      swap2\n      pop\n      pop\n      jump\t// out\n        /* \"#utility.yul\":2423:2513   */\n    tag_134:\n        /* \"#utility.yul\":2457:2464   */\n      0x00\n        /* \"#utility.yul\":2500:2505   */\n      dup2\n        /* \"#utility.yul\":2493:2506   */\n      iszero\n        /* \"#utility.yul\":2486:2507   */\n      iszero\n        /* \"#utility.yul\":2475:2507   */\n      swap1\n      pop\n        /* \"#utility.yul\":2423:2513   */\n      swap2\n      swap1\n      pop\n      jump\t// out\n        /* \"#utility.yul\":2519:2628   */\n    tag_135:\n        /* \"#utility.yul\":2600:2621   */\n      tag_208\n        /* \"#utility.yul\":2615:2620   */\n      dup2\n        /* \"#utility.yul\":2600:2621   */\n      tag_134\n      jump\t// in\n    tag_208:\n        /* \"#utility.yul\":2595:2598   */\n      dup3\n        /* \"#utility.yul\":2588:2622   */\n      mstore\n        /* \"#utility.yul\":2519:2628   */\n      pop\n      pop\n      jump\t// out\n        /* \"#utility.yul\":2634:3377   */\n    tag_20:\n        /* \"#utility.yul\":2853:2857   */\n      0x00\n        /* \"#utility.yul\":2891:2894   */\n      0xa0\n        /* \"#utility.yul\":2880:2889   */\n      dup3\n        /* \"#utility.yul\":2876:2895   */\n      add\n        /* \"#utility.yul\":2868:2895   */\n      swap1\n      pop\n        /* \"#utility.yul\":2905:2976   */\n      tag_210\n        /* \"#utility.yul\":2973:2974   */\n      0x00\n        /* \"#utility.yul\":2962:2971   */\n      dup4\n        /* \"#utility.yul\":2958:2975   */\n      add\n        /* \"#utility.yul\":2949:2955   */\n      dup9\n        /* \"#utility.yul\":2905:2976   */\n      tag_125\n      jump\t// in\n    tag_210:\n        /* \"#utility.yul\":2986:3058   */\n      tag_211\n        /* \"#utility.yul\":3054:3056   */\n      0x20\n        /* \"#utility.yul\":3043:3052   */\n      dup4\n        /* \"#utility.yul\":3039:3057   */\n      add\n        /* \"#utility.yul\":3030:3036   */\n      dup8\n        /* \"#utility.yul\":2986:3058   */\n      tag_128\n      jump\t// in\n    tag_211:\n        /* \"#utility.yul\":3105:3114   */\n      dup2\n        /* \"#utility.yul\":3099:3103   */\n      dup2\n        /* \"#utility.yul\":3095:3115   */\n      sub\n        /* \"#utility.yul\":3090:3092   */\n      0x40\n        /* \"#utility.yul\":3079:3088   */\n      dup4\n        /* \"#utility.yul\":3075:3093   */\n      add\n        /* \"#utility.yul\":3068:3116   */\n      mstore\n        /* \"#utility.yul\":3133:3211   */\n      tag_212\n        /* \"#utility.yul\":3206:3210   */\n      dup2\n        /* \"#utility.yul\":3197:3203   */\n      dup7\n        /* \"#utility.yul\":3133:3211   */\n      tag_133\n      jump\t// in\n    tag_212:\n        /* \"#utility.yul\":3125:3211   */\n      swap1\n      pop\n        /* \"#utility.yul\":3221:3293   */\n      tag_213\n        /* \"#utility.yul\":3289:3291   */\n      0x60\n        /* \"#utility.yul\":3278:3287   */\n      dup4\n        /* \"#utility.yul\":3274:3292   */\n      add\n        /* \"#utility.yul\":3265:3271   */\n      dup6\n        /* \"#utility.yul\":3221:3293   */\n      tag_125\n      jump\t// in\n    tag_213:\n        /* \"#utility.yul\":3303:3370   */\n      tag_214\n        /* \"#utility.yul\":3365:3368   */\n      0x80\n        /* \"#utility.yul\":3354:3363   */\n      dup4\n        /* \"#utility.yul\":3350:3369   */\n      add\n        /* \"#utility.yul\":3341:3347   */\n      dup5\n        /* \"#utility.yul\":3303:3370   */\n      tag_135\n      jump\t// in\n    tag_214:\n        /* \"#utility.yul\":2634:3377   */\n      swap7\n      swap6\n      pop\n      pop\n      pop\n      pop\n      pop\n      pop\n      jump\t// out\n        /* \"#utility.yul\":3383:3605   */\n    tag_24:\n        /* \"#utility.yul\":3476:3480   */\n      0x00\n        /* \"#utility.yul\":3514:3516   */\n      0x20\n        /* \"#utility.yul\":3503:3512   */\n      dup3\n        /* \"#utility.yul\":3499:3517   */\n      add\n        /* \"#utility.yul\":3491:3517   */\n      swap1\n      pop\n        /* \"#utility.yul\":3527:3598   */\n      tag_216\n        /* \"#utility.yul\":3595:3596   */\n      0x00\n        /* \"#utility.yul\":3584:3593   */\n      dup4\n        /* \"#utility.yul\":3580:3597   */\n      add\n        /* \"#utility.yul\":3571:3577   */\n      dup5\n        /* \"#utility.yul\":3527:3598   */\n      tag_128\n      jump\t// in\n    tag_216:\n        /* \"#utility.yul\":3383:3605   */\n      swap3\n      swap2\n      pop\n      pop\n      jump\t// out\n        /* \"#utility.yul\":3611:3725   */\n    tag_136:\n        /* \"#utility.yul\":3678:3684   */\n      0x00\n        /* \"#utility.yul\":3712:3717   */\n      dup2\n        /* \"#utility.yul\":3706:3718   */\n      mload\n        /* \"#utility.yul\":3696:3718   */\n      swap1\n      pop\n        /* \"#utility.yul\":3611:3725   */\n      swap2\n      swap1\n      pop\n      jump\t// out\n        /* \"#utility.yul\":3731:3915   */\n    tag_137:\n        /* \"#utility.yul\":3830:3841   */\n      0x00\n        /* \"#utility.yul\":3864:3870   */\n      dup3\n        /* \"#utility.yul\":3859:3862   */\n      dup3\n        /* \"#utility.yul\":3852:3871   */\n      mstore\n        /* \"#utility.yul\":3904:3908   */\n      0x20\n        /* \"#utility.yul\":3899:3902   */\n      dup3\n        /* \"#utility.yul\":3895:3909   */\n      add\n        /* \"#utility.yul\":3880:3909   */\n      swap1\n      pop\n        /* \"#utility.yul\":3731:3915   */\n      swap3\n      swap2\n      pop\n      pop\n      jump\t// out\n        /* \"#utility.yul\":3921:4053   */\n    tag_138:\n        /* \"#utility.yul\":3988:3992   */\n      0x00\n        /* \"#utility.yul\":4011:4014   */\n      dup2\n        /* \"#utility.yul\":4003:4014   */\n      swap1\n      pop\n        /* \"#utility.yul\":4041:4045   */\n      0x20\n        /* \"#utility.yul\":4036:4039   */\n      dup3\n        /* \"#utility.yul\":4032:4046   */\n      add\n        /* \"#utility.yul\":4024:4046   */\n      swap1\n      pop\n        /* \"#utility.yul\":3921:4053   */\n      swap2\n      swap1\n      pop\n      jump\t// out\n        /* \"#utility.yul\":4059:4167   */\n    tag_139:\n        /* \"#utility.yul\":4136:4160   */\n      tag_221\n        /* \"#utility.yul\":4154:4159   */\n      dup2\n        /* \"#utility.yul\":4136:4160   */\n      tag_122\n      jump\t// in\n    tag_221:\n        /* \"#utility.yul\":4131:4134   */\n      dup3\n        /* \"#utility.yul\":4124:4161   */\n      mstore\n        /* \"#utility.yul\":4059:4167   */\n      pop\n      pop\n      jump\t// out\n        /* \"#utility.yul\":4173:4352   */\n    tag_140:\n        /* \"#utility.yul\":4242:4252   */\n      0x00\n        /* \"#utility.yul\":4263:4309   */\n      tag_223\n        /* \"#utility.yul\":4305:4308   */\n      dup4\n        /* \"#utility.yul\":4297:4303   */\n      dup4\n        /* \"#utility.yul\":4263:4309   */\n      tag_139\n      jump\t// in\n    tag_223:\n        /* \"#utility.yul\":4341:4345   */\n      0x20\n        /* \"#utility.yul\":4336:4339   */\n      dup4\n        /* \"#utility.yul\":4332:4346   */\n      add\n        /* \"#utility.yul\":4318:4346   */\n      swap1\n      pop\n        /* \"#utility.yul\":4173:4352   */\n      swap3\n      swap2\n      pop\n      pop\n      jump\t// out\n        /* \"#utility.yul\":4358:4471   */\n    tag_141:\n        /* \"#utility.yul\":4428:4432   */\n      0x00\n        /* \"#utility.yul\":4460:4464   */\n      0x20\n        /* \"#utility.yul\":4455:4458   */\n      dup3\n        /* \"#utility.yul\":4451:4465   */\n      add\n        /* \"#utility.yul\":4443:4465   */\n      swap1\n      pop\n        /* \"#utility.yul\":4358:4471   */\n      swap2\n      swap1\n      pop\n      jump\t// out\n        /* \"#utility.yul\":4507:5239   */\n    tag_142:\n        /* \"#utility.yul\":4626:4629   */\n      0x00\n        /* \"#utility.yul\":4655:4709   */\n      tag_226\n        /* \"#utility.yul\":4703:4708   */\n      dup3\n        /* \"#utility.yul\":4655:4709   */\n      tag_136\n      jump\t// in\n    tag_226:\n        /* \"#utility.yul\":4725:4811   */\n      tag_227\n        /* \"#utility.yul\":4804:4810   */\n      dup2\n        /* \"#utility.yul\":4799:4802   */\n      dup6\n        /* \"#utility.yul\":4725:4811   */\n      tag_137\n      jump\t// in\n    tag_227:\n        /* \"#utility.yul\":4718:4811   */\n      swap4\n      pop\n        /* \"#utility.yul\":4835:4891   */\n      tag_228\n        /* \"#utility.yul\":4885:4890   */\n      dup4\n        /* \"#utility.yul\":4835:4891   */\n      tag_138\n      jump\t// in\n    tag_228:\n        /* \"#utility.yul\":4914:4921   */\n      dup1\n        /* \"#utility.yul\":4945:4946   */\n      0x00\n        /* \"#utility.yul\":4930:5214   */\n    tag_229:\n        /* \"#utility.yul\":4955:4961   */\n      dup4\n        /* \"#utility.yul\":4952:4953   */\n      dup2\n        /* \"#utility.yul\":4949:4962   */\n      lt\n        /* \"#utility.yul\":4930:5214   */\n      iszero\n      tag_231\n      jumpi\n        /* \"#utility.yul\":5031:5037   */\n      dup2\n        /* \"#utility.yul\":5025:5038   */\n      mload\n        /* \"#utility.yul\":5058:5121   */\n      tag_232\n        /* \"#utility.yul\":5117:5120   */\n      dup9\n        /* \"#utility.yul\":5102:5115   */\n      dup3\n        /* \"#utility.yul\":5058:5121   */\n      tag_140\n      jump\t// in\n    tag_232:\n        /* \"#utility.yul\":5051:5121   */\n      swap8\n      pop\n        /* \"#utility.yul\":5144:5204   */\n      tag_233\n        /* \"#utility.yul\":5197:5203   */\n      dup4\n        /* \"#utility.yul\":5144:5204   */\n      tag_141\n      jump\t// in\n    tag_233:\n        /* \"#utility.yul\":5134:5204   */\n      swap3\n      pop\n        /* \"#utility.yul\":4990:5214   */\n      pop\n        /* \"#utility.yul\":4977:4978   */\n      0x01\n        /* \"#utility.yul\":4974:4975   */\n      dup2\n        /* \"#utility.yul\":4970:4979   */\n      add\n        /* \"#utility.yul\":4965:4979   */\n      swap1\n      pop\n        /* \"#utility.yul\":4930:5214   */\n      jump(tag_229)\n    tag_231:\n        /* \"#utility.yul\":4934:4948   */\n      pop\n        /* \"#utility.yul\":5230:5233   */\n      dup6\n        /* \"#utility.yul\":5223:5233   */\n      swap4\n      pop\n        /* \"#utility.yul\":4631:5239   */\n      pop\n      pop\n      pop\n        /* \"#utility.yul\":4507:5239   */\n      swap3\n      swap2\n      pop\n      pop\n      jump\t// out\n        /* \"#utility.yul\":5245:5618   */\n    tag_28:\n        /* \"#utility.yul\":5388:5392   */\n      0x00\n        /* \"#utility.yul\":5426:5428   */\n      0x20\n        /* \"#utility.yul\":5415:5424   */\n      dup3\n        /* \"#utility.yul\":5411:5429   */\n      add\n        /* \"#utility.yul\":5403:5429   */\n      swap1\n      pop\n        /* \"#utility.yul\":5475:5484   */\n      dup2\n        /* \"#utility.yul\":5469:5473   */\n      dup2\n        /* \"#utility.yul\":5465:5485   */\n      sub\n        /* \"#utility.yul\":5461:5462   */\n      0x00\n        /* \"#utility.yul\":5450:5459   */\n      dup4\n        /* \"#utility.yul\":5446:5463   */\n      add\n        /* \"#utility.yul\":5439:5486   */\n      mstore\n        /* \"#utility.yul\":5503:5611   */\n      tag_235\n        /* \"#utility.yul\":5606:5610   */\n      dup2\n        /* \"#utility.yul\":5597:5603   */\n      dup5\n        /* \"#utility.yul\":5503:5611   */\n      tag_142\n      jump\t// in\n    tag_235:\n        /* \"#utility.yul\":5495:5611   */\n      swap1\n      pop\n        /* \"#utility.yul\":5245:5618   */\n      swap3\n      swap2\n      pop\n      pop\n      jump\t// out\n        /* \"#utility.yul\":5624:5746   */\n    tag_143:\n        /* \"#utility.yul\":5697:5721   */\n      tag_237\n        /* \"#utility.yul\":5715:5720   */\n      dup2\n        /* \"#utility.yul\":5697:5721   */\n      tag_127\n      jump\t// in\n    tag_237:\n        /* \"#utility.yul\":5690:5695   */\n      dup2\n        /* \"#utility.yul\":5687:5722   */\n      eq\n        /* \"#utility.yul\":5677:5740   */\n      tag_238\n      jumpi\n        /* \"#utility.yul\":5736:5737   */\n      0x00\n        /* \"#utility.yul\":5733:5734   */\n      dup1\n        /* \"#utility.yul\":5726:5738   */\n      revert\n        /* \"#utility.yul\":5677:5740   */\n    tag_238:\n        /* \"#utility.yul\":5624:5746   */\n      pop\n      jump\t// out\n        /* \"#utility.yul\":5752:5891   */\n    tag_144:\n        /* \"#utility.yul\":5798:5803   */\n      0x00\n        /* \"#utility.yul\":5836:5842   */\n      dup2\n        /* \"#utility.yul\":5823:5843   */\n      calldataload\n        /* \"#utility.yul\":5814:5843   */\n      swap1\n      pop\n        /* \"#utility.yul\":5852:5885   */\n      tag_240\n        /* \"#utility.yul\":5879:5884   */\n      dup2\n        /* \"#utility.yul\":5852:5885   */\n      tag_143\n      jump\t// in\n    tag_240:\n        /* \"#utility.yul\":5752:5891   */\n      swap3\n      swap2\n      pop\n      pop\n      jump\t// out\n        /* \"#utility.yul\":5897:6226   */\n    tag_31:\n        /* \"#utility.yul\":5956:5962   */\n      0x00\n        /* \"#utility.yul\":6005:6007   */\n      0x20\n        /* \"#utility.yul\":5993:6002   */\n      dup3\n        /* \"#utility.yul\":5984:5991   */\n      dup5\n        /* \"#utility.yul\":5980:6003   */\n      sub\n        /* \"#utility.yul\":5976:6008   */\n      slt\n        /* \"#utility.yul\":5973:6092   */\n      iszero\n      tag_242\n      jumpi\n        /* \"#utility.yul\":6011:6090   */\n      tag_243\n      tag_120\n      jump\t// in\n    tag_243:\n        /* \"#utility.yul\":5973:6092   */\n    tag_242:\n        /* \"#utility.yul\":6131:6132   */\n      0x00\n        /* \"#utility.yul\":6156:6209   */\n      tag_244\n        /* \"#utility.yul\":6201:6208   */\n      dup5\n        /* \"#utility.yul\":6192:6198   */\n      dup3\n        /* \"#utility.yul\":6181:6190   */\n      dup6\n        /* \"#utility.yul\":6177:6199   */\n      add\n        /* \"#utility.yul\":6156:6209   */\n      tag_144\n      jump\t// in\n    tag_244:\n        /* \"#utility.yul\":6146:6209   */\n      swap2\n      pop\n        /* \"#utility.yul\":6102:6219   */\n      pop\n        /* \"#utility.yul\":5897:6226   */\n      swap3\n      swap2\n      pop\n      pop\n      jump\t// out\n        /* \"#utility.yul\":6232:6552   */\n    tag_34:\n        /* \"#utility.yul\":6347:6351   */\n      0x00\n        /* \"#utility.yul\":6385:6387   */\n      0x40\n        /* \"#utility.yul\":6374:6383   */\n      dup3\n        /* \"#utility.yul\":6370:6388   */\n      add\n        /* \"#utility.yul\":6362:6388   */\n      swap1\n      pop\n        /* \"#utility.yul\":6398:6463   */\n      tag_246\n        /* \"#utility.yul\":6460:6461   */\n      0x00\n        /* \"#utility.yul\":6449:6458   */\n      dup4\n        /* \"#utility.yul\":6445:6462   */\n      add\n        /* \"#utility.yul\":6436:6442   */\n      dup6\n        /* \"#utility.yul\":6398:6463   */\n      tag_135\n      jump\t// in\n    tag_246:\n        /* \"#utility.yul\":6473:6545   */\n      tag_247\n        /* \"#utility.yul\":6541:6543   */\n      0x20\n        /* \"#utility.yul\":6530:6539   */\n      dup4\n        /* \"#utility.yul\":6526:6544   */\n      add\n        /* \"#utility.yul\":6517:6523   */\n      dup5\n        /* \"#utility.yul\":6473:6545   */\n      tag_125\n      jump\t// in\n    tag_247:\n        /* \"#utility.yul\":6232:6552   */\n      swap4\n      swap3\n      pop\n      pop\n      pop\n      jump\t// out\n        /* \"#utility.yul\":6558:6675   */\n    tag_145:\n        /* \"#utility.yul\":6667:6668   */\n      0x00\n        /* \"#utility.yul\":6664:6665   */\n      dup1\n        /* \"#utility.yul\":6657:6669   */\n      revert\n        /* \"#utility.yul\":6681:6798   */\n    tag_146:\n        /* \"#utility.yul\":6790:6791   */\n      0x00\n        /* \"#utility.yul\":6787:6788   */\n      dup1\n        /* \"#utility.yul\":6780:6792   */\n      revert\n        /* \"#utility.yul\":6804:6984   */\n    tag_69:\n        /* \"#utility.yul\":6852:6929   */\n      0x4e487b7100000000000000000000000000000000000000000000000000000000\n        /* \"#utility.yul\":6849:6850   */\n      0x00\n        /* \"#utility.yul\":6842:6930   */\n      mstore\n        /* \"#utility.yul\":6949:6953   */\n      0x41\n        /* \"#utility.yul\":6946:6947   */\n      0x04\n        /* \"#utility.yul\":6939:6954   */\n      mstore\n        /* \"#utility.yul\":6973:6977   */\n      0x24\n        /* \"#utility.yul\":6970:6971   */\n      0x00\n        /* \"#utility.yul\":6963:6978   */\n      revert\n        /* \"#utility.yul\":6990:7271   */\n    tag_147:\n        /* \"#utility.yul\":7073:7100   */\n      tag_252\n        /* \"#utility.yul\":7095:7099   */\n      dup3\n        /* \"#utility.yul\":7073:7100   */\n      tag_132\n      jump\t// in\n    tag_252:\n        /* \"#utility.yul\":7065:7071   */\n      dup2\n        /* \"#utility.yul\":7061:7101   */\n      add\n        /* \"#utility.yul\":7203:7209   */\n      dup2\n        /* \"#utility.yul\":7191:7201   */\n      dup2\n        /* \"#utility.yul\":7188:7210   */\n      lt\n        /* \"#utility.yul\":7167:7185   */\n      0xffffffffffffffff\n        /* \"#utility.yul\":7155:7165   */\n      dup3\n        /* \"#utility.yul\":7152:7186   */\n      gt\n        /* \"#utility.yul\":7149:7211   */\n      or\n        /* \"#utility.yul\":7146:7234   */\n      iszero\n      tag_253\n      jumpi\n        /* \"#utility.yul\":7214:7232   */\n      tag_254\n      tag_69\n      jump\t// in\n    tag_254:\n        /* \"#utility.yul\":7146:7234   */\n    tag_253:\n        /* \"#utility.yul\":7254:7264   */\n      dup1\n        /* \"#utility.yul\":7250:7252   */\n      0x40\n        /* \"#utility.yul\":7243:7265   */\n      mstore\n        /* \"#utility.yul\":7033:7271   */\n      pop\n        /* \"#utility.yul\":6990:7271   */\n      pop\n      pop\n      jump\t// out\n        /* \"#utility.yul\":7277:7406   */\n    tag_148:\n        /* \"#utility.yul\":7311:7317   */\n      0x00\n        /* \"#utility.yul\":7338:7358   */\n      tag_256\n      tag_119\n      jump\t// in\n    tag_256:\n        /* \"#utility.yul\":7328:7358   */\n      swap1\n      pop\n        /* \"#utility.yul\":7367:7400   */\n      tag_257\n        /* \"#utility.yul\":7395:7399   */\n      dup3\n        /* \"#utility.yul\":7387:7393   */\n      dup3\n        /* \"#utility.yul\":7367:7400   */\n      tag_147\n      jump\t// in\n    tag_257:\n        /* \"#utility.yul\":7277:7406   */\n      swap2\n      swap1\n      pop\n      jump\t// out\n        /* \"#utility.yul\":7412:7720   */\n    tag_149:\n        /* \"#utility.yul\":7474:7478   */\n      0x00\n        /* \"#utility.yul\":7564:7582   */\n      0xffffffffffffffff\n        /* \"#utility.yul\":7556:7562   */\n      dup3\n        /* \"#utility.yul\":7553:7583   */\n      gt\n        /* \"#utility.yul\":7550:7606   */\n      iszero\n      tag_259\n      jumpi\n        /* \"#utility.yul\":7586:7604   */\n      tag_260\n      tag_69\n      jump\t// in\n    tag_260:\n        /* \"#utility.yul\":7550:7606   */\n    tag_259:\n        /* \"#utility.yul\":7624:7653   */\n      tag_261\n        /* \"#utility.yul\":7646:7652   */\n      dup3\n        /* \"#utility.yul\":7624:7653   */\n      tag_132\n      jump\t// in\n    tag_261:\n        /* \"#utility.yul\":7616:7653   */\n      swap1\n      pop\n        /* \"#utility.yul\":7708:7712   */\n      0x20\n        /* \"#utility.yul\":7702:7706   */\n      dup2\n        /* \"#utility.yul\":7698:7713   */\n      add\n        /* \"#utility.yul\":7690:7713   */\n      swap1\n      pop\n        /* \"#utility.yul\":7412:7720   */\n      swap2\n      swap1\n      pop\n      jump\t// out\n        /* \"#utility.yul\":7726:7874   */\n    tag_150:\n        /* \"#utility.yul\":7824:7830   */\n      dup3\n        /* \"#utility.yul\":7819:7822   */\n      dup2\n        /* \"#utility.yul\":7814:7817   */\n      dup4\n        /* \"#utility.yul\":7801:7831   */\n      calldatacopy\n        /* \"#utility.yul\":7865:7866   */\n      0x00\n        /* \"#utility.yul\":7856:7862   */\n      dup4\n        /* \"#utility.yul\":7851:7854   */\n      dup4\n        /* \"#utility.yul\":7847:7863   */\n      add\n        /* \"#utility.yul\":7840:7867   */\n      mstore\n        /* \"#utility.yul\":7726:7874   */\n      pop\n      pop\n      pop\n      jump\t// out\n        /* \"#utility.yul\":7880:8305   */\n    tag_151:\n        /* \"#utility.yul\":7958:7963   */\n      0x00\n        /* \"#utility.yul\":7983:8049   */\n      tag_264\n        /* \"#utility.yul\":7999:8048   */\n      tag_265\n        /* \"#utility.yul\":8041:8047   */\n      dup5\n        /* \"#utility.yul\":7999:8048   */\n      tag_149\n      jump\t// in\n    tag_265:\n        /* \"#utility.yul\":7983:8049   */\n      tag_148\n      jump\t// in\n    tag_264:\n        /* \"#utility.yul\":7974:8049   */\n      swap1\n      pop\n        /* \"#utility.yul\":8072:8078   */\n      dup3\n        /* \"#utility.yul\":8065:8070   */\n      dup2\n        /* \"#utility.yul\":8058:8079   */\n      mstore\n        /* \"#utility.yul\":8110:8114   */\n      0x20\n        /* \"#utility.yul\":8103:8108   */\n      dup2\n        /* \"#utility.yul\":8099:8115   */\n      add\n        /* \"#utility.yul\":8148:8151   */\n      dup5\n        /* \"#utility.yul\":8139:8145   */\n      dup5\n        /* \"#utility.yul\":8134:8137   */\n      dup5\n        /* \"#utility.yul\":8130:8146   */\n      add\n        /* \"#utility.yul\":8127:8152   */\n      gt\n        /* \"#utility.yul\":8124:8236   */\n      iszero\n      tag_266\n      jumpi\n        /* \"#utility.yul\":8155:8234   */\n      tag_267\n      tag_146\n      jump\t// in\n    tag_267:\n        /* \"#utility.yul\":8124:8236   */\n    tag_266:\n        /* \"#utility.yul\":8245:8299   */\n      tag_268\n        /* \"#utility.yul\":8292:8298   */\n      dup5\n        /* \"#utility.yul\":8287:8290   */\n      dup3\n        /* \"#utility.yul\":8282:8285   */\n      dup6\n        /* \"#utility.yul\":8245:8299   */\n      tag_150\n      jump\t// in\n    tag_268:\n        /* \"#utility.yul\":7964:8305   */\n      pop\n        /* \"#utility.yul\":7880:8305   */\n      swap4\n      swap3\n      pop\n      pop\n      pop\n      jump\t// out\n        /* \"#utility.yul\":8325:8665   */\n    tag_152:\n        /* \"#utility.yul\":8381:8386   */\n      0x00\n        /* \"#utility.yul\":8430:8433   */\n      dup3\n        /* \"#utility.yul\":8423:8427   */\n      0x1f\n        /* \"#utility.yul\":8415:8421   */\n      dup4\n        /* \"#utility.yul\":8411:8428   */\n      add\n        /* \"#utility.yul\":8407:8434   */\n      slt\n        /* \"#utility.yul\":8397:8519   */\n      tag_270\n      jumpi\n        /* \"#utility.yul\":8438:8517   */\n      tag_271\n      tag_145\n      jump\t// in\n    tag_271:\n        /* \"#utility.yul\":8397:8519   */\n    tag_270:\n        /* \"#utility.yul\":8555:8561   */\n      dup2\n        /* \"#utility.yul\":8542:8562   */\n      calldataload\n        /* \"#utility.yul\":8580:8659   */\n      tag_272\n        /* \"#utility.yul\":8655:8658   */\n      dup5\n        /* \"#utility.yul\":8647:8653   */\n      dup3\n        /* \"#utility.yul\":8640:8644   */\n      0x20\n        /* \"#utility.yul\":8632:8638   */\n      dup7\n        /* \"#utility.yul\":8628:8645   */\n      add\n        /* \"#utility.yul\":8580:8659   */\n      tag_151\n      jump\t// in\n    tag_272:\n        /* \"#utility.yul\":8571:8659   */\n      swap2\n      pop\n        /* \"#utility.yul\":8387:8665   */\n      pop\n        /* \"#utility.yul\":8325:8665   */\n      swap3\n      swap2\n      pop\n      pop\n      jump\t// out\n        /* \"#utility.yul\":8671:9180   */\n    tag_37:\n        /* \"#utility.yul\":8740:8746   */\n      0x00\n        /* \"#utility.yul\":8789:8791   */\n      0x20\n        /* \"#utility.yul\":8777:8786   */\n      dup3\n        /* \"#utility.yul\":8768:8775   */\n      dup5\n        /* \"#utility.yul\":8764:8787   */\n      sub\n        /* \"#utility.yul\":8760:8792   */\n      slt\n        /* \"#utility.yul\":8757:8876   */\n      iszero\n      tag_274\n      jumpi\n        /* \"#utility.yul\":8795:8874   */\n      tag_275\n      tag_120\n      jump\t// in\n    tag_275:\n        /* \"#utility.yul\":8757:8876   */\n    tag_274:\n        /* \"#utility.yul\":8943:8944   */\n      0x00\n        /* \"#utility.yul\":8932:8941   */\n      dup3\n        /* \"#utility.yul\":8928:8945   */\n      add\n        /* \"#utility.yul\":8915:8946   */\n      calldataload\n        /* \"#utility.yul\":8973:8991   */\n      0xffffffffffffffff\n        /* \"#utility.yul\":8965:8971   */\n      dup2\n        /* \"#utility.yul\":8962:8992   */\n      gt\n        /* \"#utility.yul\":8959:9076   */\n      iszero\n      tag_276\n      jumpi\n        /* \"#utility.yul\":8995:9074   */\n      tag_277\n      tag_121\n      jump\t// in\n    tag_277:\n        /* \"#utility.yul\":8959:9076   */\n    tag_276:\n        /* \"#utility.yul\":9100:9163   */\n      tag_278\n        /* \"#utility.yul\":9155:9162   */\n      dup5\n        /* \"#utility.yul\":9146:9152   */\n      dup3\n        /* \"#utility.yul\":9135:9144   */\n      dup6\n        /* \"#utility.yul\":9131:9153   */\n      add\n        /* \"#utility.yul\":9100:9163   */\n      tag_152\n      jump\t// in\n    tag_278:\n        /* \"#utility.yul\":9090:9163   */\n      swap2\n      pop\n        /* \"#utility.yul\":8886:9173   */\n      pop\n        /* \"#utility.yul\":8671:9180   */\n      swap3\n      swap2\n      pop\n      pop\n      jump\t// out\n        /* \"#utility.yul\":9186:9408   */\n    tag_42:\n        /* \"#utility.yul\":9279:9283   */\n      0x00\n        /* \"#utility.yul\":9317:9319   */\n      0x20\n        /* \"#utility.yul\":9306:9315   */\n      dup3\n        /* \"#utility.yul\":9302:9320   */\n      add\n        /* \"#utility.yul\":9294:9320   */\n      swap1\n      pop\n        /* \"#utility.yul\":9330:9401   */\n      tag_280\n        /* \"#utility.yul\":9398:9399   */\n      0x00\n        /* \"#utility.yul\":9387:9396   */\n      dup4\n        /* \"#utility.yul\":9383:9400   */\n      add\n        /* \"#utility.yul\":9374:9380   */\n      dup5\n        /* \"#utility.yul\":9330:9401   */\n      tag_125\n      jump\t// in\n    tag_280:\n        /* \"#utility.yul\":9186:9408   */\n      swap3\n      swap2\n      pop\n      pop\n      jump\t// out\n        /* \"#utility.yul\":9414:9586   */\n    tag_153:\n        /* \"#utility.yul\":9554:9578   */\n      0x50726f706f73616c206d757374206265206f70656e2e00000000000000000000\n        /* \"#utility.yul\":9550:9551   */\n      0x00\n        /* \"#utility.yul\":9542:9548   */\n      dup3\n        /* \"#utility.yul\":9538:9552   */\n      add\n        /* \"#utility.yul\":9531:9579   */\n      mstore\n        /* \"#utility.yul\":9414:9586   */\n      pop\n      jump\t// out\n        /* \"#utility.yul\":9592:9958   */\n    tag_154:\n        /* \"#utility.yul\":9734:9737   */\n      0x00\n        /* \"#utility.yul\":9755:9822   */\n      tag_283\n        /* \"#utility.yul\":9819:9821   */\n      0x16\n        /* \"#utility.yul\":9814:9817   */\n      dup4\n        /* \"#utility.yul\":9755:9822   */\n      tag_130\n      jump\t// in\n    tag_283:\n        /* \"#utility.yul\":9748:9822   */\n      swap2\n      pop\n        /* \"#utility.yul\":9831:9924   */\n      tag_284\n        /* \"#utility.yul\":9920:9923   */\n      dup3\n        /* \"#utility.yul\":9831:9924   */\n      tag_153\n      jump\t// in\n    tag_284:\n        /* \"#utility.yul\":9949:9951   */\n      0x20\n        /* \"#utility.yul\":9944:9947   */\n      dup3\n        /* \"#utility.yul\":9940:9952   */\n      add\n        /* \"#utility.yul\":9933:9952   */\n      swap1\n      pop\n        /* \"#utility.yul\":9592:9958   */\n      swap2\n      swap1\n      pop\n      jump\t// out\n        /* \"#utility.yul\":9964:10383   */\n    tag_50:\n        /* \"#utility.yul\":10130:10134   */\n      0x00\n        /* \"#utility.yul\":10168:10170   */\n      0x20\n        /* \"#utility.yul\":10157:10166   */\n      dup3\n        /* \"#utility.yul\":10153:10171   */\n      add\n        /* \"#utility.yul\":10145:10171   */\n      swap1\n      pop\n        /* \"#utility.yul\":10217:10226   */\n      dup2\n        /* \"#utility.yul\":10211:10215   */\n      dup2\n        /* \"#utility.yul\":10207:10227   */\n      sub\n        /* \"#utility.yul\":10203:10204   */\n      0x00\n        /* \"#utility.yul\":10192:10201   */\n      dup4\n        /* \"#utility.yul\":10188:10205   */\n      add\n        /* \"#utility.yul\":10181:10228   */\n      mstore\n        /* \"#utility.yul\":10245:10376   */\n      tag_286\n        /* \"#utility.yul\":10371:10375   */\n      dup2\n        /* \"#utility.yul\":10245:10376   */\n      tag_154\n      jump\t// in\n    tag_286:\n        /* \"#utility.yul\":10237:10376   */\n      swap1\n      pop\n        /* \"#utility.yul\":9964:10383   */\n      swap2\n      swap1\n      pop\n      jump\t// out\n        /* \"#utility.yul\":10389:10553   */\n    tag_155:\n        /* \"#utility.yul\":10529:10545   */\n      0x416c726561647920766f7465642e000000000000000000000000000000000000\n        /* \"#utility.yul\":10525:10526   */\n      0x00\n        /* \"#utility.yul\":10517:10523   */\n      dup3\n        /* \"#utility.yul\":10513:10527   */\n      add\n        /* \"#utility.yul\":10506:10546   */\n      mstore\n        /* \"#utility.yul\":10389:10553   */\n      pop\n      jump\t// out\n        /* \"#utility.yul\":10559:10925   */\n    tag_156:\n        /* \"#utility.yul\":10701:10704   */\n      0x00\n        /* \"#utility.yul\":10722:10789   */\n      tag_289\n        /* \"#utility.yul\":10786:10788   */\n      0x0e\n        /* \"#utility.yul\":10781:10784   */\n      dup4\n        /* \"#utility.yul\":10722:10789   */\n      tag_130\n      jump\t// in\n    tag_289:\n        /* \"#utility.yul\":10715:10789   */\n      swap2\n      pop\n        /* \"#utility.yul\":10798:10891   */\n      tag_290\n        /* \"#utility.yul\":10887:10890   */\n      dup3\n        /* \"#utility.yul\":10798:10891   */\n      tag_155\n      jump\t// in\n    tag_290:\n        /* \"#utility.yul\":10916:10918   */\n      0x20\n        /* \"#utility.yul\":10911:10914   */\n      dup3\n        /* \"#utility.yul\":10907:10919   */\n      add\n        /* \"#utility.yul\":10900:10919   */\n      swap1\n      pop\n        /* \"#utility.yul\":10559:10925   */\n      swap2\n      swap1\n      pop\n      jump\t// out\n        /* \"#utility.yul\":10931:11350   */\n    tag_53:\n        /* \"#utility.yul\":11097:11101   */\n      0x00\n        /* \"#utility.yul\":11135:11137   */\n      0x20\n        /* \"#utility.yul\":11124:11133   */\n      dup3\n        /* \"#utility.yul\":11120:11138   */\n      add\n        /* \"#utility.yul\":11112:11138   */\n      swap1\n      pop\n        /* \"#utility.yul\":11184:11193   */\n      dup2\n        /* \"#utility.yul\":11178:11182   */\n      dup2\n        /* \"#utility.yul\":11174:11194   */\n      sub\n        /* \"#utility.yul\":11170:11171   */\n      0x00\n        /* \"#utility.yul\":11159:11168   */\n      dup4\n        /* \"#utility.yul\":11155:11172   */\n      add\n        /* \"#utility.yul\":11148:11195   */\n      mstore\n        /* \"#utility.yul\":11212:11343   */\n      tag_292\n        /* \"#utility.yul\":11338:11342   */\n      dup2\n        /* \"#utility.yul\":11212:11343   */\n      tag_156\n      jump\t// in\n    tag_292:\n        /* \"#utility.yul\":11204:11343   */\n      swap1\n      pop\n        /* \"#utility.yul\":10931:11350   */\n      swap2\n      swap1\n      pop\n      jump\t// out\n        /* \"#utility.yul\":11356:11536   */\n    tag_157:\n        /* \"#utility.yul\":11404:11481   */\n      0x4e487b7100000000000000000000000000000000000000000000000000000000\n        /* \"#utility.yul\":11401:11402   */\n      0x00\n        /* \"#utility.yul\":11394:11482   */\n      mstore\n        /* \"#utility.yul\":11501:11505   */\n      0x11\n        /* \"#utility.yul\":11498:11499   */\n      0x04\n        /* \"#utility.yul\":11491:11506   */\n      mstore\n        /* \"#utility.yul\":11525:11529   */\n      0x24\n        /* \"#utility.yul\":11522:11523   */\n      0x00\n        /* \"#utility.yul\":11515:11530   */\n      revert\n        /* \"#utility.yul\":11542:11775   */\n    tag_55:\n        /* \"#utility.yul\":11581:11584   */\n      0x00\n        /* \"#utility.yul\":11604:11628   */\n      tag_295\n        /* \"#utility.yul\":11622:11627   */\n      dup3\n        /* \"#utility.yul\":11604:11628   */\n      tag_122\n      jump\t// in\n    tag_295:\n        /* \"#utility.yul\":11595:11628   */\n      swap2\n      pop\n        /* \"#utility.yul\":11650:11716   */\n      0xffffffffffffffffffffffffffffffffffffffffffffffffffffffffffffffff\n        /* \"#utility.yul\":11643:11648   */\n      dup3\n        /* \"#utility.yul\":11640:11717   */\n      sub\n        /* \"#utility.yul\":11637:11740   */\n      tag_296\n      jumpi\n        /* \"#utility.yul\":11720:11738   */\n      tag_297\n      tag_157\n      jump\t// in\n    tag_297:\n        /* \"#utility.yul\":11637:11740   */\n    tag_296:\n        /* \"#utility.yul\":11767:11768   */\n      0x01\n        /* \"#utility.yul\":11760:11765   */\n      dup3\n        /* \"#utility.yul\":11756:11769   */\n      add\n        /* \"#utility.yul\":11749:11769   */\n      swap1\n      pop\n        /* \"#utility.yul\":11542:11775   */\n      swap2\n      swap1\n      pop\n      jump\t// out\n        /* \"#utility.yul\":11781:11961   */\n    tag_158:\n        /* \"#utility.yul\":11829:11906   */\n      0x4e487b7100000000000000000000000000000000000000000000000000000000\n        /* \"#utility.yul\":11826:11827   */\n      0x00\n        /* \"#utility.yul\":11819:11907   */\n      mstore\n        /* \"#utility.yul\":11926:11930   */\n      0x22\n        /* \"#utility.yul\":11923:11924   */\n      0x04\n        /* \"#utility.yul\":11916:11931   */\n      mstore\n        /* \"#utility.yul\":11950:11954   */\n      0x24\n        /* \"#utility.yul\":11947:11948   */\n      0x00\n        /* \"#utility.yul\":11940:11955   */\n      revert\n        /* \"#utility.yul\":11967:12287   */\n    tag_58:\n        /* \"#utility.yul\":12011:12017   */\n      0x00\n        /* \"#utility.yul\":12048:12049   */\n      0x02\n        /* \"#utility.yul\":12042:12046   */\n      dup3\n        /* \"#utility.yul\":12038:12050   */\n      div\n        /* \"#utility.yul\":12028:12050   */\n      swap1\n      pop\n        /* \"#utility.yul\":12095:12096   */\n      0x01\n        /* \"#utility.yul\":12089:12093   */\n      dup3\n        /* \"#utility.yul\":12085:12097   */\n      and\n        /* \"#utility.yul\":12116:12134   */\n      dup1\n        /* \"#utility.yul\":12106:12187   */\n      tag_300\n      jumpi\n        /* \"#utility.yul\":12172:12176   */\n      0x7f\n        /* \"#utility.yul\":12164:12170   */\n      dup3\n        /* \"#utility.yul\":12160:12177   */\n      and\n        /* \"#utility.yul\":12150:12177   */\n      swap2\n      pop\n        /* \"#utility.yul\":12106:12187   */\n    tag_300:\n        /* \"#utility.yul\":12234:12236   */\n      0x20\n        /* \"#utility.yul\":12226:12232   */\n      dup3\n        /* \"#utility.yul\":12223:12237   */\n      lt\n        /* \"#utility.yul\":12203:12221   */\n      dup2\n        /* \"#utility.yul\":12200:12238   */\n      sub\n        /* \"#utility.yul\":12197:12281   */\n      tag_301\n      jumpi\n        /* \"#utility.yul\":12253:12271   */\n      tag_302\n      tag_158\n      jump\t// in\n    tag_302:\n        /* \"#utility.yul\":12197:12281   */\n    tag_301:\n        /* \"#utility.yul\":12018:12287   */\n      pop\n        /* \"#utility.yul\":11967:12287   */\n      swap2\n      swap1\n      pop\n      jump\t// out\n        /* \"#utility.yul\":12293:12474   */\n    tag_159:\n        /* \"#utility.yul\":12433:12466   */\n      0x596f7520617265206e6f742074686520636f6e7472616374206f776e65722e00\n        /* \"#utility.yul\":12429:12430   */\n      0x00\n        /* \"#utility.yul\":12421:12427   */\n      dup3\n        /* \"#utility.yul\":12417:12431   */\n      add\n        /* \"#utility.yul\":12410:12467   */\n      mstore\n        /* \"#utility.yul\":12293:12474   */\n      pop\n      jump\t// out\n        /* \"#utility.yul\":12480:12846   */\n    tag_160:\n        /* \"#utility.yul\":12622:12625   */\n      0x00\n        /* \"#utility.yul\":12643:12710   */\n      tag_305\n        /* \"#utility.yul\":12707:12709   */\n      0x1f\n        /* \"#utility.yul\":12702:12705   */\n      dup4\n        /* \"#utility.yul\":12643:12710   */\n      tag_130\n      jump\t// in\n    tag_305:\n        /* \"#utility.yul\":12636:12710   */\n      swap2\n      pop\n        /* \"#utility.yul\":12719:12812   */\n      tag_306\n        /* \"#utility.yul\":12808:12811   */\n      dup3\n        /* \"#utility.yul\":12719:12812   */\n      tag_159\n      jump\t// in\n    tag_306:\n        /* \"#utility.yul\":12837:12839   */\n      0x20\n        /* \"#utility.yul\":12832:12835   */\n      dup3\n        /* \"#utility.yul\":12828:12840   */\n      add\n        /* \"#utility.yul\":12821:12840   */\n      swap1\n      pop\n        /* \"#utility.yul\":12480:12846   */\n      swap2\n      swap1\n      pop\n      jump\t// out\n        /* \"#utility.yul\":12852:13271   */\n    tag_66:\n        /* \"#utility.yul\":13018:13022   */\n      0x00\n        /* \"#utility.yul\":13056:13058   */\n      0x20\n        /* \"#utility.yul\":13045:13054   */\n      dup3\n        /* \"#utility.yul\":13041:13059   */\n      add\n        /* \"#utility.yul\":13033:13059   */\n      swap1\n      pop\n        /* \"#utility.yul\":13105:13114   */\n      dup2\n        /* \"#utility.yul\":13099:13103   */\n      dup2\n        /* \"#utility.yul\":13095:13115   */\n      sub\n        /* \"#utility.yul\":13091:13092   */\n      0x00\n        /* \"#utility.yul\":13080:13089   */\n      dup4\n        /* \"#utility.yul\":13076:13093   */\n      add\n        /* \"#utility.yul\":13069:13116   */\n      mstore\n        /* \"#utility.yul\":13133:13264   */\n      tag_308\n        /* \"#utility.yul\":13259:13263   */\n      dup2\n        /* \"#utility.yul\":13133:13264   */\n      tag_160\n      jump\t// in\n    tag_308:\n        /* \"#utility.yul\":13125:13264   */\n      swap1\n      pop\n        /* \"#utility.yul\":12852:13271   */\n      swap2\n      swap1\n      pop\n      jump\t// out\n        /* \"#utility.yul\":13277:13457   */\n    tag_78:\n        /* \"#utility.yul\":13325:13402   */\n      0x4e487b7100000000000000000000000000000000000000000000000000000000\n        /* \"#utility.yul\":13322:13323   */\n      0x00\n        /* \"#utility.yul\":13315:13403   */\n      mstore\n        /* \"#utility.yul\":13422:13426   */\n      0x32\n        /* \"#utility.yul\":13419:13420   */\n      0x04\n        /* \"#utility.yul\":13412:13427   */\n      mstore\n        /* \"#utility.yul\":13446:13450   */\n      0x24\n        /* \"#utility.yul\":13443:13444   */\n      0x00\n        /* \"#utility.yul\":13436:13451   */\n      revert\n        /* \"#utility.yul\":13463:13643   */\n    tag_107:\n        /* \"#utility.yul\":13511:13588   */\n      0x4e487b7100000000000000000000000000000000000000000000000000000000\n        /* \"#utility.yul\":13508:13509   */\n      0x00\n        /* \"#utility.yul\":13501:13589   */\n      mstore\n        /* \"#utility.yul\":13608:13612   */\n      0x31\n        /* \"#utility.yul\":13605:13606   */\n      0x04\n        /* \"#utility.yul\":13598:13613   */\n      mstore\n        /* \"#utility.yul\":13632:13636   */\n      0x24\n        /* \"#utility.yul\":13629:13630   */\n      0x00\n        /* \"#utility.yul\":13622:13637   */\n      revert\n        /* \"#utility.yul\":13649:14132   */\n    tag_110:\n        /* \"#utility.yul\":13820:13824   */\n      0x00\n        /* \"#utility.yul\":13858:13860   */\n      0x40\n        /* \"#utility.yul\":13847:13856   */\n      dup3\n        /* \"#utility.yul\":13843:13861   */\n      add\n        /* \"#utility.yul\":13835:13861   */\n      swap1\n      pop\n        /* \"#utility.yul\":13907:13916   */\n      dup2\n        /* \"#utility.yul\":13901:13905   */\n      dup2\n        /* \"#utility.yul\":13897:13917   */\n      sub\n        /* \"#utility.yul\":13893:13894   */\n      0x00\n        /* \"#utility.yul\":13882:13891   */\n      dup4\n        /* \"#utility.yul\":13878:13895   */\n      add\n        /* \"#utility.yul\":13871:13918   */\n      mstore\n        /* \"#utility.yul\":13935:14043   */\n      tag_312\n        /* \"#utility.yul\":14038:14042   */\n      dup2\n        /* \"#utility.yul\":14029:14035   */\n      dup6\n        /* \"#utility.yul\":13935:14043   */\n      tag_142\n      jump\t// in\n    tag_312:\n        /* \"#utility.yul\":13927:14043   */\n      swap1\n      pop\n        /* \"#utility.yul\":14053:14125   */\n      tag_313\n        /* \"#utility.yul\":14121:14123   */\n      0x20\n        /* \"#utility.yul\":14110:14119   */\n      dup4\n        /* \"#utility.yul\":14106:14124   */\n      add\n        /* \"#utility.yul\":14097:14103   */\n      dup5\n        /* \"#utility.yul\":14053:14125   */\n      tag_125\n      jump\t// in\n    tag_313:\n        /* \"#utility.yul\":13649:14132   */\n      swap4\n      swap3\n      pop\n      pop\n      pop\n      jump\t// out\n        /* \"#utility.yul\":14138:14279   */\n    tag_161:\n        /* \"#utility.yul\":14187:14191   */\n      0x00\n        /* \"#utility.yul\":14210:14213   */\n      dup2\n        /* \"#utility.yul\":14202:14213   */\n      swap1\n      pop\n        /* \"#utility.yul\":14233:14236   */\n      dup2\n        /* \"#utility.yul\":14230:14231   */\n      0x00\n        /* \"#utility.yul\":14223:14237   */\n      mstore\n        /* \"#utility.yul\":14267:14271   */\n      0x20\n        /* \"#utility.yul\":14264:14265   */\n      0x00\n        /* \"#utility.yul\":14254:14272   */\n      keccak256\n        /* \"#utility.yul\":14246:14272   */\n      swap1\n      pop\n        /* \"#utility.yul\":14138:14279   */\n      swap2\n      swap1\n      pop\n      jump\t// out\n        /* \"#utility.yul\":14285:14378   */\n    tag_162:\n        /* \"#utility.yul\":14322:14328   */\n      0x00\n        /* \"#utility.yul\":14369:14371   */\n      0x20\n        /* \"#utility.yul\":14364:14366   */\n      0x1f\n        /* \"#utility.yul\":14357:14362   */\n      dup4\n        /* \"#utility.yul\":14353:14367   */\n      add\n        /* \"#utility.yul\":14349:14372   */\n      div\n        /* \"#utility.yul\":14339:14372   */\n      swap1\n      pop\n        /* \"#utility.yul\":14285:14378   */\n      swap2\n      swap1\n      pop\n      jump\t// out\n        /* \"#utility.yul\":14384:14491   */\n    tag_163:\n        /* \"#utility.yul\":14428:14436   */\n      0x00\n        /* \"#utility.yul\":14478:14483   */\n      dup3\n        /* \"#utility.yul\":14472:14476   */\n      dup3\n        /* \"#utility.yul\":14468:14484   */\n      shl\n        /* \"#utility.yul\":14447:14484   */\n      swap1\n      pop\n        /* \"#utility.yul\":14384:14491   */\n      swap3\n      swap2\n      pop\n      pop\n      jump\t// out\n        /* \"#utility.yul\":14497:14890   */\n    tag_164:\n        /* \"#utility.yul\":14566:14572   */\n      0x00\n        /* \"#utility.yul\":14616:14617   */\n      0x08\n        /* \"#utility.yul\":14604:14614   */\n      dup4\n        /* \"#utility.yul\":14600:14618   */\n      mul\n        /* \"#utility.yul\":14639:14736   */\n      tag_318\n        /* \"#utility.yul\":14669:14735   */\n      0xffffffffffffffffffffffffffffffffffffffffffffffffffffffffffffffff\n        /* \"#utility.yul\":14658:14667   */\n      dup3\n        /* \"#utility.yul\":14639:14736   */\n      tag_163\n      jump\t// in\n    tag_318:\n        /* \"#utility.yul\":14757:14796   */\n      tag_319\n        /* \"#utility.yul\":14787:14795   */\n      dup7\n        /* \"#utility.yul\":14776:14785   */\n      dup4\n        /* \"#utility.yul\":14757:14796   */\n      tag_163\n      jump\t// in\n    tag_319:\n        /* \"#utility.yul\":14745:14796   */\n      swap6\n      pop\n        /* \"#utility.yul\":14829:14833   */\n      dup1\n        /* \"#utility.yul\":14825:14834   */\n      not\n        /* \"#utility.yul\":14818:14823   */\n      dup5\n        /* \"#utility.yul\":14814:14835   */\n      and\n        /* \"#utility.yul\":14805:14835   */\n      swap4\n      pop\n        /* \"#utility.yul\":14878:14882   */\n      dup1\n        /* \"#utility.yul\":14868:14876   */\n      dup7\n        /* \"#utility.yul\":14864:14883   */\n      and\n        /* \"#utility.yul\":14857:14862   */\n      dup5\n        /* \"#utility.yul\":14854:14884   */\n      or\n        /* \"#utility.yul\":14844:14884   */\n      swap3\n      pop\n        /* \"#utility.yul\":14573:14890   */\n      pop\n      pop\n        /* \"#utility.yul\":14497:14890   */\n      swap4\n      swap3\n      pop\n      pop\n      pop\n      jump\t// out\n        /* \"#utility.yul\":14896:14956   */\n    tag_165:\n        /* \"#utility.yul\":14924:14927   */\n      0x00\n        /* \"#utility.yul\":14945:14950   */\n      dup2\n        /* \"#utility.yul\":14938:14950   */\n      swap1\n      pop\n        /* \"#utility.yul\":14896:14956   */\n      swap2\n      swap1\n      pop\n      jump\t// out\n        /* \"#utility.yul\":14962:15104   */\n    tag_166:\n        /* \"#utility.yul\":15012:15021   */\n      0x00\n        /* \"#utility.yul\":15045:15098   */\n      tag_322\n        /* \"#utility.yul\":15063:15097   */\n      tag_323\n        /* \"#utility.yul\":15072:15096   */\n      tag_324\n        /* \"#utility.yul\":15090:15095   */\n      dup5\n        /* \"#utility.yul\":15072:15096   */\n      tag_122\n      jump\t// in\n    tag_324:\n        /* \"#utility.yul\":15063:15097   */\n      tag_165\n      jump\t// in\n    tag_323:\n        /* \"#utility.yul\":15045:15098   */\n      tag_122\n      jump\t// in\n    tag_322:\n        /* \"#utility.yul\":15032:15098   */\n      swap1\n      pop\n        /* \"#utility.yul\":14962:15104   */\n      swap2\n      swap1\n      pop\n      jump\t// out\n        /* \"#utility.yul\":15110:15185   */\n    tag_167:\n        /* \"#utility.yul\":15153:15156   */\n      0x00\n        /* \"#utility.yul\":15174:15179   */\n      dup2\n        /* \"#utility.yul\":15167:15179   */\n      swap1\n      pop\n        /* \"#utility.yul\":15110:15185   */\n      swap2\n      swap1\n      pop\n      jump\t// out\n        /* \"#utility.yul\":15191:15460   */\n    tag_168:\n        /* \"#utility.yul\":15301:15340   */\n      tag_327\n        /* \"#utility.yul\":15332:15339   */\n      dup4\n        /* \"#utility.yul\":15301:15340   */\n      tag_166\n      jump\t// in\n    tag_327:\n        /* \"#utility.yul\":15362:15453   */\n      tag_328\n        /* \"#utility.yul\":15411:15452   */\n      tag_329\n        /* \"#utility.yul\":15435:15451   */\n      dup3\n        /* \"#utility.yul\":15411:15452   */\n      tag_167\n      jump\t// in\n    tag_329:\n        /* \"#utility.yul\":15403:15409   */\n      dup5\n        /* \"#utility.yul\":15396:15400   */\n      dup5\n        /* \"#utility.yul\":15390:15401   */\n      sload\n        /* \"#utility.yul\":15362:15453   */\n      tag_164\n      jump\t// in\n    tag_328:\n        /* \"#utility.yul\":15356:15360   */\n      dup3\n        /* \"#utility.yul\":15349:15454   */\n      sstore\n        /* \"#utility.yul\":15267:15460   */\n      pop\n        /* \"#utility.yul\":15191:15460   */\n      pop\n      pop\n      pop\n      jump\t// out\n        /* \"#utility.yul\":15466:15539   */\n    tag_169:\n        /* \"#utility.yul\":15511:15514   */\n      0x00\n        /* \"#utility.yul\":15466:15539   */\n      swap1\n      jump\t// out\n        /* \"#utility.yul\":15545:15734   */\n    tag_170:\n        /* \"#utility.yul\":15622:15654   */\n      tag_332\n      tag_169\n      jump\t// in\n    tag_332:\n        /* \"#utility.yul\":15663:15728   */\n      tag_333\n        /* \"#utility.yul\":15721:15727   */\n      dup2\n        /* \"#utility.yul\":15713:15719   */\n      dup5\n        /* \"#utility.yul\":15707:15711   */\n      dup5\n        /* \"#utility.yul\":15663:15728   */\n      tag_168\n      jump\t// in\n    tag_333:\n        /* \"#utility.yul\":15598:15734   */\n      pop\n        /* \"#utility.yul\":15545:15734   */\n      pop\n      pop\n      jump\t// out\n        /* \"#utility.yul\":15740:15926   */\n    tag_171:\n        /* \"#utility.yul\":15800:15920   */\n    tag_335:\n        /* \"#utility.yul\":15817:15820   */\n      dup2\n        /* \"#utility.yul\":15810:15815   */\n      dup2\n        /* \"#utility.yul\":15807:15821   */\n      lt\n        /* \"#utility.yul\":15800:15920   */\n      iszero\n      tag_337\n      jumpi\n        /* \"#utility.yul\":15871:15910   */\n      tag_338\n        /* \"#utility.yul\":15908:15909   */\n      0x00\n        /* \"#utility.yul\":15901:15906   */\n      dup3\n        /* \"#utility.yul\":15871:15910   */\n      tag_170\n      jump\t// in\n    tag_338:\n        /* \"#utility.yul\":15844:15845   */\n      0x01\n        /* \"#utility.yul\":15837:15842   */\n      dup2\n        /* \"#utility.yul\":15833:15846   */\n      add\n        /* \"#utility.yul\":15824:15846   */\n      swap1\n      pop\n        /* \"#utility.yul\":15800:15920   */\n      jump(tag_335)\n    tag_337:\n        /* \"#utility.yul\":15740:15926   */\n      pop\n      pop\n      jump\t// out\n        /* \"#utility.yul\":15932:16475   */\n    tag_172:\n        /* \"#utility.yul\":16033:16035   */\n      0x1f\n        /* \"#utility.yul\":16028:16031   */\n      dup3\n        /* \"#utility.yul\":16025:16036   */\n      gt\n        /* \"#utility.yul\":16022:16468   */\n      iszero\n      tag_340\n      jumpi\n        /* \"#utility.yul\":16067:16105   */\n      tag_341\n        /* \"#utility.yul\":16099:16104   */\n      dup2\n        /* \"#utility.yul\":16067:16105   */\n      tag_161\n      jump\t// in\n    tag_341:\n        /* \"#utility.yul\":16151:16180   */\n      tag_342\n        /* \"#utility.yul\":16169:16179   */\n      dup5\n        /* \"#utility.yul\":16151:16180   */\n      tag_162\n      jump\t// in\n    tag_342:\n        /* \"#utility.yul\":16141:16149   */\n      dup2\n        /* \"#utility.yul\":16137:16181   */\n      add\n        /* \"#utility.yul\":16334:16336   */\n      0x20\n        /* \"#utility.yul\":16322:16332   */\n      dup6\n        /* \"#utility.yul\":16319:16337   */\n      lt\n        /* \"#utility.yul\":16316:16365   */\n      iszero\n      tag_343\n      jumpi\n        /* \"#utility.yul\":16355:16363   */\n      dup2\n        /* \"#utility.yul\":16340:16363   */\n      swap1\n      pop\n        /* \"#utility.yul\":16316:16365   */\n    tag_343:\n        /* \"#utility.yul\":16378:16458   */\n      tag_344\n        /* \"#utility.yul\":16434:16456   */\n      tag_345\n        /* \"#utility.yul\":16452:16455   */\n      dup6\n        /* \"#utility.yul\":16434:16456   */\n      tag_162\n      jump\t// in\n    tag_345:\n        /* \"#utility.yul\":16424:16432   */\n      dup4\n        /* \"#utility.yul\":16420:16457   */\n      add\n        /* \"#utility.yul\":16407:16418   */\n      dup3\n        /* \"#utility.yul\":16378:16458   */\n      tag_171\n      jump\t// in\n    tag_344:\n        /* \"#utility.yul\":16037:16468   */\n      pop\n      pop\n        /* \"#utility.yul\":16022:16468   */\n    tag_340:\n        /* \"#utility.yul\":15932:16475   */\n      pop\n      pop\n      pop\n      jump\t// out\n        /* \"#utility.yul\":16481:16598   */\n    tag_173:\n        /* \"#utility.yul\":16535:16543   */\n      0x00\n        /* \"#utility.yul\":16585:16590   */\n      dup3\n        /* \"#utility.yul\":16579:16583   */\n      dup3\n        /* \"#utility.yul\":16575:16591   */\n      shr\n        /* \"#utility.yul\":16554:16591   */\n      swap1\n      pop\n        /* \"#utility.yul\":16481:16598   */\n      swap3\n      swap2\n      pop\n      pop\n      jump\t// out\n        /* \"#utility.yul\":16604:16773   */\n    tag_174:\n        /* \"#utility.yul\":16648:16654   */\n      0x00\n        /* \"#utility.yul\":16681:16732   */\n      tag_348\n        /* \"#utility.yul\":16729:16730   */\n      0x00\n        /* \"#utility.yul\":16725:16731   */\n      not\n        /* \"#utility.yul\":16717:16722   */\n      dup5\n        /* \"#utility.yul\":16714:16715   */\n      0x08\n        /* \"#utility.yul\":16710:16723   */\n      mul\n        /* \"#utility.yul\":16681:16732   */\n      tag_173\n      jump\t// in\n    tag_348:\n        /* \"#utility.yul\":16677:16733   */\n      not\n        /* \"#utility.yul\":16762:16766   */\n      dup1\n        /* \"#utility.yul\":16756:16760   */\n      dup4\n        /* \"#utility.yul\":16752:16767   */\n      and\n        /* \"#utility.yul\":16742:16767   */\n      swap2\n      pop\n        /* \"#utility.yul\":16655:16773   */\n      pop\n        /* \"#utility.yul\":16604:16773   */\n      swap3\n      swap2\n      pop\n      pop\n      jump\t// out\n        /* \"#utility.yul\":16778:17073   */\n    tag_175:\n        /* \"#utility.yul\":16854:16858   */\n      0x00\n        /* \"#utility.yul\":17000:17029   */\n      tag_350\n        /* \"#utility.yul\":17025:17028   */\n      dup4\n        /* \"#utility.yul\":17019:17023   */\n      dup4\n        /* \"#utility.yul\":17000:17029   */\n      tag_174\n      jump\t// in\n    tag_350:\n        /* \"#utility.yul\":16992:17029   */\n      swap2\n      pop\n        /* \"#utility.yul\":17062:17065   */\n      dup3\n        /* \"#utility.yul\":17059:17060   */\n      0x02\n        /* \"#utility.yul\":17055:17066   */\n      mul\n        /* \"#utility.yul\":17049:17053   */\n      dup3\n        /* \"#utility.yul\":17046:17067   */\n      or\n        /* \"#utility.yul\":17038:17067   */\n      swap1\n      pop\n        /* \"#utility.yul\":16778:17073   */\n      swap3\n      swap2\n      pop\n      pop\n      jump\t// out\n        /* \"#utility.yul\":17078:18473   */\n    tag_114:\n        /* \"#utility.yul\":17195:17232   */\n      tag_352\n        /* \"#utility.yul\":17228:17231   */\n      dup3\n        /* \"#utility.yul\":17195:17232   */\n      tag_129\n      jump\t// in\n    tag_352:\n        /* \"#utility.yul\":17297:17315   */\n      0xffffffffffffffff\n        /* \"#utility.yul\":17289:17295   */\n      dup2\n        /* \"#utility.yul\":17286:17316   */\n      gt\n        /* \"#utility.yul\":17283:17339   */\n      iszero\n      tag_353\n      jumpi\n        /* \"#utility.yul\":17319:17337   */\n      tag_354\n      tag_69\n      jump\t// in\n    tag_354:\n        /* \"#utility.yul\":17283:17339   */\n    tag_353:\n        /* \"#utility.yul\":17363:17401   */\n      tag_355\n        /* \"#utility.yul\":17395:17399   */\n      dup3\n        /* \"#utility.yul\":17389:17400   */\n      sload\n        /* \"#utility.yul\":17363:17401   */\n      tag_58\n      jump\t// in\n    tag_355:\n        /* \"#utility.yul\":17448:17515   */\n      tag_356\n        /* \"#utility.yul\":17508:17514   */\n      dup3\n        /* \"#utility.yul\":17500:17506   */\n      dup3\n        /* \"#utility.yul\":17494:17498   */\n      dup6\n        /* \"#utility.yul\":17448:17515   */\n      tag_172\n      jump\t// in\n    tag_356:\n        /* \"#utility.yul\":17542:17543   */\n      0x00\n        /* \"#utility.yul\":17566:17570   */\n      0x20\n        /* \"#utility.yul\":17553:17570   */\n      swap1\n      pop\n        /* \"#utility.yul\":17598:17600   */\n      0x1f\n        /* \"#utility.yul\":17590:17596   */\n      dup4\n        /* \"#utility.yul\":17587:17601   */\n      gt\n        /* \"#utility.yul\":17615:17616   */\n      0x01\n        /* \"#utility.yul\":17610:18228   */\n      dup2\n      eq\n      tag_358\n      jumpi\n        /* \"#utility.yul\":18272:18273   */\n      0x00\n        /* \"#utility.yul\":18289:18295   */\n      dup5\n        /* \"#utility.yul\":18286:18363   */\n      iszero\n      tag_359\n      jumpi\n        /* \"#utility.yul\":18338:18347   */\n      dup3\n        /* \"#utility.yul\":18333:18336   */\n      dup8\n        /* \"#utility.yul\":18329:18348   */\n      add\n        /* \"#utility.yul\":18323:18349   */\n      mload\n        /* \"#utility.yul\":18314:18349   */\n      swap1\n      pop\n        /* \"#utility.yul\":18286:18363   */\n    tag_359:\n        /* \"#utility.yul\":18389:18456   */\n      tag_360\n        /* \"#utility.yul\":18449:18455   */\n      dup6\n        /* \"#utility.yul\":18442:18447   */\n      dup3\n        /* \"#utility.yul\":18389:18456   */\n      tag_175\n      jump\t// in\n    tag_360:\n        /* \"#utility.yul\":18383:18387   */\n      dup7\n        /* \"#utility.yul\":18376:18457   */\n      sstore\n        /* \"#utility.yul\":18245:18467   */\n      pop\n        /* \"#utility.yul\":17580:18467   */\n      jump(tag_357)\n        /* \"#utility.yul\":17610:18228   */\n    tag_358:\n        /* \"#utility.yul\":17662:17666   */\n      0x1f\n        /* \"#utility.yul\":17658:17667   */\n      not\n        /* \"#utility.yul\":17650:17656   */\n      dup5\n        /* \"#utility.yul\":17646:17668   */\n      and\n        /* \"#utility.yul\":17696:17733   */\n      tag_361\n        /* \"#utility.yul\":17728:17732   */\n      dup7\n        /* \"#utility.yul\":17696:17733   */\n      tag_161\n      jump\t// in\n    tag_361:\n        /* \"#utility.yul\":17755:17756   */\n      0x00\n        /* \"#utility.yul\":17769:17977   */\n    tag_362:\n        /* \"#utility.yul\":17783:17790   */\n      dup3\n        /* \"#utility.yul\":17780:17781   */\n      dup2\n        /* \"#utility.yul\":17777:17791   */\n      lt\n        /* \"#utility.yul\":17769:17977   */\n      iszero\n      tag_364\n      jumpi\n        /* \"#utility.yul\":17862:17871   */\n      dup5\n        /* \"#utility.yul\":17857:17860   */\n      dup10\n        /* \"#utility.yul\":17853:17872   */\n      add\n        /* \"#utility.yul\":17847:17873   */\n      mload\n        /* \"#utility.yul\":17839:17845   */\n      dup3\n        /* \"#utility.yul\":17832:17874   */\n      sstore\n        /* \"#utility.yul\":17913:17914   */\n      0x01\n        /* \"#utility.yul\":17905:17911   */\n      dup3\n        /* \"#utility.yul\":17901:17915   */\n      add\n        /* \"#utility.yul\":17891:17915   */\n      swap2\n      pop\n        /* \"#utility.yul\":17960:17962   */\n      0x20\n        /* \"#utility.yul\":17949:17958   */\n      dup6\n        /* \"#utility.yul\":17945:17963   */\n      add\n        /* \"#utility.yul\":17932:17963   */\n      swap5\n      pop\n        /* \"#utility.yul\":17806:17810   */\n      0x20\n        /* \"#utility.yul\":17803:17804   */\n      dup2\n        /* \"#utility.yul\":17799:17811   */\n      add\n        /* \"#utility.yul\":17794:17811   */\n      swap1\n      pop\n        /* \"#utility.yul\":17769:17977   */\n      jump(tag_362)\n    tag_364:\n        /* \"#utility.yul\":18005:18011   */\n      dup7\n        /* \"#utility.yul\":17996:18003   */\n      dup4\n        /* \"#utility.yul\":17993:18012   */\n      lt\n        /* \"#utility.yul\":17990:18169   */\n      iszero\n      tag_365\n      jumpi\n        /* \"#utility.yul\":18063:18072   */\n      dup5\n        /* \"#utility.yul\":18058:18061   */\n      dup10\n        /* \"#utility.yul\":18054:18073   */\n      add\n        /* \"#utility.yul\":18048:18074   */\n      mload\n        /* \"#utility.yul\":18106:18154   */\n      tag_366\n        /* \"#utility.yul\":18148:18152   */\n      0x1f\n        /* \"#utility.yul\":18140:18146   */\n      dup10\n        /* \"#utility.yul\":18136:18153   */\n      and\n        /* \"#utility.yul\":18125:18134   */\n      dup3\n        /* \"#utility.yul\":18106:18154   */\n      tag_174\n      jump\t// in\n    tag_366:\n        /* \"#utility.yul\":18098:18104   */\n      dup4\n        /* \"#utility.yul\":18091:18155   */\n      sstore\n        /* \"#utility.yul\":18013:18169   */\n      pop\n        /* \"#utility.yul\":17990:18169   */\n    tag_365:\n        /* \"#utility.yul\":18215:18216   */\n      0x01\n        /* \"#utility.yul\":18211:18212   */\n      0x02\n        /* \"#utility.yul\":18203:18209   */\n      dup9\n        /* \"#utility.yul\":18199:18213   */\n      mul\n        /* \"#utility.yul\":18195:18217   */\n      add\n        /* \"#utility.yul\":18189:18193   */\n      dup9\n        /* \"#utility.yul\":18182:18218   */\n      sstore\n        /* \"#utility.yul\":17617:18228   */\n      pop\n      pop\n      pop\n        /* \"#utility.yul\":17580:18467   */\n    tag_357:\n      pop\n        /* \"#utility.yul\":17170:18473   */\n      pop\n      pop\n      pop\n        /* \"#utility.yul\":17078:18473   */\n      pop\n      pop\n      jump\t// out\n        /* \"#utility.yul\":18479:19012   */\n    tag_116:\n        /* \"#utility.yul\":18648:18652   */\n      0x00\n        /* \"#utility.yul\":18686:18688   */\n      0x60\n        /* \"#utility.yul\":18675:18684   */\n      dup3\n        /* \"#utility.yul\":18671:18689   */\n      add\n        /* \"#utility.yul\":18663:18689   */\n      swap1\n      pop\n        /* \"#utility.yul\":18699:18770   */\n      tag_368\n        /* \"#utility.yul\":18767:18768   */\n      0x00\n        /* \"#utility.yul\":18756:18765   */\n      dup4\n        /* \"#utility.yul\":18752:18769   */\n      add\n        /* \"#utility.yul\":18743:18749   */\n      dup7\n        /* \"#utility.yul\":18699:18770   */\n      tag_125\n      jump\t// in\n    tag_368:\n        /* \"#utility.yul\":18780:18852   */\n      tag_369\n        /* \"#utility.yul\":18848:18850   */\n      0x20\n        /* \"#utility.yul\":18837:18846   */\n      dup4\n        /* \"#utility.yul\":18833:18851   */\n      add\n        /* \"#utility.yul\":18824:18830   */\n      dup6\n        /* \"#utility.yul\":18780:18852   */\n      tag_128\n      jump\t// in\n    tag_369:\n        /* \"#utility.yul\":18899:18908   */\n      dup2\n        /* \"#utility.yul\":18893:18897   */\n      dup2\n        /* \"#utility.yul\":18889:18909   */\n      sub\n        /* \"#utility.yul\":18884:18886   */\n      0x40\n        /* \"#utility.yul\":18873:18882   */\n      dup4\n        /* \"#utility.yul\":18869:18887   */\n      add\n        /* \"#utility.yul\":18862:18910   */\n      mstore\n        /* \"#utility.yul\":18927:19005   */\n      tag_370\n        /* \"#utility.yul\":19000:19004   */\n      dup2\n        /* \"#utility.yul\":18991:18997   */\n      dup5\n        /* \"#utility.yul\":18927:19005   */\n      tag_133\n      jump\t// in\n    tag_370:\n        /* \"#utility.yul\":18919:19005   */\n      swap1\n      pop\n        /* \"#utility.yul\":18479:19012   */\n      swap5\n      swap4\n      pop\n      pop\n      pop\n      pop\n      jump\t// out\n\n    auxdata: 0xa26469706673582212207e4fd461657657547f9f49a11300a8b2d4f9295409381f328a6c54503c363e5d64736f6c634300081a0033\n}\n",
				"bytecode": {
					"linkReferences": {},
					"object": "6080604052348015600e575f80fd5b503360035f6101000a81548173ffffffffffffffffffffffffffffffffffffffff021916908373ffffffffffffffffffffffffffffffffffffffff1602179055505f60028190555061145a806100635f395ff3fe608060405234801561000f575f80fd5b5060043610610086575f3560e01c8063a3ec138d11610059578063a3ec138d14610116578063aa98df3914610147578063da35c66414610163578063dd0e23731461018157610086565b80630121b93f1461008a578063013cf08b146100a65780638da5cb5b146100da5780638f73f9a0146100f8575b5f80fd5b6100a4600480360381019061009f9190610a98565b6101b1565b005b6100c060048036038101906100bb9190610a98565b610357565b6040516100d1959493929190610b9b565b60405180910390f35b6100e2610439565b6040516100ef9190610bf3565b60405180910390f35b61010061045e565b60405161010d9190610cc3565b60405180910390f35b610130600480360381019061012b9190610d0d565b6108b0565b60405161013e929190610d38565b60405180910390f35b610161600480360381019061015c9190610e8b565b6108dc565b005b61016b610a13565b6040516101789190610ed2565b60405180910390f35b61019b60048036038101906101969190610a98565b610a19565b6040516101a89190610bf3565b60405180910390f35b600115155f808381526020019081526020015f206004015f9054906101000a900460ff16151514610217576040517f08c379a000000000000000000000000000000000000000000000000000000000815260040161020e90610f35565b60405180910390fd5b5f60015f3373ffffffffffffffffffffffffffffffffffffffff1673ffffffffffffffffffffffffffffffffffffffff1681526020019081526020015f209050805f015f9054906101000a900460ff16156102a7576040517f08c379a000000000000000000000000000000000000000000000000000000000815260040161029e90610f9d565b60405180910390fd5b6001815f015f6101000a81548160ff0219169083151502179055508181600101819055505f808381526020019081526020015f206003015f8154809291906102ee90610fe8565b9190505550600433908060018154018082558091505060019003905f5260205f20015f9091909190916101000a81548173ffffffffffffffffffffffffffffffffffffffff021916908373ffffffffffffffffffffffffffffffffffffffff1602179055505050565b5f602052805f5260405f205f91509050805f015490806001015f9054906101000a900473ffffffffffffffffffffffffffffffffffffffff16908060020180546103a09061105c565b80601f01602080910402602001604051908101604052809291908181526020018280546103cc9061105c565b80156104175780601f106103ee57610100808354040283529160200191610417565b820191905f5260205f20905b8154815290600101906020018083116103fa57829003601f168201915b505050505090806003015490806004015f9054906101000a900460ff16905085565b60035f9054906101000a900473ffffffffffffffffffffffffffffffffffffffff1681565b60603373ffffffffffffffffffffffffffffffffffffffff1660035f9054906101000a900473ffffffffffffffffffffffffffffffffffffffff1673ffffffffffffffffffffffffffffffffffffffff16146104ef576040517f08c379a00000000000000000000000000000000000000000000000000000000081526004016104e6906110d6565b60405180910390fd5b5f8060025467ffffffffffffffff81111561050d5761050c610d67565b5b60405190808252806020026020018201604052801561053b5781602001602082028036833780820191505090505b5090505f805b60025481101561064a575f808281526020019081526020015f206004015f9054906101000a900460ff161561063d575f805f8381526020019081526020015f206004015f6101000a81548160ff021916908315150217905550835f808381526020019081526020015f206003015411156105f4575f808281526020019081526020015f206003015493506001915080835f815181106105e3576105e26110f4565b5b60200260200101818152505061063c565b835f808381526020019081526020015f20600301540361063b578083838061061b90610fe8565b94508151811061062e5761062d6110f4565b5b6020026020010181815250505b5b5b8080600101915050610541565b505f8167ffffffffffffffff81111561066657610665610d67565b5b6040519080825280602002602001820160405280156106945781602001602082028036833780820191505090505b5090505f5b828110156106e8578381815181106106b4576106b36110f4565b5b60200260200101518282815181106106cf576106ce6110f4565b5b6020026020010181815250508080600101915050610699565b505f5b600480549050811015610816575f60015f600484815481106107105761070f6110f4565b5b905f5260205f20015f9054906101000a900473ffffffffffffffffffffffffffffffffffffffff1673ffffffffffffffffffffffffffffffffffffffff1673ffffffffffffffffffffffffffffffffffffffff1681526020019081526020015f205f015f6101000a81548160ff0219169083151502179055505f60015f600484815481106107a1576107a06110f4565b5b905f5260205f20015f9054906101000a900473ffffffffffffffffffffffffffffffffffffffff1673ffffffffffffffffffffffffffffffffffffffff1673ffffffffffffffffffffffffffffffffffffffff1681526020019081526020015f206001018190555080806001019150506106eb565b505b5f6004805490501461086d57600480548061083657610835611121565b5b600190038181905f5260205f20015f6101000a81549073ffffffffffffffffffffffffffffffffffffffff02191690559055610818565b7fda19a91227bf044df0e2a105ba158941c8e9b15fed2870e5ddbd47450c2983eb818560405161089e92919061114e565b60405180910390a18094505050505090565b6001602052805f5260405f205f91509050805f015f9054906101000a900460ff16908060010154905082565b6040518060a0016040528060025481526020013373ffffffffffffffffffffffffffffffffffffffff1681526020018281526020015f8152602001600115158152505f8060025f81548092919061093290610fe8565b9190505581526020019081526020015f205f820151815f01556020820151816001015f6101000a81548173ffffffffffffffffffffffffffffffffffffffff021916908373ffffffffffffffffffffffffffffffffffffffff16021790555060408201518160020190816109a69190611319565b50606082015181600301556080820151816004015f6101000a81548160ff0219169083151502179055509050507f7585f467599d0f008985f231af99293be388626ac16ca59505c2f8f88969cd636002543383604051610a08939291906113e8565b60405180910390a150565b60025481565b60048181548110610a28575f80fd5b905f5260205f20015f915054906101000a900473ffffffffffffffffffffffffffffffffffffffff1681565b5f604051905090565b5f80fd5b5f80fd5b5f819050919050565b610a7781610a65565b8114610a81575f80fd5b50565b5f81359050610a9281610a6e565b92915050565b5f60208284031215610aad57610aac610a5d565b5b5f610aba84828501610a84565b91505092915050565b610acc81610a65565b82525050565b5f73ffffffffffffffffffffffffffffffffffffffff82169050919050565b5f610afb82610ad2565b9050919050565b610b0b81610af1565b82525050565b5f81519050919050565b5f82825260208201905092915050565b8281835e5f83830152505050565b5f601f19601f8301169050919050565b5f610b5382610b11565b610b5d8185610b1b565b9350610b6d818560208601610b2b565b610b7681610b39565b840191505092915050565b5f8115159050919050565b610b9581610b81565b82525050565b5f60a082019050610bae5f830188610ac3565b610bbb6020830187610b02565b8181036040830152610bcd8186610b49565b9050610bdc6060830185610ac3565b610be96080830184610b8c565b9695505050505050565b5f602082019050610c065f830184610b02565b92915050565b5f81519050919050565b5f82825260208201905092915050565b5f819050602082019050919050565b610c3e81610a65565b82525050565b5f610c4f8383610c35565b60208301905092915050565b5f602082019050919050565b5f610c7182610c0c565b610c7b8185610c16565b9350610c8683610c26565b805f5b83811015610cb6578151610c9d8882610c44565b9750610ca883610c5b565b925050600181019050610c89565b5085935050505092915050565b5f6020820190508181035f830152610cdb8184610c67565b905092915050565b610cec81610af1565b8114610cf6575f80fd5b50565b5f81359050610d0781610ce3565b92915050565b5f60208284031215610d2257610d21610a5d565b5b5f610d2f84828501610cf9565b91505092915050565b5f604082019050610d4b5f830185610b8c565b610d586020830184610ac3565b9392505050565b5f80fd5b5f80fd5b7f4e487b71000000000000000000000000000000000000000000000000000000005f52604160045260245ffd5b610d9d82610b39565b810181811067ffffffffffffffff82111715610dbc57610dbb610d67565b5b80604052505050565b5f610dce610a54565b9050610dda8282610d94565b919050565b5f67ffffffffffffffff821115610df957610df8610d67565b5b610e0282610b39565b9050602081019050919050565b828183375f83830152505050565b5f610e2f610e2a84610ddf565b610dc5565b905082815260208101848484011115610e4b57610e4a610d63565b5b610e56848285610e0f565b509392505050565b5f82601f830112610e7257610e71610d5f565b5b8135610e82848260208601610e1d565b91505092915050565b5f60208284031215610ea057610e9f610a5d565b5b5f82013567ffffffffffffffff811115610ebd57610ebc610a61565b5b610ec984828501610e5e565b91505092915050565b5f602082019050610ee55f830184610ac3565b92915050565b7f50726f706f73616c206d757374206265206f70656e2e000000000000000000005f82015250565b5f610f1f601683610b1b565b9150610f2a82610eeb565b602082019050919050565b5f6020820190508181035f830152610f4c81610f13565b9050919050565b7f416c726561647920766f7465642e0000000000000000000000000000000000005f82015250565b5f610f87600e83610b1b565b9150610f9282610f53565b602082019050919050565b5f6020820190508181035f830152610fb481610f7b565b9050919050565b7f4e487b71000000000000000000000000000000000000000000000000000000005f52601160045260245ffd5b5f610ff282610a65565b91507fffffffffffffffffffffffffffffffffffffffffffffffffffffffffffffffff820361102457611023610fbb565b5b600182019050919050565b7f4e487b71000000000000000000000000000000000000000000000000000000005f52602260045260245ffd5b5f600282049050600182168061107357607f821691505b6020821081036110865761108561102f565b5b50919050565b7f596f7520617265206e6f742074686520636f6e7472616374206f776e65722e005f82015250565b5f6110c0601f83610b1b565b91506110cb8261108c565b602082019050919050565b5f6020820190508181035f8301526110ed816110b4565b9050919050565b7f4e487b71000000000000000000000000000000000000000000000000000000005f52603260045260245ffd5b7f4e487b71000000000000000000000000000000000000000000000000000000005f52603160045260245ffd5b5f6040820190508181035f8301526111668185610c67565b90506111756020830184610ac3565b9392505050565b5f819050815f5260205f209050919050565b5f6020601f8301049050919050565b5f82821b905092915050565b5f600883026111d87fffffffffffffffffffffffffffffffffffffffffffffffffffffffffffffffff8261119d565b6111e2868361119d565b95508019841693508086168417925050509392505050565b5f819050919050565b5f61121d61121861121384610a65565b6111fa565b610a65565b9050919050565b5f819050919050565b61123683611203565b61124a61124282611224565b8484546111a9565b825550505050565b5f90565b61125e611252565b61126981848461122d565b505050565b5b8181101561128c576112815f82611256565b60018101905061126f565b5050565b601f8211156112d1576112a28161117c565b6112ab8461118e565b810160208510156112ba578190505b6112ce6112c68561118e565b83018261126e565b50505b505050565b5f82821c905092915050565b5f6112f15f19846008026112d6565b1980831691505092915050565b5f61130983836112e2565b9150826002028217905092915050565b61132282610b11565b67ffffffffffffffff81111561133b5761133a610d67565b5b611345825461105c565b611350828285611290565b5f60209050601f831160018114611381575f841561136f578287015190505b61137985826112fe565b8655506113e0565b601f19841661138f8661117c565b5f5b828110156113b657848901518255600182019150602085019450602081019050611391565b868310156113d357848901516113cf601f8916826112e2565b8355505b6001600288020188555050505b505050505050565b5f6060820190506113fb5f830186610ac3565b6114086020830185610b02565b818103604083015261141a8184610b49565b905094935050505056fea26469706673582212207e4fd461657657547f9f49a11300a8b2d4f9295409381f328a6c54503c363e5d64736f6c634300081a0033",
					"opcodes": "PUSH1 0x80 PUSH1 0x40 MSTORE CALLVALUE DUP1 ISZERO PUSH1 0xE JUMPI PUSH0 DUP1 REVERT JUMPDEST POP CALLER PUSH1 0x3 PUSH0 PUSH2 0x100 EXP DUP2 SLOAD DUP2 PUSH20 0xFFFFFFFFFFFFFFFFFFFFFFFFFFFFFFFFFFFFFFFF MUL NOT AND SWAP1 DUP4 PUSH20 0xFFFFFFFFFFFFFFFFFFFFFFFFFFFFFFFFFFFFFFFF AND MUL OR SWAP1 SSTORE POP PUSH0 PUSH1 0x2 DUP2 SWAP1 SSTORE POP PUSH2 0x145A DUP1 PUSH2 0x63 PUSH0 CODECOPY PUSH0 RETURN INVALID PUSH1 0x80 PUSH1 0x40 MSTORE CALLVALUE DUP1 ISZERO PUSH2 0xF JUMPI PUSH0 DUP1 REVERT JUMPDEST POP PUSH1 0x4 CALLDATASIZE LT PUSH2 0x86 JUMPI PUSH0 CALLDATALOAD PUSH1 0xE0 SHR DUP1 PUSH4 0xA3EC138D GT PUSH2 0x59 JUMPI DUP1 PUSH4 0xA3EC138D EQ PUSH2 0x116 JUMPI DUP1 PUSH4 0xAA98DF39 EQ PUSH2 0x147 JUMPI DUP1 PUSH4 0xDA35C664 EQ PUSH2 0x163 JUMPI DUP1 PUSH4 0xDD0E2373 EQ PUSH2 0x181 JUMPI PUSH2 0x86 JUMP JUMPDEST DUP1 PUSH4 0x121B93F EQ PUSH2 0x8A JUMPI DUP1 PUSH4 0x13CF08B EQ PUSH2 0xA6 JUMPI DUP1 PUSH4 0x8DA5CB5B EQ PUSH2 0xDA JUMPI DUP1 PUSH4 0x8F73F9A0 EQ PUSH2 0xF8 JUMPI JUMPDEST PUSH0 DUP1 REVERT JUMPDEST PUSH2 0xA4 PUSH1 0x4 DUP1 CALLDATASIZE SUB DUP2 ADD SWAP1 PUSH2 0x9F SWAP2 SWAP1 PUSH2 0xA98 JUMP JUMPDEST PUSH2 0x1B1 JUMP JUMPDEST STOP JUMPDEST PUSH2 0xC0 PUSH1 0x4 DUP1 CALLDATASIZE SUB DUP2 ADD SWAP1 PUSH2 0xBB SWAP2 SWAP1 PUSH2 0xA98 JUMP JUMPDEST PUSH2 0x357 JUMP JUMPDEST PUSH1 0x40 MLOAD PUSH2 0xD1 SWAP6 SWAP5 SWAP4 SWAP3 SWAP2 SWAP1 PUSH2 0xB9B JUMP JUMPDEST PUSH1 0x40 MLOAD DUP1 SWAP2 SUB SWAP1 RETURN JUMPDEST PUSH2 0xE2 PUSH2 0x439 JUMP JUMPDEST PUSH1 0x40 MLOAD PUSH2 0xEF SWAP2 SWAP1 PUSH2 0xBF3 JUMP JUMPDEST PUSH1 0x40 MLOAD DUP1 SWAP2 SUB SWAP1 RETURN JUMPDEST PUSH2 0x100 PUSH2 0x45E JUMP JUMPDEST PUSH1 0x40 MLOAD PUSH2 0x10D SWAP2 SWAP1 PUSH2 0xCC3 JUMP JUMPDEST PUSH1 0x40 MLOAD DUP1 SWAP2 SUB SWAP1 RETURN JUMPDEST PUSH2 0x130 PUSH1 0x4 DUP1 CALLDATASIZE SUB DUP2 ADD SWAP1 PUSH2 0x12B SWAP2 SWAP1 PUSH2 0xD0D JUMP JUMPDEST PUSH2 0x8B0 JUMP JUMPDEST PUSH1 0x40 MLOAD PUSH2 0x13E SWAP3 SWAP2 SWAP1 PUSH2 0xD38 JUMP JUMPDEST PUSH1 0x40 MLOAD DUP1 SWAP2 SUB SWAP1 RETURN JUMPDEST PUSH2 0x161 PUSH1 0x4 DUP1 CALLDATASIZE SUB DUP2 ADD SWAP1 PUSH2 0x15C SWAP2 SWAP1 PUSH2 0xE8B JUMP JUMPDEST PUSH2 0x8DC JUMP JUMPDEST STOP JUMPDEST PUSH2 0x16B PUSH2 0xA13 JUMP JUMPDEST PUSH1 0x40 MLOAD PUSH2 0x178 SWAP2 SWAP1 PUSH2 0xED2 JUMP JUMPDEST PUSH1 0x40 MLOAD DUP1 SWAP2 SUB SWAP1 RETURN JUMPDEST PUSH2 0x19B PUSH1 0x4 DUP1 CALLDATASIZE SUB DUP2 ADD SWAP1 PUSH2 0x196 SWAP2 SWAP1 PUSH2 0xA98 JUMP JUMPDEST PUSH2 0xA19 JUMP JUMPDEST PUSH1 0x40 MLOAD PUSH2 0x1A8 SWAP2 SWAP1 PUSH2 0xBF3 JUMP JUMPDEST PUSH1 0x40 MLOAD DUP1 SWAP2 SUB SWAP1 RETURN JUMPDEST PUSH1 0x1 ISZERO ISZERO PUSH0 DUP1 DUP4 DUP2 MSTORE PUSH1 0x20 ADD SWAP1 DUP2 MSTORE PUSH1 0x20 ADD PUSH0 KECCAK256 PUSH1 0x4 ADD PUSH0 SWAP1 SLOAD SWAP1 PUSH2 0x100 EXP SWAP1 DIV PUSH1 0xFF AND ISZERO ISZERO EQ PUSH2 0x217 JUMPI PUSH1 0x40 MLOAD PUSH32 0x8C379A000000000000000000000000000000000000000000000000000000000 DUP2 MSTORE PUSH1 0x4 ADD PUSH2 0x20E SWAP1 PUSH2 0xF35 JUMP JUMPDEST PUSH1 0x40 MLOAD DUP1 SWAP2 SUB SWAP1 REVERT JUMPDEST PUSH0 PUSH1 0x1 PUSH0 CALLER PUSH20 0xFFFFFFFFFFFFFFFFFFFFFFFFFFFFFFFFFFFFFFFF AND PUSH20 0xFFFFFFFFFFFFFFFFFFFFFFFFFFFFFFFFFFFFFFFF AND DUP2 MSTORE PUSH1 0x20 ADD SWAP1 DUP2 MSTORE PUSH1 0x20 ADD PUSH0 KECCAK256 SWAP1 POP DUP1 PUSH0 ADD PUSH0 SWAP1 SLOAD SWAP1 PUSH2 0x100 EXP SWAP1 DIV PUSH1 0xFF AND ISZERO PUSH2 0x2A7 JUMPI PUSH1 0x40 MLOAD PUSH32 0x8C379A000000000000000000000000000000000000000000000000000000000 DUP2 MSTORE PUSH1 0x4 ADD PUSH2 0x29E SWAP1 PUSH2 0xF9D JUMP JUMPDEST PUSH1 0x40 MLOAD DUP1 SWAP2 SUB SWAP1 REVERT JUMPDEST PUSH1 0x1 DUP2 PUSH0 ADD PUSH0 PUSH2 0x100 EXP DUP2 SLOAD DUP2 PUSH1 0xFF MUL NOT AND SWAP1 DUP4 ISZERO ISZERO MUL OR SWAP1 SSTORE POP DUP2 DUP2 PUSH1 0x1 ADD DUP2 SWAP1 SSTORE POP PUSH0 DUP1 DUP4 DUP2 MSTORE PUSH1 0x20 ADD SWAP1 DUP2 MSTORE PUSH1 0x20 ADD PUSH0 KECCAK256 PUSH1 0x3 ADD PUSH0 DUP2 SLOAD DUP1 SWAP3 SWAP2 SWAP1 PUSH2 0x2EE SWAP1 PUSH2 0xFE8 JUMP JUMPDEST SWAP2 SWAP1 POP SSTORE POP PUSH1 0x4 CALLER SWAP1 DUP1 PUSH1 0x1 DUP2 SLOAD ADD DUP1 DUP3 SSTORE DUP1 SWAP2 POP POP PUSH1 0x1 SWAP1 SUB SWAP1 PUSH0 MSTORE PUSH1 0x20 PUSH0 KECCAK256 ADD PUSH0 SWAP1 SWAP2 SWAP1 SWAP2 SWAP1 SWAP2 PUSH2 0x100 EXP DUP2 SLOAD DUP2 PUSH20 0xFFFFFFFFFFFFFFFFFFFFFFFFFFFFFFFFFFFFFFFF MUL NOT AND SWAP1 DUP4 PUSH20 0xFFFFFFFFFFFFFFFFFFFFFFFFFFFFFFFFFFFFFFFF AND MUL OR SWAP1 SSTORE POP POP POP JUMP JUMPDEST PUSH0 PUSH1 0x20 MSTORE DUP1 PUSH0 MSTORE PUSH1 0x40 PUSH0 KECCAK256 PUSH0 SWAP2 POP SWAP1 POP DUP1 PUSH0 ADD SLOAD SWAP1 DUP1 PUSH1 0x1 ADD PUSH0 SWAP1 SLOAD SWAP1 PUSH2 0x100 EXP SWAP1 DIV PUSH20 0xFFFFFFFFFFFFFFFFFFFFFFFFFFFFFFFFFFFFFFFF AND SWAP1 DUP1 PUSH1 0x2 ADD DUP1 SLOAD PUSH2 0x3A0 SWAP1 PUSH2 0x105C JUMP JUMPDEST DUP1 PUSH1 0x1F ADD PUSH1 0x20 DUP1 SWAP2 DIV MUL PUSH1 0x20 ADD PUSH1 0x40 MLOAD SWAP1 DUP2 ADD PUSH1 0x40 MSTORE DUP1 SWAP3 SWAP2 SWAP1 DUP2 DUP2 MSTORE PUSH1 0x20 ADD DUP3 DUP1 SLOAD PUSH2 0x3CC SWAP1 PUSH2 0x105C JUMP JUMPDEST DUP1 ISZERO PUSH2 0x417 JUMPI DUP1 PUSH1 0x1F LT PUSH2 0x3EE JUMPI PUSH2 0x100 DUP1 DUP4 SLOAD DIV MUL DUP4 MSTORE SWAP2 PUSH1 0x20 ADD SWAP2 PUSH2 0x417 JUMP JUMPDEST DUP3 ADD SWAP2 SWAP1 PUSH0 MSTORE PUSH1 0x20 PUSH0 KECCAK256 SWAP1 JUMPDEST DUP2 SLOAD DUP2 MSTORE SWAP1 PUSH1 0x1 ADD SWAP1 PUSH1 0x20 ADD DUP1 DUP4 GT PUSH2 0x3FA JUMPI DUP3 SWAP1 SUB PUSH1 0x1F AND DUP3 ADD SWAP2 JUMPDEST POP POP POP POP POP SWAP1 DUP1 PUSH1 0x3 ADD SLOAD SWAP1 DUP1 PUSH1 0x4 ADD PUSH0 SWAP1 SLOAD SWAP1 PUSH2 0x100 EXP SWAP1 DIV PUSH1 0xFF AND SWAP1 POP DUP6 JUMP JUMPDEST PUSH1 0x3 PUSH0 SWAP1 SLOAD SWAP1 PUSH2 0x100 EXP SWAP1 DIV PUSH20 0xFFFFFFFFFFFFFFFFFFFFFFFFFFFFFFFFFFFFFFFF AND DUP2 JUMP JUMPDEST PUSH1 0x60 CALLER PUSH20 0xFFFFFFFFFFFFFFFFFFFFFFFFFFFFFFFFFFFFFFFF AND PUSH1 0x3 PUSH0 SWAP1 SLOAD SWAP1 PUSH2 0x100 EXP SWAP1 DIV PUSH20 0xFFFFFFFFFFFFFFFFFFFFFFFFFFFFFFFFFFFFFFFF AND PUSH20 0xFFFFFFFFFFFFFFFFFFFFFFFFFFFFFFFFFFFFFFFF AND EQ PUSH2 0x4EF JUMPI PUSH1 0x40 MLOAD PUSH32 0x8C379A000000000000000000000000000000000000000000000000000000000 DUP2 MSTORE PUSH1 0x4 ADD PUSH2 0x4E6 SWAP1 PUSH2 0x10D6 JUMP JUMPDEST PUSH1 0x40 MLOAD DUP1 SWAP2 SUB SWAP1 REVERT JUMPDEST PUSH0 DUP1 PUSH1 0x2 SLOAD PUSH8 0xFFFFFFFFFFFFFFFF DUP2 GT ISZERO PUSH2 0x50D JUMPI PUSH2 0x50C PUSH2 0xD67 JUMP JUMPDEST JUMPDEST PUSH1 0x40 MLOAD SWAP1 DUP1 DUP3 MSTORE DUP1 PUSH1 0x20 MUL PUSH1 0x20 ADD DUP3 ADD PUSH1 0x40 MSTORE DUP1 ISZERO PUSH2 0x53B JUMPI DUP2 PUSH1 0x20 ADD PUSH1 0x20 DUP3 MUL DUP1 CALLDATASIZE DUP4 CALLDATACOPY DUP1 DUP3 ADD SWAP2 POP POP SWAP1 POP JUMPDEST POP SWAP1 POP PUSH0 DUP1 JUMPDEST PUSH1 0x2 SLOAD DUP2 LT ISZERO PUSH2 0x64A JUMPI PUSH0 DUP1 DUP3 DUP2 MSTORE PUSH1 0x20 ADD SWAP1 DUP2 MSTORE PUSH1 0x20 ADD PUSH0 KECCAK256 PUSH1 0x4 ADD PUSH0 SWAP1 SLOAD SWAP1 PUSH2 0x100 EXP SWAP1 DIV PUSH1 0xFF AND ISZERO PUSH2 0x63D JUMPI PUSH0 DUP1 PUSH0 DUP4 DUP2 MSTORE PUSH1 0x20 ADD SWAP1 DUP2 MSTORE PUSH1 0x20 ADD PUSH0 KECCAK256 PUSH1 0x4 ADD PUSH0 PUSH2 0x100 EXP DUP2 SLOAD DUP2 PUSH1 0xFF MUL NOT AND SWAP1 DUP4 ISZERO ISZERO MUL OR SWAP1 SSTORE POP DUP4 PUSH0 DUP1 DUP4 DUP2 MSTORE PUSH1 0x20 ADD SWAP1 DUP2 MSTORE PUSH1 0x20 ADD PUSH0 KECCAK256 PUSH1 0x3 ADD SLOAD GT ISZERO PUSH2 0x5F4 JUMPI PUSH0 DUP1 DUP3 DUP2 MSTORE PUSH1 0x20 ADD SWAP1 DUP2 MSTORE PUSH1 0x20 ADD PUSH0 KECCAK256 PUSH1 0x3 ADD SLOAD SWAP4 POP PUSH1 0x1 SWAP2 POP DUP1 DUP4 PUSH0 DUP2 MLOAD DUP2 LT PUSH2 0x5E3 JUMPI PUSH2 0x5E2 PUSH2 0x10F4 JUMP JUMPDEST JUMPDEST PUSH1 0x20 MUL PUSH1 0x20 ADD ADD DUP2 DUP2 MSTORE POP POP PUSH2 0x63C JUMP JUMPDEST DUP4 PUSH0 DUP1 DUP4 DUP2 MSTORE PUSH1 0x20 ADD SWAP1 DUP2 MSTORE PUSH1 0x20 ADD PUSH0 KECCAK256 PUSH1 0x3 ADD SLOAD SUB PUSH2 0x63B JUMPI DUP1 DUP4 DUP4 DUP1 PUSH2 0x61B SWAP1 PUSH2 0xFE8 JUMP JUMPDEST SWAP5 POP DUP2 MLOAD DUP2 LT PUSH2 0x62E JUMPI PUSH2 0x62D PUSH2 0x10F4 JUMP JUMPDEST JUMPDEST PUSH1 0x20 MUL PUSH1 0x20 ADD ADD DUP2 DUP2 MSTORE POP POP JUMPDEST JUMPDEST JUMPDEST DUP1 DUP1 PUSH1 0x1 ADD SWAP2 POP POP PUSH2 0x541 JUMP JUMPDEST POP PUSH0 DUP2 PUSH8 0xFFFFFFFFFFFFFFFF DUP2 GT ISZERO PUSH2 0x666 JUMPI PUSH2 0x665 PUSH2 0xD67 JUMP JUMPDEST JUMPDEST PUSH1 0x40 MLOAD SWAP1 DUP1 DUP3 MSTORE DUP1 PUSH1 0x20 MUL PUSH1 0x20 ADD DUP3 ADD PUSH1 0x40 MSTORE DUP1 ISZERO PUSH2 0x694 JUMPI DUP2 PUSH1 0x20 ADD PUSH1 0x20 DUP3 MUL DUP1 CALLDATASIZE DUP4 CALLDATACOPY DUP1 DUP3 ADD SWAP2 POP POP SWAP1 POP JUMPDEST POP SWAP1 POP PUSH0 JUMPDEST DUP3 DUP2 LT ISZERO PUSH2 0x6E8 JUMPI DUP4 DUP2 DUP2 MLOAD DUP2 LT PUSH2 0x6B4 JUMPI PUSH2 0x6B3 PUSH2 0x10F4 JUMP JUMPDEST JUMPDEST PUSH1 0x20 MUL PUSH1 0x20 ADD ADD MLOAD DUP3 DUP3 DUP2 MLOAD DUP2 LT PUSH2 0x6CF JUMPI PUSH2 0x6CE PUSH2 0x10F4 JUMP JUMPDEST JUMPDEST PUSH1 0x20 MUL PUSH1 0x20 ADD ADD DUP2 DUP2 MSTORE POP POP DUP1 DUP1 PUSH1 0x1 ADD SWAP2 POP POP PUSH2 0x699 JUMP JUMPDEST POP PUSH0 JUMPDEST PUSH1 0x4 DUP1 SLOAD SWAP1 POP DUP2 LT ISZERO PUSH2 0x816 JUMPI PUSH0 PUSH1 0x1 PUSH0 PUSH1 0x4 DUP5 DUP2 SLOAD DUP2 LT PUSH2 0x710 JUMPI PUSH2 0x70F PUSH2 0x10F4 JUMP JUMPDEST JUMPDEST SWAP1 PUSH0 MSTORE PUSH1 0x20 PUSH0 KECCAK256 ADD PUSH0 SWAP1 SLOAD SWAP1 PUSH2 0x100 EXP SWAP1 DIV PUSH20 0xFFFFFFFFFFFFFFFFFFFFFFFFFFFFFFFFFFFFFFFF AND PUSH20 0xFFFFFFFFFFFFFFFFFFFFFFFFFFFFFFFFFFFFFFFF AND PUSH20 0xFFFFFFFFFFFFFFFFFFFFFFFFFFFFFFFFFFFFFFFF AND DUP2 MSTORE PUSH1 0x20 ADD SWAP1 DUP2 MSTORE PUSH1 0x20 ADD PUSH0 KECCAK256 PUSH0 ADD PUSH0 PUSH2 0x100 EXP DUP2 SLOAD DUP2 PUSH1 0xFF MUL NOT AND SWAP1 DUP4 ISZERO ISZERO MUL OR SWAP1 SSTORE POP PUSH0 PUSH1 0x1 PUSH0 PUSH1 0x4 DUP5 DUP2 SLOAD DUP2 LT PUSH2 0x7A1 JUMPI PUSH2 0x7A0 PUSH2 0x10F4 JUMP JUMPDEST JUMPDEST SWAP1 PUSH0 MSTORE PUSH1 0x20 PUSH0 KECCAK256 ADD PUSH0 SWAP1 SLOAD SWAP1 PUSH2 0x100 EXP SWAP1 DIV PUSH20 0xFFFFFFFFFFFFFFFFFFFFFFFFFFFFFFFFFFFFFFFF AND PUSH20 0xFFFFFFFFFFFFFFFFFFFFFFFFFFFFFFFFFFFFFFFF AND PUSH20 0xFFFFFFFFFFFFFFFFFFFFFFFFFFFFFFFFFFFFFFFF AND DUP2 MSTORE PUSH1 0x20 ADD SWAP1 DUP2 MSTORE PUSH1 0x20 ADD PUSH0 KECCAK256 PUSH1 0x1 ADD DUP2 SWAP1 SSTORE POP DUP1 DUP1 PUSH1 0x1 ADD SWAP2 POP POP PUSH2 0x6EB JUMP JUMPDEST POP JUMPDEST PUSH0 PUSH1 0x4 DUP1 SLOAD SWAP1 POP EQ PUSH2 0x86D JUMPI PUSH1 0x4 DUP1 SLOAD DUP1 PUSH2 0x836 JUMPI PUSH2 0x835 PUSH2 0x1121 JUMP JUMPDEST JUMPDEST PUSH1 0x1 SWAP1 SUB DUP2 DUP2 SWAP1 PUSH0 MSTORE PUSH1 0x20 PUSH0 KECCAK256 ADD PUSH0 PUSH2 0x100 EXP DUP2 SLOAD SWAP1 PUSH20 0xFFFFFFFFFFFFFFFFFFFFFFFFFFFFFFFFFFFFFFFF MUL NOT AND SWAP1 SSTORE SWAP1 SSTORE PUSH2 0x818 JUMP JUMPDEST PUSH32 0xDA19A91227BF044DF0E2A105BA158941C8E9B15FED2870E5DDBD47450C2983EB DUP2 DUP6 PUSH1 0x40 MLOAD PUSH2 0x89E SWAP3 SWAP2 SWAP1 PUSH2 0x114E JUMP JUMPDEST PUSH1 0x40 MLOAD DUP1 SWAP2 SUB SWAP1 LOG1 DUP1 SWAP5 POP POP POP POP POP SWAP1 JUMP JUMPDEST PUSH1 0x1 PUSH1 0x20 MSTORE DUP1 PUSH0 MSTORE PUSH1 0x40 PUSH0 KECCAK256 PUSH0 SWAP2 POP SWAP1 POP DUP1 PUSH0 ADD PUSH0 SWAP1 SLOAD SWAP1 PUSH2 0x100 EXP SWAP1 DIV PUSH1 0xFF AND SWAP1 DUP1 PUSH1 0x1 ADD SLOAD SWAP1 POP DUP3 JUMP JUMPDEST PUSH1 0x40 MLOAD DUP1 PUSH1 0xA0 ADD PUSH1 0x40 MSTORE DUP1 PUSH1 0x2 SLOAD DUP2 MSTORE PUSH1 0x20 ADD CALLER PUSH20 0xFFFFFFFFFFFFFFFFFFFFFFFFFFFFFFFFFFFFFFFF AND DUP2 MSTORE PUSH1 0x20 ADD DUP3 DUP2 MSTORE PUSH1 0x20 ADD PUSH0 DUP2 MSTORE PUSH1 0x20 ADD PUSH1 0x1 ISZERO ISZERO DUP2 MSTORE POP PUSH0 DUP1 PUSH1 0x2 PUSH0 DUP2 SLOAD DUP1 SWAP3 SWAP2 SWAP1 PUSH2 0x932 SWAP1 PUSH2 0xFE8 JUMP JUMPDEST SWAP2 SWAP1 POP SSTORE DUP2 MSTORE PUSH1 0x20 ADD SWAP1 DUP2 MSTORE PUSH1 0x20 ADD PUSH0 KECCAK256 PUSH0 DUP3 ADD MLOAD DUP2 PUSH0 ADD SSTORE PUSH1 0x20 DUP3 ADD MLOAD DUP2 PUSH1 0x1 ADD PUSH0 PUSH2 0x100 EXP DUP2 SLOAD DUP2 PUSH20 0xFFFFFFFFFFFFFFFFFFFFFFFFFFFFFFFFFFFFFFFF MUL NOT AND SWAP1 DUP4 PUSH20 0xFFFFFFFFFFFFFFFFFFFFFFFFFFFFFFFFFFFFFFFF AND MUL OR SWAP1 SSTORE POP PUSH1 0x40 DUP3 ADD MLOAD DUP2 PUSH1 0x2 ADD SWAP1 DUP2 PUSH2 0x9A6 SWAP2 SWAP1 PUSH2 0x1319 JUMP JUMPDEST POP PUSH1 0x60 DUP3 ADD MLOAD DUP2 PUSH1 0x3 ADD SSTORE PUSH1 0x80 DUP3 ADD MLOAD DUP2 PUSH1 0x4 ADD PUSH0 PUSH2 0x100 EXP DUP2 SLOAD DUP2 PUSH1 0xFF MUL NOT AND SWAP1 DUP4 ISZERO ISZERO MUL OR SWAP1 SSTORE POP SWAP1 POP POP PUSH32 0x7585F467599D0F008985F231AF99293BE388626AC16CA59505C2F8F88969CD63 PUSH1 0x2 SLOAD CALLER DUP4 PUSH1 0x40 MLOAD PUSH2 0xA08 SWAP4 SWAP3 SWAP2 SWAP1 PUSH2 0x13E8 JUMP JUMPDEST PUSH1 0x40 MLOAD DUP1 SWAP2 SUB SWAP1 LOG1 POP JUMP JUMPDEST PUSH1 0x2 SLOAD DUP2 JUMP JUMPDEST PUSH1 0x4 DUP2 DUP2 SLOAD DUP2 LT PUSH2 0xA28 JUMPI PUSH0 DUP1 REVERT JUMPDEST SWAP1 PUSH0 MSTORE PUSH1 0x20 PUSH0 KECCAK256 ADD PUSH0 SWAP2 POP SLOAD SWAP1 PUSH2 0x100 EXP SWAP1 DIV PUSH20 0xFFFFFFFFFFFFFFFFFFFFFFFFFFFFFFFFFFFFFFFF AND DUP2 JUMP JUMPDEST PUSH0 PUSH1 0x40 MLOAD SWAP1 POP SWAP1 JUMP JUMPDEST PUSH0 DUP1 REVERT JUMPDEST PUSH0 DUP1 REVERT JUMPDEST PUSH0 DUP2 SWAP1 POP SWAP2 SWAP1 POP JUMP JUMPDEST PUSH2 0xA77 DUP2 PUSH2 0xA65 JUMP JUMPDEST DUP2 EQ PUSH2 0xA81 JUMPI PUSH0 DUP1 REVERT JUMPDEST POP JUMP JUMPDEST PUSH0 DUP2 CALLDATALOAD SWAP1 POP PUSH2 0xA92 DUP2 PUSH2 0xA6E JUMP JUMPDEST SWAP3 SWAP2 POP POP JUMP JUMPDEST PUSH0 PUSH1 0x20 DUP3 DUP5 SUB SLT ISZERO PUSH2 0xAAD JUMPI PUSH2 0xAAC PUSH2 0xA5D JUMP JUMPDEST JUMPDEST PUSH0 PUSH2 0xABA DUP5 DUP3 DUP6 ADD PUSH2 0xA84 JUMP JUMPDEST SWAP2 POP POP SWAP3 SWAP2 POP POP JUMP JUMPDEST PUSH2 0xACC DUP2 PUSH2 0xA65 JUMP JUMPDEST DUP3 MSTORE POP POP JUMP JUMPDEST PUSH0 PUSH20 0xFFFFFFFFFFFFFFFFFFFFFFFFFFFFFFFFFFFFFFFF DUP3 AND SWAP1 POP SWAP2 SWAP1 POP JUMP JUMPDEST PUSH0 PUSH2 0xAFB DUP3 PUSH2 0xAD2 JUMP JUMPDEST SWAP1 POP SWAP2 SWAP1 POP JUMP JUMPDEST PUSH2 0xB0B DUP2 PUSH2 0xAF1 JUMP JUMPDEST DUP3 MSTORE POP POP JUMP JUMPDEST PUSH0 DUP2 MLOAD SWAP1 POP SWAP2 SWAP1 POP JUMP JUMPDEST PUSH0 DUP3 DUP3 MSTORE PUSH1 0x20 DUP3 ADD SWAP1 POP SWAP3 SWAP2 POP POP JUMP JUMPDEST DUP3 DUP2 DUP4 MCOPY PUSH0 DUP4 DUP4 ADD MSTORE POP POP POP JUMP JUMPDEST PUSH0 PUSH1 0x1F NOT PUSH1 0x1F DUP4 ADD AND SWAP1 POP SWAP2 SWAP1 POP JUMP JUMPDEST PUSH0 PUSH2 0xB53 DUP3 PUSH2 0xB11 JUMP JUMPDEST PUSH2 0xB5D DUP2 DUP6 PUSH2 0xB1B JUMP JUMPDEST SWAP4 POP PUSH2 0xB6D DUP2 DUP6 PUSH1 0x20 DUP7 ADD PUSH2 0xB2B JUMP JUMPDEST PUSH2 0xB76 DUP2 PUSH2 0xB39 JUMP JUMPDEST DUP5 ADD SWAP2 POP POP SWAP3 SWAP2 POP POP JUMP JUMPDEST PUSH0 DUP2 ISZERO ISZERO SWAP1 POP SWAP2 SWAP1 POP JUMP JUMPDEST PUSH2 0xB95 DUP2 PUSH2 0xB81 JUMP JUMPDEST DUP3 MSTORE POP POP JUMP JUMPDEST PUSH0 PUSH1 0xA0 DUP3 ADD SWAP1 POP PUSH2 0xBAE PUSH0 DUP4 ADD DUP9 PUSH2 0xAC3 JUMP JUMPDEST PUSH2 0xBBB PUSH1 0x20 DUP4 ADD DUP8 PUSH2 0xB02 JUMP JUMPDEST DUP2 DUP2 SUB PUSH1 0x40 DUP4 ADD MSTORE PUSH2 0xBCD DUP2 DUP7 PUSH2 0xB49 JUMP JUMPDEST SWAP1 POP PUSH2 0xBDC PUSH1 0x60 DUP4 ADD DUP6 PUSH2 0xAC3 JUMP JUMPDEST PUSH2 0xBE9 PUSH1 0x80 DUP4 ADD DUP5 PUSH2 0xB8C JUMP JUMPDEST SWAP7 SWAP6 POP POP POP POP POP POP JUMP JUMPDEST PUSH0 PUSH1 0x20 DUP3 ADD SWAP1 POP PUSH2 0xC06 PUSH0 DUP4 ADD DUP5 PUSH2 0xB02 JUMP JUMPDEST SWAP3 SWAP2 POP POP JUMP JUMPDEST PUSH0 DUP2 MLOAD SWAP1 POP SWAP2 SWAP1 POP JUMP JUMPDEST PUSH0 DUP3 DUP3 MSTORE PUSH1 0x20 DUP3 ADD SWAP1 POP SWAP3 SWAP2 POP POP JUMP JUMPDEST PUSH0 DUP2 SWAP1 POP PUSH1 0x20 DUP3 ADD SWAP1 POP SWAP2 SWAP1 POP JUMP JUMPDEST PUSH2 0xC3E DUP2 PUSH2 0xA65 JUMP JUMPDEST DUP3 MSTORE POP POP JUMP JUMPDEST PUSH0 PUSH2 0xC4F DUP4 DUP4 PUSH2 0xC35 JUMP JUMPDEST PUSH1 0x20 DUP4 ADD SWAP1 POP SWAP3 SWAP2 POP POP JUMP JUMPDEST PUSH0 PUSH1 0x20 DUP3 ADD SWAP1 POP SWAP2 SWAP1 POP JUMP JUMPDEST PUSH0 PUSH2 0xC71 DUP3 PUSH2 0xC0C JUMP JUMPDEST PUSH2 0xC7B DUP2 DUP6 PUSH2 0xC16 JUMP JUMPDEST SWAP4 POP PUSH2 0xC86 DUP4 PUSH2 0xC26 JUMP JUMPDEST DUP1 PUSH0 JUMPDEST DUP4 DUP2 LT ISZERO PUSH2 0xCB6 JUMPI DUP2 MLOAD PUSH2 0xC9D DUP9 DUP3 PUSH2 0xC44 JUMP JUMPDEST SWAP8 POP PUSH2 0xCA8 DUP4 PUSH2 0xC5B JUMP JUMPDEST SWAP3 POP POP PUSH1 0x1 DUP2 ADD SWAP1 POP PUSH2 0xC89 JUMP JUMPDEST POP DUP6 SWAP4 POP POP POP POP SWAP3 SWAP2 POP POP JUMP JUMPDEST PUSH0 PUSH1 0x20 DUP3 ADD SWAP1 POP DUP2 DUP2 SUB PUSH0 DUP4 ADD MSTORE PUSH2 0xCDB DUP2 DUP5 PUSH2 0xC67 JUMP JUMPDEST SWAP1 POP SWAP3 SWAP2 POP POP JUMP JUMPDEST PUSH2 0xCEC DUP2 PUSH2 0xAF1 JUMP JUMPDEST DUP2 EQ PUSH2 0xCF6 JUMPI PUSH0 DUP1 REVERT JUMPDEST POP JUMP JUMPDEST PUSH0 DUP2 CALLDATALOAD SWAP1 POP PUSH2 0xD07 DUP2 PUSH2 0xCE3 JUMP JUMPDEST SWAP3 SWAP2 POP POP JUMP JUMPDEST PUSH0 PUSH1 0x20 DUP3 DUP5 SUB SLT ISZERO PUSH2 0xD22 JUMPI PUSH2 0xD21 PUSH2 0xA5D JUMP JUMPDEST JUMPDEST PUSH0 PUSH2 0xD2F DUP5 DUP3 DUP6 ADD PUSH2 0xCF9 JUMP JUMPDEST SWAP2 POP POP SWAP3 SWAP2 POP POP JUMP JUMPDEST PUSH0 PUSH1 0x40 DUP3 ADD SWAP1 POP PUSH2 0xD4B PUSH0 DUP4 ADD DUP6 PUSH2 0xB8C JUMP JUMPDEST PUSH2 0xD58 PUSH1 0x20 DUP4 ADD DUP5 PUSH2 0xAC3 JUMP JUMPDEST SWAP4 SWAP3 POP POP POP JUMP JUMPDEST PUSH0 DUP1 REVERT JUMPDEST PUSH0 DUP1 REVERT JUMPDEST PUSH32 0x4E487B7100000000000000000000000000000000000000000000000000000000 PUSH0 MSTORE PUSH1 0x41 PUSH1 0x4 MSTORE PUSH1 0x24 PUSH0 REVERT JUMPDEST PUSH2 0xD9D DUP3 PUSH2 0xB39 JUMP JUMPDEST DUP2 ADD DUP2 DUP2 LT PUSH8 0xFFFFFFFFFFFFFFFF DUP3 GT OR ISZERO PUSH2 0xDBC JUMPI PUSH2 0xDBB PUSH2 0xD67 JUMP JUMPDEST JUMPDEST DUP1 PUSH1 0x40 MSTORE POP POP POP JUMP JUMPDEST PUSH0 PUSH2 0xDCE PUSH2 0xA54 JUMP JUMPDEST SWAP1 POP PUSH2 0xDDA DUP3 DUP3 PUSH2 0xD94 JUMP JUMPDEST SWAP2 SWAP1 POP JUMP JUMPDEST PUSH0 PUSH8 0xFFFFFFFFFFFFFFFF DUP3 GT ISZERO PUSH2 0xDF9 JUMPI PUSH2 0xDF8 PUSH2 0xD67 JUMP JUMPDEST JUMPDEST PUSH2 0xE02 DUP3 PUSH2 0xB39 JUMP JUMPDEST SWAP1 POP PUSH1 0x20 DUP2 ADD SWAP1 POP SWAP2 SWAP1 POP JUMP JUMPDEST DUP3 DUP2 DUP4 CALLDATACOPY PUSH0 DUP4 DUP4 ADD MSTORE POP POP POP JUMP JUMPDEST PUSH0 PUSH2 0xE2F PUSH2 0xE2A DUP5 PUSH2 0xDDF JUMP JUMPDEST PUSH2 0xDC5 JUMP JUMPDEST SWAP1 POP DUP3 DUP2 MSTORE PUSH1 0x20 DUP2 ADD DUP5 DUP5 DUP5 ADD GT ISZERO PUSH2 0xE4B JUMPI PUSH2 0xE4A PUSH2 0xD63 JUMP JUMPDEST JUMPDEST PUSH2 0xE56 DUP5 DUP3 DUP6 PUSH2 0xE0F JUMP JUMPDEST POP SWAP4 SWAP3 POP POP POP JUMP JUMPDEST PUSH0 DUP3 PUSH1 0x1F DUP4 ADD SLT PUSH2 0xE72 JUMPI PUSH2 0xE71 PUSH2 0xD5F JUMP JUMPDEST JUMPDEST DUP2 CALLDATALOAD PUSH2 0xE82 DUP5 DUP3 PUSH1 0x20 DUP7 ADD PUSH2 0xE1D JUMP JUMPDEST SWAP2 POP POP SWAP3 SWAP2 POP POP JUMP JUMPDEST PUSH0 PUSH1 0x20 DUP3 DUP5 SUB SLT ISZERO PUSH2 0xEA0 JUMPI PUSH2 0xE9F PUSH2 0xA5D JUMP JUMPDEST JUMPDEST PUSH0 DUP3 ADD CALLDATALOAD PUSH8 0xFFFFFFFFFFFFFFFF DUP2 GT ISZERO PUSH2 0xEBD JUMPI PUSH2 0xEBC PUSH2 0xA61 JUMP JUMPDEST JUMPDEST PUSH2 0xEC9 DUP5 DUP3 DUP6 ADD PUSH2 0xE5E JUMP JUMPDEST SWAP2 POP POP SWAP3 SWAP2 POP POP JUMP JUMPDEST PUSH0 PUSH1 0x20 DUP3 ADD SWAP1 POP PUSH2 0xEE5 PUSH0 DUP4 ADD DUP5 PUSH2 0xAC3 JUMP JUMPDEST SWAP3 SWAP2 POP POP JUMP JUMPDEST PUSH32 0x50726F706F73616C206D757374206265206F70656E2E00000000000000000000 PUSH0 DUP3 ADD MSTORE POP JUMP JUMPDEST PUSH0 PUSH2 0xF1F PUSH1 0x16 DUP4 PUSH2 0xB1B JUMP JUMPDEST SWAP2 POP PUSH2 0xF2A DUP3 PUSH2 0xEEB JUMP JUMPDEST PUSH1 0x20 DUP3 ADD SWAP1 POP SWAP2 SWAP1 POP JUMP JUMPDEST PUSH0 PUSH1 0x20 DUP3 ADD SWAP1 POP DUP2 DUP2 SUB PUSH0 DUP4 ADD MSTORE PUSH2 0xF4C DUP2 PUSH2 0xF13 JUMP JUMPDEST SWAP1 POP SWAP2 SWAP1 POP JUMP JUMPDEST PUSH32 0x416C726561647920766F7465642E000000000000000000000000000000000000 PUSH0 DUP3 ADD MSTORE POP JUMP JUMPDEST PUSH0 PUSH2 0xF87 PUSH1 0xE DUP4 PUSH2 0xB1B JUMP JUMPDEST SWAP2 POP PUSH2 0xF92 DUP3 PUSH2 0xF53 JUMP JUMPDEST PUSH1 0x20 DUP3 ADD SWAP1 POP SWAP2 SWAP1 POP JUMP JUMPDEST PUSH0 PUSH1 0x20 DUP3 ADD SWAP1 POP DUP2 DUP2 SUB PUSH0 DUP4 ADD MSTORE PUSH2 0xFB4 DUP2 PUSH2 0xF7B JUMP JUMPDEST SWAP1 POP SWAP2 SWAP1 POP JUMP JUMPDEST PUSH32 0x4E487B7100000000000000000000000000000000000000000000000000000000 PUSH0 MSTORE PUSH1 0x11 PUSH1 0x4 MSTORE PUSH1 0x24 PUSH0 REVERT JUMPDEST PUSH0 PUSH2 0xFF2 DUP3 PUSH2 0xA65 JUMP JUMPDEST SWAP2 POP PUSH32 0xFFFFFFFFFFFFFFFFFFFFFFFFFFFFFFFFFFFFFFFFFFFFFFFFFFFFFFFFFFFFFFFF DUP3 SUB PUSH2 0x1024 JUMPI PUSH2 0x1023 PUSH2 0xFBB JUMP JUMPDEST JUMPDEST PUSH1 0x1 DUP3 ADD SWAP1 POP SWAP2 SWAP1 POP JUMP JUMPDEST PUSH32 0x4E487B7100000000000000000000000000000000000000000000000000000000 PUSH0 MSTORE PUSH1 0x22 PUSH1 0x4 MSTORE PUSH1 0x24 PUSH0 REVERT JUMPDEST PUSH0 PUSH1 0x2 DUP3 DIV SWAP1 POP PUSH1 0x1 DUP3 AND DUP1 PUSH2 0x1073 JUMPI PUSH1 0x7F DUP3 AND SWAP2 POP JUMPDEST PUSH1 0x20 DUP3 LT DUP2 SUB PUSH2 0x1086 JUMPI PUSH2 0x1085 PUSH2 0x102F JUMP JUMPDEST JUMPDEST POP SWAP2 SWAP1 POP JUMP JUMPDEST PUSH32 0x596F7520617265206E6F742074686520636F6E7472616374206F776E65722E00 PUSH0 DUP3 ADD MSTORE POP JUMP JUMPDEST PUSH0 PUSH2 0x10C0 PUSH1 0x1F DUP4 PUSH2 0xB1B JUMP JUMPDEST SWAP2 POP PUSH2 0x10CB DUP3 PUSH2 0x108C JUMP JUMPDEST PUSH1 0x20 DUP3 ADD SWAP1 POP SWAP2 SWAP1 POP JUMP JUMPDEST PUSH0 PUSH1 0x20 DUP3 ADD SWAP1 POP DUP2 DUP2 SUB PUSH0 DUP4 ADD MSTORE PUSH2 0x10ED DUP2 PUSH2 0x10B4 JUMP JUMPDEST SWAP1 POP SWAP2 SWAP1 POP JUMP JUMPDEST PUSH32 0x4E487B7100000000000000000000000000000000000000000000000000000000 PUSH0 MSTORE PUSH1 0x32 PUSH1 0x4 MSTORE PUSH1 0x24 PUSH0 REVERT JUMPDEST PUSH32 0x4E487B7100000000000000000000000000000000000000000000000000000000 PUSH0 MSTORE PUSH1 0x31 PUSH1 0x4 MSTORE PUSH1 0x24 PUSH0 REVERT JUMPDEST PUSH0 PUSH1 0x40 DUP3 ADD SWAP1 POP DUP2 DUP2 SUB PUSH0 DUP4 ADD MSTORE PUSH2 0x1166 DUP2 DUP6 PUSH2 0xC67 JUMP JUMPDEST SWAP1 POP PUSH2 0x1175 PUSH1 0x20 DUP4 ADD DUP5 PUSH2 0xAC3 JUMP JUMPDEST SWAP4 SWAP3 POP POP POP JUMP JUMPDEST PUSH0 DUP2 SWAP1 POP DUP2 PUSH0 MSTORE PUSH1 0x20 PUSH0 KECCAK256 SWAP1 POP SWAP2 SWAP1 POP JUMP JUMPDEST PUSH0 PUSH1 0x20 PUSH1 0x1F DUP4 ADD DIV SWAP1 POP SWAP2 SWAP1 POP JUMP JUMPDEST PUSH0 DUP3 DUP3 SHL SWAP1 POP SWAP3 SWAP2 POP POP JUMP JUMPDEST PUSH0 PUSH1 0x8 DUP4 MUL PUSH2 0x11D8 PUSH32 0xFFFFFFFFFFFFFFFFFFFFFFFFFFFFFFFFFFFFFFFFFFFFFFFFFFFFFFFFFFFFFFFF DUP3 PUSH2 0x119D JUMP JUMPDEST PUSH2 0x11E2 DUP7 DUP4 PUSH2 0x119D JUMP JUMPDEST SWAP6 POP DUP1 NOT DUP5 AND SWAP4 POP DUP1 DUP7 AND DUP5 OR SWAP3 POP POP POP SWAP4 SWAP3 POP POP POP JUMP JUMPDEST PUSH0 DUP2 SWAP1 POP SWAP2 SWAP1 POP JUMP JUMPDEST PUSH0 PUSH2 0x121D PUSH2 0x1218 PUSH2 0x1213 DUP5 PUSH2 0xA65 JUMP JUMPDEST PUSH2 0x11FA JUMP JUMPDEST PUSH2 0xA65 JUMP JUMPDEST SWAP1 POP SWAP2 SWAP1 POP JUMP JUMPDEST PUSH0 DUP2 SWAP1 POP SWAP2 SWAP1 POP JUMP JUMPDEST PUSH2 0x1236 DUP4 PUSH2 0x1203 JUMP JUMPDEST PUSH2 0x124A PUSH2 0x1242 DUP3 PUSH2 0x1224 JUMP JUMPDEST DUP5 DUP5 SLOAD PUSH2 0x11A9 JUMP JUMPDEST DUP3 SSTORE POP POP POP POP JUMP JUMPDEST PUSH0 SWAP1 JUMP JUMPDEST PUSH2 0x125E PUSH2 0x1252 JUMP JUMPDEST PUSH2 0x1269 DUP2 DUP5 DUP5 PUSH2 0x122D JUMP JUMPDEST POP POP POP JUMP JUMPDEST JUMPDEST DUP2 DUP2 LT ISZERO PUSH2 0x128C JUMPI PUSH2 0x1281 PUSH0 DUP3 PUSH2 0x1256 JUMP JUMPDEST PUSH1 0x1 DUP2 ADD SWAP1 POP PUSH2 0x126F JUMP JUMPDEST POP POP JUMP JUMPDEST PUSH1 0x1F DUP3 GT ISZERO PUSH2 0x12D1 JUMPI PUSH2 0x12A2 DUP2 PUSH2 0x117C JUMP JUMPDEST PUSH2 0x12AB DUP5 PUSH2 0x118E JUMP JUMPDEST DUP2 ADD PUSH1 0x20 DUP6 LT ISZERO PUSH2 0x12BA JUMPI DUP2 SWAP1 POP JUMPDEST PUSH2 0x12CE PUSH2 0x12C6 DUP6 PUSH2 0x118E JUMP JUMPDEST DUP4 ADD DUP3 PUSH2 0x126E JUMP JUMPDEST POP POP JUMPDEST POP POP POP JUMP JUMPDEST PUSH0 DUP3 DUP3 SHR SWAP1 POP SWAP3 SWAP2 POP POP JUMP JUMPDEST PUSH0 PUSH2 0x12F1 PUSH0 NOT DUP5 PUSH1 0x8 MUL PUSH2 0x12D6 JUMP JUMPDEST NOT DUP1 DUP4 AND SWAP2 POP POP SWAP3 SWAP2 POP POP JUMP JUMPDEST PUSH0 PUSH2 0x1309 DUP4 DUP4 PUSH2 0x12E2 JUMP JUMPDEST SWAP2 POP DUP3 PUSH1 0x2 MUL DUP3 OR SWAP1 POP SWAP3 SWAP2 POP POP JUMP JUMPDEST PUSH2 0x1322 DUP3 PUSH2 0xB11 JUMP JUMPDEST PUSH8 0xFFFFFFFFFFFFFFFF DUP2 GT ISZERO PUSH2 0x133B JUMPI PUSH2 0x133A PUSH2 0xD67 JUMP JUMPDEST JUMPDEST PUSH2 0x1345 DUP3 SLOAD PUSH2 0x105C JUMP JUMPDEST PUSH2 0x1350 DUP3 DUP3 DUP6 PUSH2 0x1290 JUMP JUMPDEST PUSH0 PUSH1 0x20 SWAP1 POP PUSH1 0x1F DUP4 GT PUSH1 0x1 DUP2 EQ PUSH2 0x1381 JUMPI PUSH0 DUP5 ISZERO PUSH2 0x136F JUMPI DUP3 DUP8 ADD MLOAD SWAP1 POP JUMPDEST PUSH2 0x1379 DUP6 DUP3 PUSH2 0x12FE JUMP JUMPDEST DUP7 SSTORE POP PUSH2 0x13E0 JUMP JUMPDEST PUSH1 0x1F NOT DUP5 AND PUSH2 0x138F DUP7 PUSH2 0x117C JUMP JUMPDEST PUSH0 JUMPDEST DUP3 DUP2 LT ISZERO PUSH2 0x13B6 JUMPI DUP5 DUP10 ADD MLOAD DUP3 SSTORE PUSH1 0x1 DUP3 ADD SWAP2 POP PUSH1 0x20 DUP6 ADD SWAP5 POP PUSH1 0x20 DUP2 ADD SWAP1 POP PUSH2 0x1391 JUMP JUMPDEST DUP7 DUP4 LT ISZERO PUSH2 0x13D3 JUMPI DUP5 DUP10 ADD MLOAD PUSH2 0x13CF PUSH1 0x1F DUP10 AND DUP3 PUSH2 0x12E2 JUMP JUMPDEST DUP4 SSTORE POP JUMPDEST PUSH1 0x1 PUSH1 0x2 DUP9 MUL ADD DUP9 SSTORE POP POP POP JUMPDEST POP POP POP POP POP POP JUMP JUMPDEST PUSH0 PUSH1 0x60 DUP3 ADD SWAP1 POP PUSH2 0x13FB PUSH0 DUP4 ADD DUP7 PUSH2 0xAC3 JUMP JUMPDEST PUSH2 0x1408 PUSH1 0x20 DUP4 ADD DUP6 PUSH2 0xB02 JUMP JUMPDEST DUP2 DUP2 SUB PUSH1 0x40 DUP4 ADD MSTORE PUSH2 0x141A DUP2 DUP5 PUSH2 0xB49 JUMP JUMPDEST SWAP1 POP SWAP5 SWAP4 POP POP POP POP JUMP INVALID LOG2 PUSH5 0x6970667358 0x22 SLT KECCAK256 PUSH31 0x4FD461657657547F9F49A11300A8B2D4F9295409381F328A6C54503C363E5D PUSH5 0x736F6C6343 STOP ADDMOD BYTE STOP CALLER "
				},
				"gasEstimates": {
					"creation": {
						"codeDepositCost": "1042000",
						"executionCost": "30356",
						"totalCost": "1072356"
					},
					"external": {
						"closeProposals()": "infinite",
						"owner()": "2553",
						"proposalCount()": "2469",
						"proposals(uint256)": "infinite",
						"propose(string)": "infinite",
						"vote(uint256)": "infinite",
						"voterAddresses(uint256)": "5010",
						"voters(address)": "5067"
					}
				},
				"methodIdentifiers": {
					"closeProposals()": "8f73f9a0",
					"owner()": "8da5cb5b",
					"proposalCount()": "da35c664",
					"proposals(uint256)": "013cf08b",
					"propose(string)": "aa98df39",
					"vote(uint256)": "0121b93f",
					"voterAddresses(uint256)": "dd0e2373",
					"voters(address)": "a3ec138d"
				}
			},
			"storageLayout": {
				"storage": [
					{
						"astId": 22,
						"contract": "contracts/dao.sol:Dao",
						"label": "proposals",
						"offset": 0,
						"slot": "0",
						"type": "t_mapping(t_uint256,t_struct(Proposal)17_storage)"
					},
					{
						"astId": 27,
						"contract": "contracts/dao.sol:Dao",
						"label": "voters",
						"offset": 0,
						"slot": "1",
						"type": "t_mapping(t_address,t_struct(Voter)6_storage)"
					},
					{
						"astId": 29,
						"contract": "contracts/dao.sol:Dao",
						"label": "proposalCount",
						"offset": 0,
						"slot": "2",
						"type": "t_uint256"
					},
					{
						"astId": 31,
						"contract": "contracts/dao.sol:Dao",
						"label": "owner",
						"offset": 0,
						"slot": "3",
						"type": "t_address"
					},
					{
						"astId": 34,
						"contract": "contracts/dao.sol:Dao",
						"label": "voterAddresses",
						"offset": 0,
						"slot": "4",
						"type": "t_array(t_address)dyn_storage"
					}
				],
				"types": {
					"t_address": {
						"encoding": "inplace",
						"label": "address",
						"numberOfBytes": "20"
					},
					"t_array(t_address)dyn_storage": {
						"base": "t_address",
						"encoding": "dynamic_array",
						"label": "address[]",
						"numberOfBytes": "32"
					},
					"t_bool": {
						"encoding": "inplace",
						"label": "bool",
						"numberOfBytes": "1"
					},
					"t_mapping(t_address,t_struct(Voter)6_storage)": {
						"encoding": "mapping",
						"key": "t_address",
						"label": "mapping(address => struct Dao.Voter)",
						"numberOfBytes": "32",
						"value": "t_struct(Voter)6_storage"
					},
					"t_mapping(t_uint256,t_struct(Proposal)17_storage)": {
						"encoding": "mapping",
						"key": "t_uint256",
						"label": "mapping(uint256 => struct Dao.Proposal)",
						"numberOfBytes": "32",
						"value": "t_struct(Proposal)17_storage"
					},
					"t_string_storage": {
						"encoding": "bytes",
						"label": "string",
						"numberOfBytes": "32"
					},
					"t_struct(Proposal)17_storage": {
						"encoding": "inplace",
						"label": "struct Dao.Proposal",
						"members": [
							{
								"astId": 8,
								"contract": "contracts/dao.sol:Dao",
								"label": "id",
								"offset": 0,
								"slot": "0",
								"type": "t_uint256"
							},
							{
								"astId": 10,
								"contract": "contracts/dao.sol:Dao",
								"label": "proposer",
								"offset": 0,
								"slot": "1",
								"type": "t_address"
							},
							{
								"astId": 12,
								"contract": "contracts/dao.sol:Dao",
								"label": "description",
								"offset": 0,
								"slot": "2",
								"type": "t_string_storage"
							},
							{
								"astId": 14,
								"contract": "contracts/dao.sol:Dao",
								"label": "voteCount",
								"offset": 0,
								"slot": "3",
								"type": "t_uint256"
							},
							{
								"astId": 16,
								"contract": "contracts/dao.sol:Dao",
								"label": "open",
								"offset": 0,
								"slot": "4",
								"type": "t_bool"
							}
						],
						"numberOfBytes": "160"
					},
					"t_struct(Voter)6_storage": {
						"encoding": "inplace",
						"label": "struct Dao.Voter",
						"members": [
							{
								"astId": 3,
								"contract": "contracts/dao.sol:Dao",
								"label": "voted",
								"offset": 0,
								"slot": "0",
								"type": "t_bool"
							},
							{
								"astId": 5,
								"contract": "contracts/dao.sol:Dao",
								"label": "vote",
								"offset": 0,
								"slot": "1",
								"type": "t_uint256"
							}
						],
						"numberOfBytes": "64"
					},
					"t_uint256": {
						"encoding": "inplace",
						"label": "uint256",
						"numberOfBytes": "32"
					}
				}
			},
			"userdoc": {
				"kind": "user",
				"methods": {},
				"version": 1
			}
		}
	}
}