{
	"data": {
		"bytecode": {
			"linkReferences": {},
			"object": "6080604052348015600e575f80fd5b503360035f6101000a81548173ffffffffffffffffffffffffffffffffffffffff021916908373ffffffffffffffffffffffffffffffffffffffff1602179055505f60028190555061145a806100635f395ff3fe608060405234801561000f575f80fd5b5060043610610086575f3560e01c8063a3ec138d11610059578063a3ec138d14610116578063aa98df3914610147578063da35c66414610163578063dd0e23731461018157610086565b80630121b93f1461008a578063013cf08b146100a65780638da5cb5b146100da5780638f73f9a0146100f8575b5f80fd5b6100a4600480360381019061009f9190610a98565b6101b1565b005b6100c060048036038101906100bb9190610a98565b610357565b6040516100d1959493929190610b9b565b60405180910390f35b6100e2610439565b6040516100ef9190610bf3565b60405180910390f35b61010061045e565b60405161010d9190610cc3565b60405180910390f35b610130600480360381019061012b9190610d0d565b6108b0565b60405161013e929190610d38565b60405180910390f35b610161600480360381019061015c9190610e8b565b6108dc565b005b61016b610a13565b6040516101789190610ed2565b60405180910390f35b61019b60048036038101906101969190610a98565b610a19565b6040516101a89190610bf3565b60405180910390f35b600115155f808381526020019081526020015f206004015f9054906101000a900460ff16151514610217576040517f08c379a000000000000000000000000000000000000000000000000000000000815260040161020e90610f35565b60405180910390fd5b5f60015f3373ffffffffffffffffffffffffffffffffffffffff1673ffffffffffffffffffffffffffffffffffffffff1681526020019081526020015f209050805f015f9054906101000a900460ff16156102a7576040517f08c379a000000000000000000000000000000000000000000000000000000000815260040161029e90610f9d565b60405180910390fd5b6001815f015f6101000a81548160ff0219169083151502179055508181600101819055505f808381526020019081526020015f206003015f8154809291906102ee90610fe8565b9190505550600433908060018154018082558091505060019003905f5260205f20015f9091909190916101000a81548173ffffffffffffffffffffffffffffffffffffffff021916908373ffffffffffffffffffffffffffffffffffffffff1602179055505050565b5f602052805f5260405f205f91509050805f015490806001015f9054906101000a900473ffffffffffffffffffffffffffffffffffffffff16908060020180546103a09061105c565b80601f01602080910402602001604051908101604052809291908181526020018280546103cc9061105c565b80156104175780601f106103ee57610100808354040283529160200191610417565b820191905f5260205f20905b8154815290600101906020018083116103fa57829003601f168201915b505050505090806003015490806004015f9054906101000a900460ff16905085565b60035f9054906101000a900473ffffffffffffffffffffffffffffffffffffffff1681565b60603373ffffffffffffffffffffffffffffffffffffffff1660035f9054906101000a900473ffffffffffffffffffffffffffffffffffffffff1673ffffffffffffffffffffffffffffffffffffffff16146104ef576040517f08c379a00000000000000000000000000000000000000000000000000000000081526004016104e6906110d6565b60405180910390fd5b5f8060025467ffffffffffffffff81111561050d5761050c610d67565b5b60405190808252806020026020018201604052801561053b5781602001602082028036833780820191505090505b5090505f805b60025481101561064a575f808281526020019081526020015f206004015f9054906101000a900460ff161561063d575f805f8381526020019081526020015f206004015f6101000a81548160ff021916908315150217905550835f808381526020019081526020015f206003015411156105f4575f808281526020019081526020015f206003015493506001915080835f815181106105e3576105e26110f4565b5b60200260200101818152505061063c565b835f808381526020019081526020015f20600301540361063b578083838061061b90610fe8565b94508151811061062e5761062d6110f4565b5b6020026020010181815250505b5b5b8080600101915050610541565b505f8167ffffffffffffffff81111561066657610665610d67565b5b6040519080825280602002602001820160405280156106945781602001602082028036833780820191505090505b5090505f5b828110156106e8578381815181106106b4576106b36110f4565b5b60200260200101518282815181106106cf576106ce6110f4565b5b6020026020010181815250508080600101915050610699565b505f5b600480549050811015610816575f60015f600484815481106107105761070f6110f4565b5b905f5260205f20015f9054906101000a900473ffffffffffffffffffffffffffffffffffffffff1673ffffffffffffffffffffffffffffffffffffffff1673ffffffffffffffffffffffffffffffffffffffff1681526020019081526020015f205f015f6101000a81548160ff0219169083151502179055505f60015f600484815481106107a1576107a06110f4565b5b905f5260205f20015f9054906101000a900473ffffffffffffffffffffffffffffffffffffffff1673ffffffffffffffffffffffffffffffffffffffff1673ffffffffffffffffffffffffffffffffffffffff1681526020019081526020015f206001018190555080806001019150506106eb565b505b5f6004805490501461086d57600480548061083657610835611121565b5b600190038181905f5260205f20015f6101000a81549073ffffffffffffffffffffffffffffffffffffffff02191690559055610818565b7fda19a91227bf044df0e2a105ba158941c8e9b15fed2870e5ddbd47450c2983eb818560405161089e92919061114e565b60405180910390a18094505050505090565b6001602052805f5260405f205f91509050805f015f9054906101000a900460ff16908060010154905082565b6040518060a0016040528060025481526020013373ffffffffffffffffffffffffffffffffffffffff1681526020018281526020015f8152602001600115158152505f8060025f81548092919061093290610fe8565b9190505581526020019081526020015f205f820151815f01556020820151816001015f6101000a81548173ffffffffffffffffffffffffffffffffffffffff021916908373ffffffffffffffffffffffffffffffffffffffff16021790555060408201518160020190816109a69190611319565b50606082015181600301556080820151816004015f6101000a81548160ff0219169083151502179055509050507f7585f467599d0f008985f231af99293be388626ac16ca59505c2f8f88969cd636002543383604051610a08939291906113e8565b60405180910390a150565b60025481565b60048181548110610a28575f80fd5b905f5260205f20015f915054906101000a900473ffffffffffffffffffffffffffffffffffffffff1681565b5f604051905090565b5f80fd5b5f80fd5b5f819050919050565b610a7781610a65565b8114610a81575f80fd5b50565b5f81359050610a9281610a6e565b92915050565b5f60208284031215610aad57610aac610a5d565b5b5f610aba84828501610a84565b91505092915050565b610acc81610a65565b82525050565b5f73ffffffffffffffffffffffffffffffffffffffff82169050919050565b5f610afb82610ad2565b9050919050565b610b0b81610af1565b82525050565b5f81519050919050565b5f82825260208201905092915050565b8281835e5f83830152505050565b5f601f19601f8301169050919050565b5f610b5382610b11565b610b5d8185610b1b565b9350610b6d818560208601610b2b565b610b7681610b39565b840191505092915050565b5f8115159050919050565b610b9581610b81565b82525050565b5f60a082019050610bae5f830188610ac3565b610bbb6020830187610b02565b8181036040830152610bcd8186610b49565b9050610bdc6060830185610ac3565b610be96080830184610b8c565b9695505050505050565b5f602082019050610c065f830184610b02565b92915050565b5f81519050919050565b5f82825260208201905092915050565b5f819050602082019050919050565b610c3e81610a65565b82525050565b5f610c4f8383610c35565b60208301905092915050565b5f602082019050919050565b5f610c7182610c0c565b610c7b8185610c16565b9350610c8683610c26565b805f5b83811015610cb6578151610c9d8882610c44565b9750610ca883610c5b565b925050600181019050610c89565b5085935050505092915050565b5f6020820190508181035f830152610cdb8184610c67565b905092915050565b610cec81610af1565b8114610cf6575f80fd5b50565b5f81359050610d0781610ce3565b92915050565b5f60208284031215610d2257610d21610a5d565b5b5f610d2f84828501610cf9565b91505092915050565b5f604082019050610d4b5f830185610b8c565b610d586020830184610ac3565b9392505050565b5f80fd5b5f80fd5b7f4e487b71000000000000000000000000000000000000000000000000000000005f52604160045260245ffd5b610d9d82610b39565b810181811067ffffffffffffffff82111715610dbc57610dbb610d67565b5b80604052505050565b5f610dce610a54565b9050610dda8282610d94565b919050565b5f67ffffffffffffffff821115610df957610df8610d67565b5b610e0282610b39565b9050602081019050919050565b828183375f83830152505050565b5f610e2f610e2a84610ddf565b610dc5565b905082815260208101848484011115610e4b57610e4a610d63565b5b610e56848285610e0f565b509392505050565b5f82601f830112610e7257610e71610d5f565b5b8135610e82848260208601610e1d565b91505092915050565b5f60208284031215610ea057610e9f610a5d565b5b5f82013567ffffffffffffffff811115610ebd57610ebc610a61565b5b610ec984828501610e5e565b91505092915050565b5f602082019050610ee55f830184610ac3565b92915050565b7f50726f706f73616c206d757374206265206f70656e2e000000000000000000005f82015250565b5f610f1f601683610b1b565b9150610f2a82610eeb565b602082019050919050565b5f6020820190508181035f830152610f4c81610f13565b9050919050565b7f416c726561647920766f7465642e0000000000000000000000000000000000005f82015250565b5f610f87600e83610b1b565b9150610f9282610f53565b602082019050919050565b5f6020820190508181035f830152610fb481610f7b565b9050919050565b7f4e487b71000000000000000000000000000000000000000000000000000000005f52601160045260245ffd5b5f610ff282610a65565b91507fffffffffffffffffffffffffffffffffffffffffffffffffffffffffffffffff820361102457611023610fbb565b5b600182019050919050565b7f4e487b71000000000000000000000000000000000000000000000000000000005f52602260045260245ffd5b5f600282049050600182168061107357607f821691505b6020821081036110865761108561102f565b5b50919050565b7f596f7520617265206e6f742074686520636f6e7472616374206f776e65722e005f82015250565b5f6110c0601f83610b1b565b91506110cb8261108c565b602082019050919050565b5f6020820190508181035f8301526110ed816110b4565b9050919050565b7f4e487b71000000000000000000000000000000000000000000000000000000005f52603260045260245ffd5b7f4e487b71000000000000000000000000000000000000000000000000000000005f52603160045260245ffd5b5f6040820190508181035f8301526111668185610c67565b90506111756020830184610ac3565b9392505050565b5f819050815f5260205f209050919050565b5f6020601f8301049050919050565b5f82821b905092915050565b5f600883026111d87fffffffffffffffffffffffffffffffffffffffffffffffffffffffffffffffff8261119d565b6111e2868361119d565b95508019841693508086168417925050509392505050565b5f819050919050565b5f61121d61121861121384610a65565b6111fa565b610a65565b9050919050565b5f819050919050565b61123683611203565b61124a61124282611224565b8484546111a9565b825550505050565b5f90565b61125e611252565b61126981848461122d565b505050565b5b8181101561128c576112815f82611256565b60018101905061126f565b5050565b601f8211156112d1576112a28161117c565b6112ab8461118e565b810160208510156112ba578190505b6112ce6112c68561118e565b83018261126e565b50505b505050565b5f82821c905092915050565b5f6112f15f19846008026112d6565b1980831691505092915050565b5f61130983836112e2565b9150826002028217905092915050565b61132282610b11565b67ffffffffffffffff81111561133b5761133a610d67565b5b611345825461105c565b611350828285611290565b5f60209050601f831160018114611381575f841561136f578287015190505b61137985826112fe565b8655506113e0565b601f19841661138f8661117c565b5f5b828110156113b657848901518255600182019150602085019450602081019050611391565b868310156113d357848901516113cf601f8916826112e2565b8355505b6001600288020188555050505b505050505050565b5f6060820190506113fb5f830186610ac3565b6114086020830185610b02565b818103604083015261141a8184610b49565b905094935050505056fea26469706673582212207e4fd461657657547f9f49a11300a8b2d4f9295409381f328a6c54503c363e5d64736f6c634300081a0033",
			"opcodes": "PUSH1 0x80 PUSH1 0x40 MSTORE CALLVALUE DUP1 ISZERO PUSH1 0xE JUMPI PUSH0 DUP1 REVERT JUMPDEST POP CALLER PUSH1 0x3 PUSH0 PUSH2 0x100 EXP DUP2 SLOAD DUP2 PUSH20 0xFFFFFFFFFFFFFFFFFFFFFFFFFFFFFFFFFFFFFFFF MUL NOT AND SWAP1 DUP4 PUSH20 0xFFFFFFFFFFFFFFFFFFFFFFFFFFFFFFFFFFFFFFFF AND MUL OR SWAP1 SSTORE POP PUSH0 PUSH1 0x2 DUP2 SWAP1 SSTORE POP PUSH2 0x145A DUP1 PUSH2 0x63 PUSH0 CODECOPY PUSH0 RETURN INVALID PUSH1 0x80 PUSH1 0x40 MSTORE CALLVALUE DUP1 ISZERO PUSH2 0xF JUMPI PUSH0 DUP1 REVERT JUMPDEST POP PUSH1 0x4 CALLDATASIZE LT PUSH2 0x86 JUMPI PUSH0 CALLDATALOAD PUSH1 0xE0 SHR DUP1 PUSH4 0xA3EC138D GT PUSH2 0x59 JUMPI DUP1 PUSH4 0xA3EC138D EQ PUSH2 0x116 JUMPI DUP1 PUSH4 0xAA98DF39 EQ PUSH2 0x147 JUMPI DUP1 PUSH4 0xDA35C664 EQ PUSH2 0x163 JUMPI DUP1 PUSH4 0xDD0E2373 EQ PUSH2 0x181 JUMPI PUSH2 0x86 JUMP JUMPDEST DUP1 PUSH4 0x121B93F EQ PUSH2 0x8A JUMPI DUP1 PUSH4 0x13CF08B EQ PUSH2 0xA6 JUMPI DUP1 PUSH4 0x8DA5CB5B EQ PUSH2 0xDA JUMPI DUP1 PUSH4 0x8F73F9A0 EQ PUSH2 0xF8 JUMPI JUMPDEST PUSH0 DUP1 REVERT JUMPDEST PUSH2 0xA4 PUSH1 0x4 DUP1 CALLDATASIZE SUB DUP2 ADD SWAP1 PUSH2 0x9F SWAP2 SWAP1 PUSH2 0xA98 JUMP JUMPDEST PUSH2 0x1B1 JUMP JUMPDEST STOP JUMPDEST PUSH2 0xC0 PUSH1 0x4 DUP1 CALLDATASIZE SUB DUP2 ADD SWAP1 PUSH2 0xBB SWAP2 SWAP1 PUSH2 0xA98 JUMP JUMPDEST PUSH2 0x357 JUMP JUMPDEST PUSH1 0x40 MLOAD PUSH2 0xD1 SWAP6 SWAP5 SWAP4 SWAP3 SWAP2 SWAP1 PUSH2 0xB9B JUMP JUMPDEST PUSH1 0x40 MLOAD DUP1 SWAP2 SUB SWAP1 RETURN JUMPDEST PUSH2 0xE2 PUSH2 0x439 JUMP JUMPDEST PUSH1 0x40 MLOAD PUSH2 0xEF SWAP2 SWAP1 PUSH2 0xBF3 JUMP JUMPDEST PUSH1 0x40 MLOAD DUP1 SWAP2 SUB SWAP1 RETURN JUMPDEST PUSH2 0x100 PUSH2 0x45E JUMP JUMPDEST PUSH1 0x40 MLOAD PUSH2 0x10D SWAP2 SWAP1 PUSH2 0xCC3 JUMP JUMPDEST PUSH1 0x40 MLOAD DUP1 SWAP2 SUB SWAP1 RETURN JUMPDEST PUSH2 0x130 PUSH1 0x4 DUP1 CALLDATASIZE SUB DUP2 ADD SWAP1 PUSH2 0x12B SWAP2 SWAP1 PUSH2 0xD0D JUMP JUMPDEST PUSH2 0x8B0 JUMP JUMPDEST PUSH1 0x40 MLOAD PUSH2 0x13E SWAP3 SWAP2 SWAP1 PUSH2 0xD38 JUMP JUMPDEST PUSH1 0x40 MLOAD DUP1 SWAP2 SUB SWAP1 RETURN JUMPDEST PUSH2 0x161 PUSH1 0x4 DUP1 CALLDATASIZE SUB DUP2 ADD SWAP1 PUSH2 0x15C SWAP2 SWAP1 PUSH2 0xE8B JUMP JUMPDEST PUSH2 0x8DC JUMP JUMPDEST STOP JUMPDEST PUSH2 0x16B PUSH2 0xA13 JUMP JUMPDEST PUSH1 0x40 MLOAD PUSH2 0x178 SWAP2 SWAP1 PUSH2 0xED2 JUMP JUMPDEST PUSH1 0x40 MLOAD DUP1 SWAP2 SUB SWAP1 RETURN JUMPDEST PUSH2 0x19B PUSH1 0x4 DUP1 CALLDATASIZE SUB DUP2 ADD SWAP1 PUSH2 0x196 SWAP2 SWAP1 PUSH2 0xA98 JUMP JUMPDEST PUSH2 0xA19 JUMP JUMPDEST PUSH1 0x40 MLOAD PUSH2 0x1A8 SWAP2 SWAP1 PUSH2 0xBF3 JUMP JUMPDEST PUSH1 0x40 MLOAD DUP1 SWAP2 SUB SWAP1 RETURN JUMPDEST PUSH1 0x1 ISZERO ISZERO PUSH0 DUP1 DUP4 DUP2 MSTORE PUSH1 0x20 ADD SWAP1 DUP2 MSTORE PUSH1 0x20 ADD PUSH0 KECCAK256 PUSH1 0x4 ADD PUSH0 SWAP1 SLOAD SWAP1 PUSH2 0x100 EXP SWAP1 DIV PUSH1 0xFF AND ISZERO ISZERO EQ PUSH2 0x217 JUMPI PUSH1 0x40 MLOAD PUSH32 0x8C379A000000000000000000000000000000000000000000000000000000000 DUP2 MSTORE PUSH1 0x4 ADD PUSH2 0x20E SWAP1 PUSH2 0xF35 JUMP JUMPDEST PUSH1 0x40 MLOAD DUP1 SWAP2 SUB SWAP1 REVERT JUMPDEST PUSH0 PUSH1 0x1 PUSH0 CALLER PUSH20 0xFFFFFFFFFFFFFFFFFFFFFFFFFFFFFFFFFFFFFFFF AND PUSH20 0xFFFFFFFFFFFFFFFFFFFFFFFFFFFFFFFFFFFFFFFF AND DUP2 MSTORE PUSH1 0x20 ADD SWAP1 DUP2 MSTORE PUSH1 0x20 ADD PUSH0 KECCAK256 SWAP1 POP DUP1 PUSH0 ADD PUSH0 SWAP1 SLOAD SWAP1 PUSH2 0x100 EXP SWAP1 DIV PUSH1 0xFF AND ISZERO PUSH2 0x2A7 JUMPI PUSH1 0x40 MLOAD PUSH32 0x8C379A000000000000000000000000000000000000000000000000000000000 DUP2 MSTORE PUSH1 0x4 ADD PUSH2 0x29E SWAP1 PUSH2 0xF9D JUMP JUMPDEST PUSH1 0x40 MLOAD DUP1 SWAP2 SUB SWAP1 REVERT JUMPDEST PUSH1 0x1 DUP2 PUSH0 ADD PUSH0 PUSH2 0x100 EXP DUP2 SLOAD DUP2 PUSH1 0xFF MUL NOT AND SWAP1 DUP4 ISZERO ISZERO MUL OR SWAP1 SSTORE POP DUP2 DUP2 PUSH1 0x1 ADD DUP2 SWAP1 SSTORE POP PUSH0 DUP1 DUP4 DUP2 MSTORE PUSH1 0x20 ADD SWAP1 DUP2 MSTORE PUSH1 0x20 ADD PUSH0 KECCAK256 PUSH1 0x3 ADD PUSH0 DUP2 SLOAD DUP1 SWAP3 SWAP2 SWAP1 PUSH2 0x2EE SWAP1 PUSH2 0xFE8 JUMP JUMPDEST SWAP2 SWAP1 POP SSTORE POP PUSH1 0x4 CALLER SWAP1 DUP1 PUSH1 0x1 DUP2 SLOAD ADD DUP1 DUP3 SSTORE DUP1 SWAP2 POP POP PUSH1 0x1 SWAP1 SUB SWAP1 PUSH0 MSTORE PUSH1 0x20 PUSH0 KECCAK256 ADD PUSH0 SWAP1 SWAP2 SWAP1 SWAP2 SWAP1 SWAP2 PUSH2 0x100 EXP DUP2 SLOAD DUP2 PUSH20 0xFFFFFFFFFFFFFFFFFFFFFFFFFFFFFFFFFFFFFFFF MUL NOT AND SWAP1 DUP4 PUSH20 0xFFFFFFFFFFFFFFFFFFFFFFFFFFFFFFFFFFFFFFFF AND MUL OR SWAP1 SSTORE POP POP POP JUMP JUMPDEST PUSH0 PUSH1 0x20 MSTORE DUP1 PUSH0 MSTORE PUSH1 0x40 PUSH0 KECCAK256 PUSH0 SWAP2 POP SWAP1 POP DUP1 PUSH0 ADD SLOAD SWAP1 DUP1 PUSH1 0x1 ADD PUSH0 SWAP1 SLOAD SWAP1 PUSH2 0x100 EXP SWAP1 DIV PUSH20 0xFFFFFFFFFFFFFFFFFFFFFFFFFFFFFFFFFFFFFFFF AND SWAP1 DUP1 PUSH1 0x2 ADD DUP1 SLOAD PUSH2 0x3A0 SWAP1 PUSH2 0x105C JUMP JUMPDEST DUP1 PUSH1 0x1F ADD PUSH1 0x20 DUP1 SWAP2 DIV MUL PUSH1 0x20 ADD PUSH1 0x40 MLOAD SWAP1 DUP2 ADD PUSH1 0x40 MSTORE DUP1 SWAP3 SWAP2 SWAP1 DUP2 DUP2 MSTORE PUSH1 0x20 ADD DUP3 DUP1 SLOAD PUSH2 0x3CC SWAP1 PUSH2 0x105C JUMP JUMPDEST DUP1 ISZERO PUSH2 0x417 JUMPI DUP1 PUSH1 0x1F LT PUSH2 0x3EE JUMPI PUSH2 0x100 DUP1 DUP4 SLOAD DIV MUL DUP4 MSTORE SWAP2 PUSH1 0x20 ADD SWAP2 PUSH2 0x417 JUMP JUMPDEST DUP3 ADD SWAP2 SWAP1 PUSH0 MSTORE PUSH1 0x20 PUSH0 KECCAK256 SWAP1 JUMPDEST DUP2 SLOAD DUP2 MSTORE SWAP1 PUSH1 0x1 ADD SWAP1 PUSH1 0x20 ADD DUP1 DUP4 GT PUSH2 0x3FA JUMPI DUP3 SWAP1 SUB PUSH1 0x1F AND DUP3 ADD SWAP2 JUMPDEST POP POP POP POP POP SWAP1 DUP1 PUSH1 0x3 ADD SLOAD SWAP1 DUP1 PUSH1 0x4 ADD PUSH0 SWAP1 SLOAD SWAP1 PUSH2 0x100 EXP SWAP1 DIV PUSH1 0xFF AND SWAP1 POP DUP6 JUMP JUMPDEST PUSH1 0x3 PUSH0 SWAP1 SLOAD SWAP1 PUSH2 0x100 EXP SWAP1 DIV PUSH20 0xFFFFFFFFFFFFFFFFFFFFFFFFFFFFFFFFFFFFFFFF AND DUP2 JUMP JUMPDEST PUSH1 0x60 CALLER PUSH20 0xFFFFFFFFFFFFFFFFFFFFFFFFFFFFFFFFFFFFFFFF AND PUSH1 0x3 PUSH0 SWAP1 SLOAD SWAP1 PUSH2 0x100 EXP SWAP1 DIV PUSH20 0xFFFFFFFFFFFFFFFFFFFFFFFFFFFFFFFFFFFFFFFF AND PUSH20 0xFFFFFFFFFFFFFFFFFFFFFFFFFFFFFFFFFFFFFFFF AND EQ PUSH2 0x4EF JUMPI PUSH1 0x40 MLOAD PUSH32 0x8C379A000000000000000000000000000000000000000000000000000000000 DUP2 MSTORE PUSH1 0x4 ADD PUSH2 0x4E6 SWAP1 PUSH2 0x10D6 JUMP JUMPDEST PUSH1 0x40 MLOAD DUP1 SWAP2 SUB SWAP1 REVERT JUMPDEST PUSH0 DUP1 PUSH1 0x2 SLOAD PUSH8 0xFFFFFFFFFFFFFFFF DUP2 GT ISZERO PUSH2 0x50D JUMPI PUSH2 0x50C PUSH2 0xD67 JUMP JUMPDEST JUMPDEST PUSH1 0x40 MLOAD SWAP1 DUP1 DUP3 MSTORE DUP1 PUSH1 0x20 MUL PUSH1 0x20 ADD DUP3 ADD PUSH1 0x40 MSTORE DUP1 ISZERO PUSH2 0x53B JUMPI DUP2 PUSH1 0x20 ADD PUSH1 0x20 DUP3 MUL DUP1 CALLDATASIZE DUP4 CALLDATACOPY DUP1 DUP3 ADD SWAP2 POP POP SWAP1 POP JUMPDEST POP SWAP1 POP PUSH0 DUP1 JUMPDEST PUSH1 0x2 SLOAD DUP2 LT ISZERO PUSH2 0x64A JUMPI PUSH0 DUP1 DUP3 DUP2 MSTORE PUSH1 0x20 ADD SWAP1 DUP2 MSTORE PUSH1 0x20 ADD PUSH0 KECCAK256 PUSH1 0x4 ADD PUSH0 SWAP1 SLOAD SWAP1 PUSH2 0x100 EXP SWAP1 DIV PUSH1 0xFF AND ISZERO PUSH2 0x63D JUMPI PUSH0 DUP1 PUSH0 DUP4 DUP2 MSTORE PUSH1 0x20 ADD SWAP1 DUP2 MSTORE PUSH1 0x20 ADD PUSH0 KECCAK256 PUSH1 0x4 ADD PUSH0 PUSH2 0x100 EXP DUP2 SLOAD DUP2 PUSH1 0xFF MUL NOT AND SWAP1 DUP4 ISZERO ISZERO MUL OR SWAP1 SSTORE POP DUP4 PUSH0 DUP1 DUP4 DUP2 MSTORE PUSH1 0x20 ADD SWAP1 DUP2 MSTORE PUSH1 0x20 ADD PUSH0 KECCAK256 PUSH1 0x3 ADD SLOAD GT ISZERO PUSH2 0x5F4 JUMPI PUSH0 DUP1 DUP3 DUP2 MSTORE PUSH1 0x20 ADD SWAP1 DUP2 MSTORE PUSH1 0x20 ADD PUSH0 KECCAK256 PUSH1 0x3 ADD SLOAD SWAP4 POP PUSH1 0x1 SWAP2 POP DUP1 DUP4 PUSH0 DUP2 MLOAD DUP2 LT PUSH2 0x5E3 JUMPI PUSH2 0x5E2 PUSH2 0x10F4 JUMP JUMPDEST JUMPDEST PUSH1 0x20 MUL PUSH1 0x20 ADD ADD DUP2 DUP2 MSTORE POP POP PUSH2 0x63C JUMP JUMPDEST DUP4 PUSH0 DUP1 DUP4 DUP2 MSTORE PUSH1 0x20 ADD SWAP1 DUP2 MSTORE PUSH1 0x20 ADD PUSH0 KECCAK256 PUSH1 0x3 ADD SLOAD SUB PUSH2 0x63B JUMPI DUP1 DUP4 DUP4 DUP1 PUSH2 0x61B SWAP1 PUSH2 0xFE8 JUMP JUMPDEST SWAP5 POP DUP2 MLOAD DUP2 LT PUSH2 0x62E JUMPI PUSH2 0x62D PUSH2 0x10F4 JUMP JUMPDEST JUMPDEST PUSH1 0x20 MUL PUSH1 0x20 ADD ADD DUP2 DUP2 MSTORE POP POP JUMPDEST JUMPDEST JUMPDEST DUP1 DUP1 PUSH1 0x1 ADD SWAP2 POP POP PUSH2 0x541 JUMP JUMPDEST POP PUSH0 DUP2 PUSH8 0xFFFFFFFFFFFFFFFF DUP2 GT ISZERO PUSH2 0x666 JUMPI PUSH2 0x665 PUSH2 0xD67 JUMP JUMPDEST JUMPDEST PUSH1 0x40 MLOAD SWAP1 DUP1 DUP3 MSTORE DUP1 PUSH1 0x20 MUL PUSH1 0x20 ADD DUP3 ADD PUSH1 0x40 MSTORE DUP1 ISZERO PUSH2 0x694 JUMPI DUP2 PUSH1 0x20 ADD PUSH1 0x20 DUP3 MUL DUP1 CALLDATASIZE DUP4 CALLDATACOPY DUP1 DUP3 ADD SWAP2 POP POP SWAP1 POP JUMPDEST POP SWAP1 POP PUSH0 JUMPDEST DUP3 DUP2 LT ISZERO PUSH2 0x6E8 JUMPI DUP4 DUP2 DUP2 MLOAD DUP2 LT PUSH2 0x6B4 JUMPI PUSH2 0x6B3 PUSH2 0x10F4 JUMP JUMPDEST JUMPDEST PUSH1 0x20 MUL PUSH1 0x20 ADD ADD MLOAD DUP3 DUP3 DUP2 MLOAD DUP2 LT PUSH2 0x6CF JUMPI PUSH2 0x6CE PUSH2 0x10F4 JUMP JUMPDEST JUMPDEST PUSH1 0x20 MUL PUSH1 0x20 ADD ADD DUP2 DUP2 MSTORE POP POP DUP1 DUP1 PUSH1 0x1 ADD SWAP2 POP POP PUSH2 0x699 JUMP JUMPDEST POP PUSH0 JUMPDEST PUSH1 0x4 DUP1 SLOAD SWAP1 POP DUP2 LT ISZERO PUSH2 0x816 JUMPI PUSH0 PUSH1 0x1 PUSH0 PUSH1 0x4 DUP5 DUP2 SLOAD DUP2 LT PUSH2 0x710 JUMPI PUSH2 0x70F PUSH2 0x10F4 JUMP JUMPDEST JUMPDEST SWAP1 PUSH0 MSTORE PUSH1 0x20 PUSH0 KECCAK256 ADD PUSH0 SWAP1 SLOAD SWAP1 PUSH2 0x100 EXP SWAP1 DIV PUSH20 0xFFFFFFFFFFFFFFFFFFFFFFFFFFFFFFFFFFFFFFFF AND PUSH20 0xFFFFFFFFFFFFFFFFFFFFFFFFFFFFFFFFFFFFFFFF AND PUSH20 0xFFFFFFFFFFFFFFFFFFFFFFFFFFFFFFFFFFFFFFFF AND DUP2 MSTORE PUSH1 0x20 ADD SWAP1 DUP2 MSTORE PUSH1 0x20 ADD PUSH0 KECCAK256 PUSH0 ADD PUSH0 PUSH2 0x100 EXP DUP2 SLOAD DUP2 PUSH1 0xFF MUL NOT AND SWAP1 DUP4 ISZERO ISZERO MUL OR SWAP1 SSTORE POP PUSH0 PUSH1 0x1 PUSH0 PUSH1 0x4 DUP5 DUP2 SLOAD DUP2 LT PUSH2 0x7A1 JUMPI PUSH2 0x7A0 PUSH2 0x10F4 JUMP JUMPDEST JUMPDEST SWAP1 PUSH0 MSTORE PUSH1 0x20 PUSH0 KECCAK256 ADD PUSH0 SWAP1 SLOAD SWAP1 PUSH2 0x100 EXP SWAP1 DIV PUSH20 0xFFFFFFFFFFFFFFFFFFFFFFFFFFFFFFFFFFFFFFFF AND PUSH20 0xFFFFFFFFFFFFFFFFFFFFFFFFFFFFFFFFFFFFFFFF AND PUSH20 0xFFFFFFFFFFFFFFFFFFFFFFFFFFFFFFFFFFFFFFFF AND DUP2 MSTORE PUSH1 0x20 ADD SWAP1 DUP2 MSTORE PUSH1 0x20 ADD PUSH0 KECCAK256 PUSH1 0x1 ADD DUP2 SWAP1 SSTORE POP DUP1 DUP1 PUSH1 0x1 ADD SWAP2 POP POP PUSH2 0x6EB JUMP JUMPDEST POP JUMPDEST PUSH0 PUSH1 0x4 DUP1 SLOAD SWAP1 POP EQ PUSH2 0x86D JUMPI PUSH1 0x4 DUP1 SLOAD DUP1 PUSH2 0x836 JUMPI PUSH2 0x835 PUSH2 0x1121 JUMP JUMPDEST JUMPDEST PUSH1 0x1 SWAP1 SUB DUP2 DUP2 SWAP1 PUSH0 MSTORE PUSH1 0x20 PUSH0 KECCAK256 ADD PUSH0 PUSH2 0x100 EXP DUP2 SLOAD SWAP1 PUSH20 0xFFFFFFFFFFFFFFFFFFFFFFFFFFFFFFFFFFFFFFFF MUL NOT AND SWAP1 SSTORE SWAP1 SSTORE PUSH2 0x818 JUMP JUMPDEST PUSH32 0xDA19A91227BF044DF0E2A105BA158941C8E9B15FED2870E5DDBD47450C2983EB DUP2 DUP6 PUSH1 0x40 MLOAD PUSH2 0x89E SWAP3 SWAP2 SWAP1 PUSH2 0x114E JUMP JUMPDEST PUSH1 0x40 MLOAD DUP1 SWAP2 SUB SWAP1 LOG1 DUP1 SWAP5 POP POP POP POP POP SWAP1 JUMP JUMPDEST PUSH1 0x1 PUSH1 0x20 MSTORE DUP1 PUSH0 MSTORE PUSH1 0x40 PUSH0 KECCAK256 PUSH0 SWAP2 POP SWAP1 POP DUP1 PUSH0 ADD PUSH0 SWAP1 SLOAD SWAP1 PUSH2 0x100 EXP SWAP1 DIV PUSH1 0xFF AND SWAP1 DUP1 PUSH1 0x1 ADD SLOAD SWAP1 POP DUP3 JUMP JUMPDEST PUSH1 0x40 MLOAD DUP1 PUSH1 0xA0 ADD PUSH1 0x40 MSTORE DUP1 PUSH1 0x2 SLOAD DUP2 MSTORE PUSH1 0x20 ADD CALLER PUSH20 0xFFFFFFFFFFFFFFFFFFFFFFFFFFFFFFFFFFFFFFFF AND DUP2 MSTORE PUSH1 0x20 ADD DUP3 DUP2 MSTORE PUSH1 0x20 ADD PUSH0 DUP2 MSTORE PUSH1 0x20 ADD PUSH1 0x1 ISZERO ISZERO DUP2 MSTORE POP PUSH0 DUP1 PUSH1 0x2 PUSH0 DUP2 SLOAD DUP1 SWAP3 SWAP2 SWAP1 PUSH2 0x932 SWAP1 PUSH2 0xFE8 JUMP JUMPDEST SWAP2 SWAP1 POP SSTORE DUP2 MSTORE PUSH1 0x20 ADD SWAP1 DUP2 MSTORE PUSH1 0x20 ADD PUSH0 KECCAK256 PUSH0 DUP3 ADD MLOAD DUP2 PUSH0 ADD SSTORE PUSH1 0x20 DUP3 ADD MLOAD DUP2 PUSH1 0x1 ADD PUSH0 PUSH2 0x100 EXP DUP2 SLOAD DUP2 PUSH20 0xFFFFFFFFFFFFFFFFFFFFFFFFFFFFFFFFFFFFFFFF MUL NOT AND SWAP1 DUP4 PUSH20 0xFFFFFFFFFFFFFFFFFFFFFFFFFFFFFFFFFFFFFFFF AND MUL OR SWAP1 SSTORE POP PUSH1 0x40 DUP3 ADD MLOAD DUP2 PUSH1 0x2 ADD SWAP1 DUP2 PUSH2 0x9A6 SWAP2 SWAP1 PUSH2 0x1319 JUMP JUMPDEST POP PUSH1 0x60 DUP3 ADD MLOAD DUP2 PUSH1 0x3 ADD SSTORE PUSH1 0x80 DUP3 ADD MLOAD DUP2 PUSH1 0x4 ADD PUSH0 PUSH2 0x100 EXP DUP2 SLOAD DUP2 PUSH1 0xFF MUL NOT AND SWAP1 DUP4 ISZERO ISZERO MUL OR SWAP1 SSTORE POP SWAP1 POP POP PUSH32 0x7585F467599D0F008985F231AF99293BE388626AC16CA59505C2F8F88969CD63 PUSH1 0x2 SLOAD CALLER DUP4 PUSH1 0x40 MLOAD PUSH2 0xA08 SWAP4 SWAP3 SWAP2 SWAP1 PUSH2 0x13E8 JUMP JUMPDEST PUSH1 0x40 MLOAD DUP1 SWAP2 SUB SWAP1 LOG1 POP JUMP JUMPDEST PUSH1 0x2 SLOAD DUP2 JUMP JUMPDEST PUSH1 0x4 DUP2 DUP2 SLOAD DUP2 LT PUSH2 0xA28 JUMPI PUSH0 DUP1 REVERT JUMPDEST SWAP1 PUSH0 MSTORE PUSH1 0x20 PUSH0 KECCAK256 ADD PUSH0 SWAP2 POP SLOAD SWAP1 PUSH2 0x100 EXP SWAP1 DIV PUSH20 0xFFFFFFFFFFFFFFFFFFFFFFFFFFFFFFFFFFFFFFFF AND DUP2 JUMP JUMPDEST PUSH0 PUSH1 0x40 MLOAD SWAP1 POP SWAP1 JUMP JUMPDEST PUSH0 DUP1 REVERT JUMPDEST PUSH0 DUP1 REVERT JUMPDEST PUSH0 DUP2 SWAP1 POP SWAP2 SWAP1 POP JUMP JUMPDEST PUSH2 0xA77 DUP2 PUSH2 0xA65 JUMP JUMPDEST DUP2 EQ PUSH2 0xA81 JUMPI PUSH0 DUP1 REVERT JUMPDEST POP JUMP JUMPDEST PUSH0 DUP2 CALLDATALOAD SWAP1 POP PUSH2 0xA92 DUP2 PUSH2 0xA6E JUMP JUMPDEST SWAP3 SWAP2 POP POP JUMP JUMPDEST PUSH0 PUSH1 0x20 DUP3 DUP5 SUB SLT ISZERO PUSH2 0xAAD JUMPI PUSH2 0xAAC PUSH2 0xA5D JUMP JUMPDEST JUMPDEST PUSH0 PUSH2 0xABA DUP5 DUP3 DUP6 ADD PUSH2 0xA84 JUMP JUMPDEST SWAP2 POP POP SWAP3 SWAP2 POP POP JUMP JUMPDEST PUSH2 0xACC DUP2 PUSH2 0xA65 JUMP JUMPDEST DUP3 MSTORE POP POP JUMP JUMPDEST PUSH0 PUSH20 0xFFFFFFFFFFFFFFFFFFFFFFFFFFFFFFFFFFFFFFFF DUP3 AND SWAP1 POP SWAP2 SWAP1 POP JUMP JUMPDEST PUSH0 PUSH2 0xAFB DUP3 PUSH2 0xAD2 JUMP JUMPDEST SWAP1 POP SWAP2 SWAP1 POP JUMP JUMPDEST PUSH2 0xB0B DUP2 PUSH2 0xAF1 JUMP JUMPDEST DUP3 MSTORE POP POP JUMP JUMPDEST PUSH0 DUP2 MLOAD SWAP1 POP SWAP2 SWAP1 POP JUMP JUMPDEST PUSH0 DUP3 DUP3 MSTORE PUSH1 0x20 DUP3 ADD SWAP1 POP SWAP3 SWAP2 POP POP JUMP JUMPDEST DUP3 DUP2 DUP4 MCOPY PUSH0 DUP4 DUP4 ADD MSTORE POP POP POP JUMP JUMPDEST PUSH0 PUSH1 0x1F NOT PUSH1 0x1F DUP4 ADD AND SWAP1 POP SWAP2 SWAP1 POP JUMP JUMPDEST PUSH0 PUSH2 0xB53 DUP3 PUSH2 0xB11 JUMP JUMPDEST PUSH2 0xB5D DUP2 DUP6 PUSH2 0xB1B JUMP JUMPDEST SWAP4 POP PUSH2 0xB6D DUP2 DUP6 PUSH1 0x20 DUP7 ADD PUSH2 0xB2B JUMP JUMPDEST PUSH2 0xB76 DUP2 PUSH2 0xB39 JUMP JUMPDEST DUP5 ADD SWAP2 POP POP SWAP3 SWAP2 POP POP JUMP JUMPDEST PUSH0 DUP2 ISZERO ISZERO SWAP1 POP SWAP2 SWAP1 POP JUMP JUMPDEST PUSH2 0xB95 DUP2 PUSH2 0xB81 JUMP JUMPDEST DUP3 MSTORE POP POP JUMP JUMPDEST PUSH0 PUSH1 0xA0 DUP3 ADD SWAP1 POP PUSH2 0xBAE PUSH0 DUP4 ADD DUP9 PUSH2 0xAC3 JUMP JUMPDEST PUSH2 0xBBB PUSH1 0x20 DUP4 ADD DUP8 PUSH2 0xB02 JUMP JUMPDEST DUP2 DUP2 SUB PUSH1 0x40 DUP4 ADD MSTORE PUSH2 0xBCD DUP2 DUP7 PUSH2 0xB49 JUMP JUMPDEST SWAP1 POP PUSH2 0xBDC PUSH1 0x60 DUP4 ADD DUP6 PUSH2 0xAC3 JUMP JUMPDEST PUSH2 0xBE9 PUSH1 0x80 DUP4 ADD DUP5 PUSH2 0xB8C JUMP JUMPDEST SWAP7 SWAP6 POP POP POP POP POP POP JUMP JUMPDEST PUSH0 PUSH1 0x20 DUP3 ADD SWAP1 POP PUSH2 0xC06 PUSH0 DUP4 ADD DUP5 PUSH2 0xB02 JUMP JUMPDEST SWAP3 SWAP2 POP POP JUMP JUMPDEST PUSH0 DUP2 MLOAD SWAP1 POP SWAP2 SWAP1 POP JUMP JUMPDEST PUSH0 DUP3 DUP3 MSTORE PUSH1 0x20 DUP3 ADD SWAP1 POP SWAP3 SWAP2 POP POP JUMP JUMPDEST PUSH0 DUP2 SWAP1 POP PUSH1 0x20 DUP3 ADD SWAP1 POP SWAP2 SWAP1 POP JUMP JUMPDEST PUSH2 0xC3E DUP2 PUSH2 0xA65 JUMP JUMPDEST DUP3 MSTORE POP POP JUMP JUMPDEST PUSH0 PUSH2 0xC4F DUP4 DUP4 PUSH2 0xC35 JUMP JUMPDEST PUSH1 0x20 DUP4 ADD SWAP1 POP SWAP3 SWAP2 POP POP JUMP JUMPDEST PUSH0 PUSH1 0x20 DUP3 ADD SWAP1 POP SWAP2 SWAP1 POP JUMP JUMPDEST PUSH0 PUSH2 0xC71 DUP3 PUSH2 0xC0C JUMP JUMPDEST PUSH2 0xC7B DUP2 DUP6 PUSH2 0xC16 JUMP JUMPDEST SWAP4 POP PUSH2 0xC86 DUP4 PUSH2 0xC26 JUMP JUMPDEST DUP1 PUSH0 JUMPDEST DUP4 DUP2 LT ISZERO PUSH2 0xCB6 JUMPI DUP2 MLOAD PUSH2 0xC9D DUP9 DUP3 PUSH2 0xC44 JUMP JUMPDEST SWAP8 POP PUSH2 0xCA8 DUP4 PUSH2 0xC5B JUMP JUMPDEST SWAP3 POP POP PUSH1 0x1 DUP2 ADD SWAP1 POP PUSH2 0xC89 JUMP JUMPDEST POP DUP6 SWAP4 POP POP POP POP SWAP3 SWAP2 POP POP JUMP JUMPDEST PUSH0 PUSH1 0x20 DUP3 ADD SWAP1 POP DUP2 DUP2 SUB PUSH0 DUP4 ADD MSTORE PUSH2 0xCDB DUP2 DUP5 PUSH2 0xC67 JUMP JUMPDEST SWAP1 POP SWAP3 SWAP2 POP POP JUMP JUMPDEST PUSH2 0xCEC DUP2 PUSH2 0xAF1 JUMP JUMPDEST DUP2 EQ PUSH2 0xCF6 JUMPI PUSH0 DUP1 REVERT JUMPDEST POP JUMP JUMPDEST PUSH0 DUP2 CALLDATALOAD SWAP1 POP PUSH2 0xD07 DUP2 PUSH2 0xCE3 JUMP JUMPDEST SWAP3 SWAP2 POP POP JUMP JUMPDEST PUSH0 PUSH1 0x20 DUP3 DUP5 SUB SLT ISZERO PUSH2 0xD22 JUMPI PUSH2 0xD21 PUSH2 0xA5D JUMP JUMPDEST JUMPDEST PUSH0 PUSH2 0xD2F DUP5 DUP3 DUP6 ADD PUSH2 0xCF9 JUMP JUMPDEST SWAP2 POP POP SWAP3 SWAP2 POP POP JUMP JUMPDEST PUSH0 PUSH1 0x40 DUP3 ADD SWAP1 POP PUSH2 0xD4B PUSH0 DUP4 ADD DUP6 PUSH2 0xB8C JUMP JUMPDEST PUSH2 0xD58 PUSH1 0x20 DUP4 ADD DUP5 PUSH2 0xAC3 JUMP JUMPDEST SWAP4 SWAP3 POP POP POP JUMP JUMPDEST PUSH0 DUP1 REVERT JUMPDEST PUSH0 DUP1 REVERT JUMPDEST PUSH32 0x4E487B7100000000000000000000000000000000000000000000000000000000 PUSH0 MSTORE PUSH1 0x41 PUSH1 0x4 MSTORE PUSH1 0x24 PUSH0 REVERT JUMPDEST PUSH2 0xD9D DUP3 PUSH2 0xB39 JUMP JUMPDEST DUP2 ADD DUP2 DUP2 LT PUSH8 0xFFFFFFFFFFFFFFFF DUP3 GT OR ISZERO PUSH2 0xDBC JUMPI PUSH2 0xDBB PUSH2 0xD67 JUMP JUMPDEST JUMPDEST DUP1 PUSH1 0x40 MSTORE POP POP POP JUMP JUMPDEST PUSH0 PUSH2 0xDCE PUSH2 0xA54 JUMP JUMPDEST SWAP1 POP PUSH2 0xDDA DUP3 DUP3 PUSH2 0xD94 JUMP JUMPDEST SWAP2 SWAP1 POP JUMP JUMPDEST PUSH0 PUSH8 0xFFFFFFFFFFFFFFFF DUP3 GT ISZERO PUSH2 0xDF9 JUMPI PUSH2 0xDF8 PUSH2 0xD67 JUMP JUMPDEST JUMPDEST PUSH2 0xE02 DUP3 PUSH2 0xB39 JUMP JUMPDEST SWAP1 POP PUSH1 0x20 DUP2 ADD SWAP1 POP SWAP2 SWAP1 POP JUMP JUMPDEST DUP3 DUP2 DUP4 CALLDATACOPY PUSH0 DUP4 DUP4 ADD MSTORE POP POP POP JUMP JUMPDEST PUSH0 PUSH2 0xE2F PUSH2 0xE2A DUP5 PUSH2 0xDDF JUMP JUMPDEST PUSH2 0xDC5 JUMP JUMPDEST SWAP1 POP DUP3 DUP2 MSTORE PUSH1 0x20 DUP2 ADD DUP5 DUP5 DUP5 ADD GT ISZERO PUSH2 0xE4B JUMPI PUSH2 0xE4A PUSH2 0xD63 JUMP JUMPDEST JUMPDEST PUSH2 0xE56 DUP5 DUP3 DUP6 PUSH2 0xE0F JUMP JUMPDEST POP SWAP4 SWAP3 POP POP POP JUMP JUMPDEST PUSH0 DUP3 PUSH1 0x1F DUP4 ADD SLT PUSH2 0xE72 JUMPI PUSH2 0xE71 PUSH2 0xD5F JUMP JUMPDEST JUMPDEST DUP2 CALLDATALOAD PUSH2 0xE82 DUP5 DUP3 PUSH1 0x20 DUP7 ADD PUSH2 0xE1D JUMP JUMPDEST SWAP2 POP POP SWAP3 SWAP2 POP POP JUMP JUMPDEST PUSH0 PUSH1 0x20 DUP3 DUP5 SUB SLT ISZERO PUSH2 0xEA0 JUMPI PUSH2 0xE9F PUSH2 0xA5D JUMP JUMPDEST JUMPDEST PUSH0 DUP3 ADD CALLDATALOAD PUSH8 0xFFFFFFFFFFFFFFFF DUP2 GT ISZERO PUSH2 0xEBD JUMPI PUSH2 0xEBC PUSH2 0xA61 JUMP JUMPDEST JUMPDEST PUSH2 0xEC9 DUP5 DUP3 DUP6 ADD PUSH2 0xE5E JUMP JUMPDEST SWAP2 POP POP SWAP3 SWAP2 POP POP JUMP JUMPDEST PUSH0 PUSH1 0x20 DUP3 ADD SWAP1 POP PUSH2 0xEE5 PUSH0 DUP4 ADD DUP5 PUSH2 0xAC3 JUMP JUMPDEST SWAP3 SWAP2 POP POP JUMP JUMPDEST PUSH32 0x50726F706F73616C206D757374206265206F70656E2E00000000000000000000 PUSH0 DUP3 ADD MSTORE POP JUMP JUMPDEST PUSH0 PUSH2 0xF1F PUSH1 0x16 DUP4 PUSH2 0xB1B JUMP JUMPDEST SWAP2 POP PUSH2 0xF2A DUP3 PUSH2 0xEEB JUMP JUMPDEST PUSH1 0x20 DUP3 ADD SWAP1 POP SWAP2 SWAP1 POP JUMP JUMPDEST PUSH0 PUSH1 0x20 DUP3 ADD SWAP1 POP DUP2 DUP2 SUB PUSH0 DUP4 ADD MSTORE PUSH2 0xF4C DUP2 PUSH2 0xF13 JUMP JUMPDEST SWAP1 POP SWAP2 SWAP1 POP JUMP JUMPDEST PUSH32 0x416C726561647920766F7465642E000000000000000000000000000000000000 PUSH0 DUP3 ADD MSTORE POP JUMP JUMPDEST PUSH0 PUSH2 0xF87 PUSH1 0xE DUP4 PUSH2 0xB1B JUMP JUMPDEST SWAP2 POP PUSH2 0xF92 DUP3 PUSH2 0xF53 JUMP JUMPDEST PUSH1 0x20 DUP3 ADD SWAP1 POP SWAP2 SWAP1 POP JUMP JUMPDEST PUSH0 PUSH1 0x20 DUP3 ADD SWAP1 POP DUP2 DUP2 SUB PUSH0 DUP4 ADD MSTORE PUSH2 0xFB4 DUP2 PUSH2 0xF7B JUMP JUMPDEST SWAP1 POP SWAP2 SWAP1 POP JUMP JUMPDEST PUSH32 0x4E487B7100000000000000000000000000000000000000000000000000000000 PUSH0 MSTORE PUSH1 0x11 PUSH1 0x4 MSTORE PUSH1 0x24 PUSH0 REVERT JUMPDEST PUSH0 PUSH2 0xFF2 DUP3 PUSH2 0xA65 JUMP JUMPDEST SWAP2 POP PUSH32 0xFFFFFFFFFFFFFFFFFFFFFFFFFFFFFFFFFFFFFFFFFFFFFFFFFFFFFFFFFFFFFFFF DUP3 SUB PUSH2 0x1024 JUMPI PUSH2 0x1023 PUSH2 0xFBB JUMP JUMPDEST JUMPDEST PUSH1 0x1 DUP3 ADD SWAP1 POP SWAP2 SWAP1 POP JUMP JUMPDEST PUSH32 0x4E487B7100000000000000000000000000000000000000000000000000000000 PUSH0 MSTORE PUSH1 0x22 PUSH1 0x4 MSTORE PUSH1 0x24 PUSH0 REVERT JUMPDEST PUSH0 PUSH1 0x2 DUP3 DIV SWAP1 POP PUSH1 0x1 DUP3 AND DUP1 PUSH2 0x1073 JUMPI PUSH1 0x7F DUP3 AND SWAP2 POP JUMPDEST PUSH1 0x20 DUP3 LT DUP2 SUB PUSH2 0x1086 JUMPI PUSH2 0x1085 PUSH2 0x102F JUMP JUMPDEST JUMPDEST POP SWAP2 SWAP1 POP JUMP JUMPDEST PUSH32 0x596F7520617265206E6F742074686520636F6E7472616374206F776E65722E00 PUSH0 DUP3 ADD MSTORE POP JUMP JUMPDEST PUSH0 PUSH2 0x10C0 PUSH1 0x1F DUP4 PUSH2 0xB1B JUMP JUMPDEST SWAP2 POP PUSH2 0x10CB DUP3 PUSH2 0x108C JUMP JUMPDEST PUSH1 0x20 DUP3 ADD SWAP1 POP SWAP2 SWAP1 POP JUMP JUMPDEST PUSH0 PUSH1 0x20 DUP3 ADD SWAP1 POP DUP2 DUP2 SUB PUSH0 DUP4 ADD MSTORE PUSH2 0x10ED DUP2 PUSH2 0x10B4 JUMP JUMPDEST SWAP1 POP SWAP2 SWAP1 POP JUMP JUMPDEST PUSH32 0x4E487B7100000000000000000000000000000000000000000000000000000000 PUSH0 MSTORE PUSH1 0x32 PUSH1 0x4 MSTORE PUSH1 0x24 PUSH0 REVERT JUMPDEST PUSH32 0x4E487B7100000000000000000000000000000000000000000000000000000000 PUSH0 MSTORE PUSH1 0x31 PUSH1 0x4 MSTORE PUSH1 0x24 PUSH0 REVERT JUMPDEST PUSH0 PUSH1 0x40 DUP3 ADD SWAP1 POP DUP2 DUP2 SUB PUSH0 DUP4 ADD MSTORE PUSH2 0x1166 DUP2 DUP6 PUSH2 0xC67 JUMP JUMPDEST SWAP1 POP PUSH2 0x1175 PUSH1 0x20 DUP4 ADD DUP5 PUSH2 0xAC3 JUMP JUMPDEST SWAP4 SWAP3 POP POP POP JUMP JUMPDEST PUSH0 DUP2 SWAP1 POP DUP2 PUSH0 MSTORE PUSH1 0x20 PUSH0 KECCAK256 SWAP1 POP SWAP2 SWAP1 POP JUMP JUMPDEST PUSH0 PUSH1 0x20 PUSH1 0x1F DUP4 ADD DIV SWAP1 POP SWAP2 SWAP1 POP JUMP JUMPDEST PUSH0 DUP3 DUP3 SHL SWAP1 POP SWAP3 SWAP2 POP POP JUMP JUMPDEST PUSH0 PUSH1 0x8 DUP4 MUL PUSH2 0x11D8 PUSH32 0xFFFFFFFFFFFFFFFFFFFFFFFFFFFFFFFFFFFFFFFFFFFFFFFFFFFFFFFFFFFFFFFF DUP3 PUSH2 0x119D JUMP JUMPDEST PUSH2 0x11E2 DUP7 DUP4 PUSH2 0x119D JUMP JUMPDEST SWAP6 POP DUP1 NOT DUP5 AND SWAP4 POP DUP1 DUP7 AND DUP5 OR SWAP3 POP POP POP SWAP4 SWAP3 POP POP POP JUMP JUMPDEST PUSH0 DUP2 SWAP1 POP SWAP2 SWAP1 POP JUMP JUMPDEST PUSH0 PUSH2 0x121D PUSH2 0x1218 PUSH2 0x1213 DUP5 PUSH2 0xA65 JUMP JUMPDEST PUSH2 0x11FA JUMP JUMPDEST PUSH2 0xA65 JUMP JUMPDEST SWAP1 POP SWAP2 SWAP1 POP JUMP JUMPDEST PUSH0 DUP2 SWAP1 POP SWAP2 SWAP1 POP JUMP JUMPDEST PUSH2 0x1236 DUP4 PUSH2 0x1203 JUMP JUMPDEST PUSH2 0x124A PUSH2 0x1242 DUP3 PUSH2 0x1224 JUMP JUMPDEST DUP5 DUP5 SLOAD PUSH2 0x11A9 JUMP JUMPDEST DUP3 SSTORE POP POP POP POP JUMP JUMPDEST PUSH0 SWAP1 JUMP JUMPDEST PUSH2 0x125E PUSH2 0x1252 JUMP JUMPDEST PUSH2 0x1269 DUP2 DUP5 DUP5 PUSH2 0x122D JUMP JUMPDEST POP POP POP JUMP JUMPDEST JUMPDEST DUP2 DUP2 LT ISZERO PUSH2 0x128C JUMPI PUSH2 0x1281 PUSH0 DUP3 PUSH2 0x1256 JUMP JUMPDEST PUSH1 0x1 DUP2 ADD SWAP1 POP PUSH2 0x126F JUMP JUMPDEST POP POP JUMP JUMPDEST PUSH1 0x1F DUP3 GT ISZERO PUSH2 0x12D1 JUMPI PUSH2 0x12A2 DUP2 PUSH2 0x117C JUMP JUMPDEST PUSH2 0x12AB DUP5 PUSH2 0x118E JUMP JUMPDEST DUP2 ADD PUSH1 0x20 DUP6 LT ISZERO PUSH2 0x12BA JUMPI DUP2 SWAP1 POP JUMPDEST PUSH2 0x12CE PUSH2 0x12C6 DUP6 PUSH2 0x118E JUMP JUMPDEST DUP4 ADD DUP3 PUSH2 0x126E JUMP JUMPDEST POP POP JUMPDEST POP POP POP JUMP JUMPDEST PUSH0 DUP3 DUP3 SHR SWAP1 POP SWAP3 SWAP2 POP POP JUMP JUMPDEST PUSH0 PUSH2 0x12F1 PUSH0 NOT DUP5 PUSH1 0x8 MUL PUSH2 0x12D6 JUMP JUMPDEST NOT DUP1 DUP4 AND SWAP2 POP POP SWAP3 SWAP2 POP POP JUMP JUMPDEST PUSH0 PUSH2 0x1309 DUP4 DUP4 PUSH2 0x12E2 JUMP JUMPDEST SWAP2 POP DUP3 PUSH1 0x2 MUL DUP3 OR SWAP1 POP SWAP3 SWAP2 POP POP JUMP JUMPDEST PUSH2 0x1322 DUP3 PUSH2 0xB11 JUMP JUMPDEST PUSH8 0xFFFFFFFFFFFFFFFF DUP2 GT ISZERO PUSH2 0x133B JUMPI PUSH2 0x133A PUSH2 0xD67 JUMP JUMPDEST JUMPDEST PUSH2 0x1345 DUP3 SLOAD PUSH2 0x105C JUMP JUMPDEST PUSH2 0x1350 DUP3 DUP3 DUP6 PUSH2 0x1290 JUMP JUMPDEST PUSH0 PUSH1 0x20 SWAP1 POP PUSH1 0x1F DUP4 GT PUSH1 0x1 DUP2 EQ PUSH2 0x1381 JUMPI PUSH0 DUP5 ISZERO PUSH2 0x136F JUMPI DUP3 DUP8 ADD MLOAD SWAP1 POP JUMPDEST PUSH2 0x1379 DUP6 DUP3 PUSH2 0x12FE JUMP JUMPDEST DUP7 SSTORE POP PUSH2 0x13E0 JUMP JUMPDEST PUSH1 0x1F NOT DUP5 AND PUSH2 0x138F DUP7 PUSH2 0x117C JUMP JUMPDEST PUSH0 JUMPDEST DUP3 DUP2 LT ISZERO PUSH2 0x13B6 JUMPI DUP5 DUP10 ADD MLOAD DUP3 SSTORE PUSH1 0x1 DUP3 ADD SWAP2 POP PUSH1 0x20 DUP6 ADD SWAP5 POP PUSH1 0x20 DUP2 ADD SWAP1 POP PUSH2 0x1391 JUMP JUMPDEST DUP7 DUP4 LT ISZERO PUSH2 0x13D3 JUMPI DUP5 DUP10 ADD MLOAD PUSH2 0x13CF PUSH1 0x1F DUP10 AND DUP3 PUSH2 0x12E2 JUMP JUMPDEST DUP4 SSTORE POP JUMPDEST PUSH1 0x1 PUSH1 0x2 DUP9 MUL ADD DUP9 SSTORE POP POP POP JUMPDEST POP POP POP POP POP POP JUMP JUMPDEST PUSH0 PUSH1 0x60 DUP3 ADD SWAP1 POP PUSH2 0x13FB PUSH0 DUP4 ADD DUP7 PUSH2 0xAC3 JUMP JUMPDEST PUSH2 0x1408 PUSH1 0x20 DUP4 ADD DUP6 PUSH2 0xB02 JUMP JUMPDEST DUP2 DUP2 SUB PUSH1 0x40 DUP4 ADD MSTORE PUSH2 0x141A DUP2 DUP5 PUSH2 0xB49 JUMP JUMPDEST SWAP1 POP SWAP5 SWAP4 POP POP POP POP JUMP INVALID LOG2 PUSH5 0x6970667358 0x22 SLT KECCAK256 PUSH31 0x4FD461657657547F9F49A11300A8B2D4F9295409381F328A6C54503C363E5D PUSH5 0x736F6C6343 STOP ADDMOD BYTE STOP CALLER "
		},
		"gasEstimates": {
			"creation": {
				"codeDepositCost": "1042000",
				"executionCost": "30356",
				"totalCost": "1072356"
			},
			"external": {
				"closeProposals()": "infinite",
				"owner()": "2553",
				"proposalCount()": "2469",
				"proposals(uint256)": "infinite",
				"propose(string)": "infinite",
				"vote(uint256)": "infinite",
				"voterAddresses(uint256)": "5010",
				"voters(address)": "5067"
			}
		},
		"methodIdentifiers": {
			"closeProposals()": "8f73f9a0",
			"owner()": "8da5cb5b",
			"proposalCount()": "da35c664",
			"proposals(uint256)": "013cf08b",
			"propose(string)": "aa98df39",
			"vote(uint256)": "0121b93f",
			"voterAddresses(uint256)": "dd0e2373",
			"voters(address)": "a3ec138d"
		}
	},
	"abi": [
		{
			"inputs": [],
			"stateMutability": "nonpayable",
			"type": "constructor"
		},
		{
			"anonymous": false,
			"inputs": [
				{
					"indexed": false,
					"internalType": "uint256",
					"name": "proposalId",
					"type": "uint256"
				},
				{
					"indexed": false,
					"internalType": "address",
					"name": "proposer",
					"type": "address"
				},
				{
					"indexed": false,
					"internalType": "string",
					"name": "description",
					"type": "string"
				}
			],
			"name": "ProposalCreated",
			"type": "event"
		},
		{
			"anonymous": false,
			"inputs": [
				{
					"indexed": false,
					"internalType": "uint256[]",
					"name": "mostVotedProposals",
					"type": "uint256[]"
				},
				{
					"indexed": false,
					"internalType": "uint256",
					"name": "highestVoteCount",
					"type": "uint256"
				}
			],
			"name": "ProposalsClosed",
			"type": "event"
		},
		{
			"inputs": [],
			"name": "closeProposals",
			"outputs": [
				{
					"internalType": "uint256[]",
					"name": "",
					"type": "uint256[]"
				}
			],
			"stateMutability": "nonpayable",
			"type": "function"
		},
		{
			"inputs": [],
			"name": "owner",
			"outputs": [
				{
					"internalType": "address",
					"name": "",
					"type": "address"
				}
			],
			"stateMutability": "view",
			"type": "function"
		},
		{
			"inputs": [],
			"name": "proposalCount",
			"outputs": [
				{
					"internalType": "uint256",
					"name": "",
					"type": "uint256"
				}
			],
			"stateMutability": "view",
			"type": "function"
		},
		{
			"inputs": [
				{
					"internalType": "uint256",
					"name": "",
					"type": "uint256"
				}
			],
			"name": "proposals",
			"outputs": [
				{
					"internalType": "uint256",
					"name": "id",
					"type": "uint256"
				},
				{
					"internalType": "address",
					"name": "proposer",
					"type": "address"
				},
				{
					"internalType": "string",
					"name": "description",
					"type": "string"
				},
				{
					"internalType": "uint256",
					"name": "voteCount",
					"type": "uint256"
				},
				{
					"internalType": "bool",
					"name": "open",
					"type": "bool"
				}
			],
			"stateMutability": "view",
			"type": "function"
		},
		{
			"inputs": [
				{
					"internalType": "string",
					"name": "_description",
					"type": "string"
				}
			],
			"name": "propose",
			"outputs": [],
			"stateMutability": "nonpayable",
			"type": "function"
		},
		{
			"inputs": [
				{
					"internalType": "uint256",
					"name": "proposalId",
					"type": "uint256"
				}
			],
			"name": "vote",
			"outputs": [],
			"stateMutability": "nonpayable",
			"type": "function"
		},
		{
			"inputs": [
				{
					"internalType": "uint256",
					"name": "",
					"type": "uint256"
				}
			],
			"name": "voterAddresses",
			"outputs": [
				{
					"internalType": "address",
					"name": "",
					"type": "address"
				}
			],
			"stateMutability": "view",
			"type": "function"
		},
		{
			"inputs": [
				{
					"internalType": "address",
					"name": "",
					"type": "address"
				}
			],
			"name": "voters",
			"outputs": [
				{
					"internalType": "bool",
					"name": "voted",
					"type": "bool"
				},
				{
					"internalType": "uint256",
					"name": "vote",
					"type": "uint256"
				}
			],
			"stateMutability": "view",
			"type": "function"
		}
	]
}